:020000040800F2
:1000000040FE002055020008B11F000885140008BA
:10001000AD1F0008B9050008D52100080000000048
:10002000000000000000000000000000B91F0008F0
:10003000BD05000800000000B51F0008BD1F000836
:100040006F0200086F0200086F0200086F020008CC
:100050006F0200086F0200086F0200086F020008BC
:100060006F0200086F0200086F0200086F020008AC
:100070006F0200086F0200086F0200086F0200089C
:100080006F0200086F0200086F0200086F0200088C
:100090006F0200086F0200086F0200086F0200087C
:1000A0006F0200086F0200086F0200086F0200086C
:1000B0006F0200086F0200086F0200086F0200085C
:1000C0006F0200086F0200086F0200086F0200084C
:1000D0006F0200086F0200086F0200086F0200083C
:1000E0006F0200086F0200086F0200086F0200082C
:1000F0006F0200086F0200086F0200086F0200081C
:100100006F0200086F0200086F0200086F0200080B
:100110006F0200086F0200087D2000086F020008CF
:100120006F0200086F0200086F0200086F020008EB
:100130006F0200086F0200086F0200086F020008DB
:100140006F0200086F0200086F0200086F020008CB
:100150006F0200086F0200086F0200086F020008BB
:100160006F0200086F0200086F0200086F020008AB
:100170006F0200086F0200086F0200080000000014
:100180006F0200086F02000800F002F800F052F859
:1001900014A696E8000CB244B344DA4501D100F04D
:1001A00049F8BAE80F000FA696E83000A5EB040561
:1001B00004EB0607AAEB0704A7F101074FEA1515A0
:1001C0004FEA3414A4F10104AC4201D300F032F838
:1001D00013F0010F18BFFB1A43F0010300F001F800
:1001E000DBE71847A8920300C8920300103A24BF27
:1001F00078C878C1FAD8520724BF30C830C144BF8C
:1002000004680C6070470000704700000023002461
:1002100000250026103A28BF78C1FBD8520728BF16
:1002200030C148BF0B6070471FB534F038FD1FBDAB
:1002300010B510BD00F085F91146FFF7F5FF2CF061
:10024000CBF800F0A3F903B4FFF7F2FF03BC00F012
:10025000ABF900000948804709480047FEE7FEE780
:10026000FEE7FEE7FEE7FEE7FEE7FEE7FEE7FEE766
:1002700004480549054A064B7047000069200008FC
:100280008901000840EC002040FE002040EE0020E4
:1002900040EE002053EA020C00F069802DE9F04B9B
:1002A0004FF00006002B1FBFB3FA83F503FA05F4E5
:1002B00024FA05F65E4012BF1643B2FA82F502FA3E
:1002C00005F4C5F120051EBF22FA05FC44EA0C0422
:1002D000203556EA044C4FEA144418BF641C4FF012
:1002E00000084FF00009904271EB030C39D300294C
:1002F00019BFB1FA81F701FA07F6B0FA80F700FAF0
:1003000007F6C7F120071EBF20FA07FC46EA0C06D5
:100310002037B6FBF4FCA7EB0507103F07F01F0BD7
:10032000CBF120062CFA06F60CFA0BFB44BFB346C1
:100330000026202FA4BF5E464FF0000B5BEA060CA0
:1003400008BF4FF0010B19EB0B0948EB0608ABFB9C
:10035000027C06FB02CC0BFB03CCC01B71EB0C0137
:10036000C1E70B46024641464846BDE8F08B13B54F
:10037000084318BF4FF0FF300146AFF30080BDE8DF
:100380001C40704740EA0103024630B59B0710D17C
:100390004FF0013400E008C208C91D1B9D4315EA57
:1003A000C41FF8D013F0FF0102F8011B0DD01B0A87
:1003B000F8E711F8013B002B02F8013B05D011F8DA
:1003C000013B002B02F8013BF3D130BD10B5431CBB
:1003D00002E010F8011B71B18107FAD14FF0013230
:1003E00002C88C1A8C4314EAC211F9D0C01A0A064A
:1003F00003D0C01E10BDC01A10BD0A0401D0801E5B
:1004000010BD0902FCD0401E10BD02F0FF0343EAFC
:10041000032242EA024200F00AB802F0FF0343EA74
:10042000032242EA024200F024B84FF000020429FD
:10043000C0F0128010F0030C00F01B80CCF1040C13
:10044000BCF1020F18BF00F8012BA8BF20F8022B47
:10045000A1EB0C0100F00DB85FEAC17C24BF00F8ED
:10046000012B00F8012B48BF00F8012B70474FF01B
:10047000000200B5134694469646203922BFA0E8F4
:100480000C50A0E80C50B1F12001BFF4F7AF090700
:1004900028BFA0E80C5048BF0CC05DF804EB8900F1
:1004A00028BF40F8042B08BF704748BF20F8022B34
:1004B00011F0804F18BF00F8012B704700000000BA
:1004C00030B44FF0013C50F8042B51F8043BCCFA07
:1004D00052F4D51A20D1FCB950F8042B51F8043B42
:1004E000CCFA52F4D51A17D1B4B950F8042B51F8FC
:1004F000043BCCFA52F4D51A0ED16CB950F8042B47
:1005000051F8043BCCFA52F4D51A05D1002CDAD0BC
:1005100030BC4FF00000704729BAB1FA81F111F0F8
:100520001801D1F120008440F2D1CA40CB4012F032
:10053000FF0213F0FF0330BCD01A704770477047BA
:100540007047754600F02CF8AE46050069465346E4
:1005500020F00700854618B020B5FFF789FEBDE8FA
:1005600020404FF000064FF000074FF000084FF01A
:10057000000BAC46ACE8C009ACE8C009ACE8C00967
:10058000ACE8C00921F007018D46704710B504465C
:10059000AFF300802046BDE81040FFF754BE0000D6
:1005A00000487047B000002001491820ABBEFEE7AC
:1005B0002600020070470000FEE7000070470000C0
:1005C00072B600BFFEE70000B3F5804F03461DD1B1
:1005D000B0B553F822C00020CCF6F0700CEA000E43
:1005E00091E83100D1F818C040EA0E0040EA04104A
:1005F000C96840EA052040EA0C0040EA0141BDE834
:10060000B040002043F82210704700BF6FF07041E7
:10061000002043F8221070472DE9F04F83B00B689B
:10062000024650F8230001F1240B20F0010042F8AB
:100630002300D1E902C0D1E900E301908869D1E942
:10064000049A0290C86BD1E9077600909BE83008C5
:10065000D1F8308052F82E008021CFF6F07108409A
:10066000BCF1080F08BF43F040030199194341EA68
:10067000090141EA0A01394331432143294341EA4F
:100680000B01029B41EA08011943009B19430843EF
:1006900040EA0C01002042F82E1003B0BDE8F08FB4
:1006A000F0B500EB82025068D1E902E400F0404C62
:1006B000D1E90030D1E9045643EA0C03002743EAAC
:1006C0000010CFF6F07740EA0E20896907EB055558
:1006D00040EA04402843FE36084340EA0661002011
:1006E0005160F0BDB0B5044600F0EEF8054640F2AA
:1006F0000000C2F200000078611C18BF044400BF73
:1007000000F0E2F8401BA042FAD3B0BD2DE9F04F53
:1007100082B000F13E4707F1FF77860546EA97274A
:1007200041F60046C4F20206082243F6004EB042EB
:1007300008BF0722C4F2010E072F38BF3A46002631
:1007400000274FF00008009209E000BF08F10108FF
:100750000237B8F1100F06F1040600F0A3800D680F
:10076000012202FA08F415EA0409EFD0D1F804B026
:1007700003220BF0030CACF10105BA40012D6FEA26
:10078000020A0FD88268CD6802EA0A02BD402A43F5
:1007900082604268A243CBF3001404FA08F42243B7
:1007A000426005E0BCF1030F02D14FF0030C1EE0E4
:1007B000C2688C6802EA0A02BC402243BCF1020F04
:1007C000C26014D16FF0030202EA58020244D2F868
:1007D00020C006F01C040F230D69A3402CEA03037C
:1007E000A5402B431362D1F804B00BF0030C026850
:1007F0000CFA07F302EA0A021A431BF4403F0260B4
:10080000A4D0002243F644030192C4F202031A6802
:100810004FF6084C42F480421A601A68CFF6FF7C0B
:1008200002F480420192019A28F00302724452F8C5
:100830000C3006F00C050F24AC40A343009C04FAD6
:1008400005F52B4342F80C30DEF808204B6842EAED
:10085000090543F60C4CDC0258BF22EA0905CEF824
:100860000850C4F2010CDCF800209C0242EA0905A1
:1008700058BF22EA0905CCF80050DEF804209C039A
:1008800042EA090558BF22EA0905CEF80450DEF80D
:100890000020DB0342EA090558BF22EA0905CEF829
:1008A000005053E702B0BDE8F08F0000426902EA51
:1008B0000103914341EA034181617047002A08BF67
:1008C00009048161704700004EF63840C2F2000012
:1008D0000068704740F200004EF63841C2F2000056
:1008E000C2F2000100780A681044086070470000F6
:1008F00080B543F60040C4F20200016841F4007183
:100900000160016841F480610160016841F4807117
:100910000160032000F086F80F2000F005F800F0D9
:1009200027F8002080BD000070B540F20006C2F23A
:10093000000640F260013278C2F200014FF47A738F
:100940000968B3FBF2F20446B1FBF2F1084600F08D
:10095000A9FB0F2C4FF0010508D838B94FF0FF3034
:1009600021460022002500F031F87460284670BD51
:1009700082B0002043F640010190C4F202014A68AF
:1009800042F480424A604A6802F480420192019A2D
:100990000090086840F080500860086800F08050BF
:1009A0000090009802B07047002848BF704700F0E0
:1009B0001F01012202FA01F11C2202EAD0004EF2CC
:1009C0000012CEF2000281507047000010B54EF6C2
:1009D0000C5CCEF2000CDCF80030C3F3022E8EF07B
:1009E0000704042C28BF0424BEF103034FF0FF3E8C
:1009F0000EFA04F438BF0023A14399400EFA03F322
:100A00009A43114300F00F0200F160430901043AD8
:100A100003F564436244002848BF02F10C031970D7
:100A200010BD00004EF60C51CEF200010A684FF6E0
:100A3000FF031A4060F30A2242F0806040F0FD702C
:100A400008607047002804BF012070472DE9F0417D
:100A500043F60808C4F202080446D8F8F8030D4625
:100A600000F00700884207D288F8F853D8F8F80356
:100A700000F00700A84277D12068810717D5410709
:100A800005D5D8F8001041F4E051C8F8001001076E
:100A900005D5D8F8001041F46041C8F80010D8F826
:100AA0000010A26821F0F0011143C8F80010C0073F
:100AB00040D1D8F8F80300F00700A84207D988F819
:100AC000F853D8F8F80300F00700A8424CD120688A
:100AD000410707D5D8F80010E26821F4E05111432E
:100AE000C8F80010000708D5D8F80000216920F4E4
:100AF000604040EAC100C8F8000000F055F8D8F89E
:100B0000001044F6D042C1F30311C0F60302515C59
:100B100040F2600220FA01F140F20400C2F200004B
:100B20000068C2F200021160FFF7FEFE0020BDE87F
:100B3000F08100BF6068811E022907D258F8081CA6
:100B400089015CBF0120BDE8F08111E0012807D1D7
:100B500058F8081C89035CBF0120BDE8F08107E05C
:100B600058F8081C890703D40120BDE8F08100BFB4
:100B7000D8F8001021F003010843C8F80000FFF77F
:100B8000A3FE064641F28837D8F80000616800F0FD
:100B90000C00B0EB810F8CD0FFF796FE801BB842A3
:100BA000F2D90320BDE8F08110B543F60404C4F285
:100BB0000204606800F00C0142F200400829C0F213
:100BC000F40007D0042918BF10BD41F20020C0F284
:100BD0007A0010BD216801F03F02216823684902B4
:100BE000C3F3881106D4A1FB00010023FFF752FBD9
:100BF00007E000BF41F20020C0F27A004843B0FB9A
:100C0000F2F021680222C1F3014102EB4101B0FB85
:100C1000F1F010BD002804BF012070472DE9F0411C
:100C200082B00446007843F60006C007C4F202060C
:100C30000CD0B06800F00C00042840F081803068CF
:100C4000800303D56068002800F06A81207880075F
:100C50001BD5B06810F00C0F09D0B06800F00C0084
:100C6000082840F087807068400200F18380306877
:100C7000800703D5E068012840F05281306821697F
:100C800020F0F80040EAC10030602078000713D45B
:100C9000207840072AD4A569002D00F03C81B06877
:100CA00000F00C00082840F0A180012D40F01081D8
:100CB000012002B0BDE8F0816069002840F2000028
:100CC000C4F2472000F07E800121C0F8801EFFF7AB
:100CD000FBFD0546706F8007DAD4FFF7F5FD401B7A
:100CE0000228F7D9032002B0BDE8F081306C5FEA3A
:100CF000C0080AD400200190306C40F0805030646D
:100D0000306C00F080500190019847F20007C4F267
:100D100000073868C00547D4386840F480703860F0
:100D2000FFF7D2FD054600BF3868C0053CD4FFF789
:100D3000CBFD401B0228F7D9032002B0BDE8F081AB
:100D4000B06800F00C00082803D1706840023FF53D
:100D500076AF6068B0F5803F07D0B0F5A02F40F0C7
:100D60009B80306840F480203060306840F48030F0
:100D700030609BE0E06800285CD00020C4F247208F
:100D800001210160FFF7A0FD054600BF3068800724
:100D90003FF574AFFFF798FD401B0228F6D90320FA
:100DA00002B0BDE8F08100BFA068012805D0052889
:100DB00054D1306F40F004003067306F40F00100D4
:100DC000306755E00021C0F8801EFFF77DFD054625
:100DD000706F80077FF55CAFFFF776FD401B022840
:100DE000F6D9032002B0BDE8F08100BF0027C4F2AD
:100DF000472700203866FFF767FD022D05460DD115
:100E00003068800140F19080FFF75EFD401B0228B2
:100E10004FF00300F4D902B0BDE8F08130688001E2
:100E200079D5FFF751FD401B02284FF00300F5D99B
:100E3000F1E700BF0020C4F2472000210160FFF766
:100E400043FD0546306880077FF51FAFFFF73CFD87
:100E5000401B02284FF00300F4D9DCE7316F002873
:100E600021F001013167316F21F0040131677DD03C
:100E7000FFF72AFD054641F2883700BF306F800733
:100E800000F18680FFF720FD401BB842F6D9032011
:100E900002B0BDE8F08100BF3168002821F4803144
:100EA0003160316821F4802131607BD0FFF70CFD87
:100EB000054600BF306880033FF5C8AEFFF704FD6C
:100EC000401B6428F6D9032002B0BDE8F08100BFC2
:100ED0007068E16900F480028A4221D1216A00F041
:100EE0003F028A421CD147F6C071626A0140B1EBF1
:100EF000821F15D1A16A4FF6FF73C903994300F40D
:100F00004032A1F580318A420AD1E16A00F0706076
:100F1000B0EB016F04D1002002B0BDE8F08100BF4A
:100F2000012002B0BDE8F08104F11C052FCD08437B
:100F300040EA8210D9034FF6FF729143A1F5803148
:100F400040EA05600843706001203866FFF7BCFC8A
:100F5000044600BF30688001DDD4FFF7B5FC001BFC
:100F600002284FF00300F5D955E700BFFFF7ACFCAE
:100F7000054641F2883700BF306F800708D5FFF77C
:100F8000A3FC401BB8424FF00300F5D943E700BF74
:100F9000B8F1000F3FF57FAE306C20F08050306428
:100FA00079E600BFFFF790FC054600BF306880037C
:100FB0007FF54CAEFFF788FC401B64284FF0030020
:100FC000F4D928E7002804BF0120704770B5044613
:100FD00090F8490015460E4628B9002084F84800CC
:100FE000204600F01DF8206804F10801FFF714FB0B
:100FF0002068A2683146FFF753FBD4E90102236B56
:101000002946FFF7E1FA2068A16850F8212042F054
:10101000010240F82120012084F84900002070BD21
:1010200040F24830C2F200000178002918BF704732
:101030002DE9F04385B0012101704FF0000943F61E
:101040003800CDF80090C4F20200016840F6004478
:1010500041F0010101600068C4F2020400F00100E7
:10106000009000984FF680706D4600904FF0020897
:1010700003270C2604F580602946CDE901890397F2
:101080000496FFF743FB4CF6B3708DE8010320464E
:101090002946CDE90376FFF739FB05B0BDE8F043FB
:1010A00070470000411E0020B0EB116F1CBF0120F3
:1010B00070474EF21002CEF2000251604EF62351FC
:1010C000CEF20001F0230B70072190601160704791
:1010D000704700007047000090F83C20012A4FF054
:1010E000020254D010B580F83D200268D2F804E026
:1010F000D2F808C00C682EF07003234341F2FF744D
:10110000C4F20004A24253600EDC40F2FF73C4F24A
:1011100000039A4216DCB2F1804F2BD040F200431C
:10112000C4F2000324E000BF40F2FF33C4F2010325
:101130009A4213DC41F60003C4F200039A4219D02C
:10114000002313E040F60003C4F200039A4211D0DA
:1011500040F60043C4F200030AE000BF44F200037B
:10116000C4F201039A4205D040F20043C4F20103E5
:101170009A4204D149682CF08003194391600121FF
:10118000002280F83D1080F83C20BDE81040104659
:1011900070470000002804BF0120704710B50446C6
:1011A00090F83D0028B9002084F83C00204600F06B
:1011B0001FF8022084F83D002068211D00F064FF24
:1011C000012084F8460084F83E0084F83F0084F84B
:1011D000400084F8410084F8420084F8430084F819
:1011E000440084F8450084F83D00002010BD000054
:1011F000006841F20001C4F20001884218BF704744
:1012000080B582B00020019043F64000C4F2020095
:101210000168002241F0100101600068002100F027
:101220001000019001983620FFF7D0FB362002B065
:10123000BDE88040FFF7B8BB90F83D1001291CBF06
:1012400001207047022180F83D10006841F2FF72D2
:10125000C168C4F20002904241F00101C1600DDC9E
:1012600040F2FF71C4F20001884215DCB0F1804FFA
:101270002AD040F20041C4F2000123E040F2FF31E5
:10128000C4F20101884213DC41F60001C4F20001FE
:10129000884219D0002113E040F60001C4F2000199
:1012A000884211D040F60041C4F200010AE000BFBC
:1012B00044F20001C4F20101884205D040F200412D
:1012C000C4F20101884206D1816801F007010629B4
:1012D00004BF00207047016841F001010160002057
:1012E000704700007047000070B504460068C5688C
:1012F0000669B10716D515F0020113D06FF002018F
:101300000161012121778069800703D02046FFF722
:10131000E9FF05E0204600F08FF8204600F08EF847
:1013200000202077700719D515F0040016D020682A
:101330006FF00401016102212177806910F4407F80
:1013400004D02046FFF7CEFF06E000BF204600F0A5
:1013500073F8204600F072F800202077300717D588
:1013600015F0080014D020686FF008010161042115
:101370002177C069800703D02046FFF7B3FF05E05F
:10138000204600F059F8204600F058F80020207759
:10139000F00619D515F0100016D020686FF0100176
:1013A000016108212177C06910F4407F04D02046F4
:1013B000FFF798FF06E000BF204600F03DF820460A
:1013C00000F03CF800202077F00718BF15F001006E
:1013D00002D1300609D412E020686FF001010161EA
:1013E000204600F02DF8300609D515F0800006D013
:1013F00020686FF0800101612046FFF769FE7006EA
:1014000009D515F0400006D020686FF04001016159
:10141000204600F035F8B00658BF70BD15F020002A
:1014200008D021686FF0200220460A61BDE87040B4
:10143000FFF750BE70BD000070470000704700000D
:10144000016841F20000C4F20000814218BF7047F9
:1014500040F24A31C2F200010A88013293B2B3F578
:101460007A7F0A8009D380B500220A8000F5FC301B
:101470000121FFF71BFABDE88040012029F0C4BD1F
:1014800070470000FEE7000070B581B040F2101E0A
:10149000C2F2000E9EF80B10BEF802C0BEF8042087
:1014A0008DF802109DF80210ACF101058DF80210C4
:1014B0009DF802300021C6F2020121F8023C00230F
:1014C000ADF80230BDF80240AEB2ADF80240BDF852
:1014D00002400C80ADF80230BDF80240ADF8024089
:1014E000BDF802400C80340AADF80240BDF802405D
:1014F000ADF80240BDF802400C80ECB2ADF80240FD
:10150000BDF80240ADF80240BDF802400C809EF8E4
:101510000C408DF802409DF802408DF802409DF885
:10152000024021F8024CADF80230BDF80240ADF89F
:101530000240BDF802400C80ADF80230BDF8023028
:10154000541EADF80230BDF80230A5B20B802B0A54
:10155000ADF80230BDF80230ADF80230BDF802300F
:101560000B80E3B2ADF80230BDF80230ADF80230C6
:10157000BDF802300B809EF80A308DF802309DF8DD
:10158000026002FB0CF38DF802609DF80220002B34
:1015900021F8022C4CD0042B03F0030228D323F0B3
:1015A000030300BFADF80200BDF80260043BADF8D4
:1015B0000260BDF802600E80ADF80200BDF8026066
:1015C000ADF80260BDF802600E80ADF80200BDF813
:1015D0000260ADF80260BDF802600E80ADF8020056
:1015E000BDF80260ADF80260BDF802600E80D9D18E
:1015F000F2B1ADF80200BDF80230012AADF80230B8
:10160000BDF802300B8013D0ADF80200BDF80230F7
:10161000022AADF80230BDF802300B8008D0ADF8D8
:101620000200BDF80220ADF80220BDF802200A80B9
:1016300040F25C01C2F20001088001B070BD000000
:10164000F0B581B0E0208DF802009DF80200002482
:101650008DF802009DF80200C6F202044FF0000E61
:1016600024F8020CADF802E0BDF802000921ADF843
:101670000200BDF802004FF0170C20800720ADF8E3
:101680000200BDF802000A26ADF80200BDF8020013
:101690000F2520801020ADF80200BDF802001523B0
:1016A000ADF80200BDF802002080ADF80210BDF8D0
:1016B0000200ADF80200BDF802002080ADF802C0C3
:1016C000BDF80200ADF80200BDF8020020800B203A
:1016D000ADF80200BDF80200ADF80200BDF802004E
:1016E00020804020ADF80200BDF80200ADF80200F5
:1016F000BDF8020020808A20ADF80200BDF802008B
:10170000ADF80200BDF8020020804B20ADF80200C9
:10171000BDF80200ADF80200BDF802002080ADF86F
:101720000260BDF80200ADF80200BDF802002080A2
:101730000D20ADF80200BDF80220ADF80220BDF882
:1017400002202280ADF80250BDF80220ADF8022040
:10175000BDF802202280ADF80230BDF80220ADF8BD
:101760000220BDF8022022801622ADF80220BDF82A
:101770000220ADF80220BDF802202280ADF8025010
:10178000BDF80220ADF80220BDF802202280E1223F
:101790008DF802209DF802208DF802209DF802208D
:1017A00024F8022CADF802E0BDF80220ADF80220CA
:1017B000BDF8022022801A22ADF80220BDF80220D6
:1017C000ADF80220BDF8022022801B22ADF80220D5
:1017D000BDF80220ADF80220BDF8022022800222CE
:1017E000ADF80220BDF80270ADF80270BDF80270CD
:1017F0002780ADF80200BDF80200ADF80200BDF888
:10180000020020800520ADF80200BDF80200ADF80E
:101810000200BDF8020020803020ADF80200BDF8C3
:101820000270ADF80270BDF8027027803527ADF860
:101830000270BDF80270ADF80270BDF8027027802A
:101840004327ADF80270BDF80270ADF80270BDF824
:1018500002702780ADF80220BDF80270ADF802706A
:10186000BDF802702780ADF80260BDF80260ADF8E7
:101870000260BDF802602680ADF80210BDF80210CB
:10188000ADF80210BDF8021021803221ADF802102F
:10189000BDF80210ADF80210BDF80210218036210B
:1018A000ADF80210BDF80260ADF80260BDF802604C
:1018B0002680ADF80250BDF80250ADF80250BDF8D8
:1018C00002502580B1258DF802509DF802508DF808
:1018D00002509DF8025024F8025CA025ADF8025099
:1018E000BDF80250ADF80250BDF802502580B42575
:1018F0008DF802509DF802508DF802509DF802506C
:1019000024F8025CADF80220BDF80250ADF8025098
:10191000BDF802502580C0258DF802509DF8025078
:101920008DF802509DF8025024F8025CADF802C018
:10193000BDF80270ADF80270BDF802702780ADF8F6
:101940000230BDF80230ADF80230BDF8023023801D
:10195000C1238DF802309DF802308DF802309DF8D9
:10196000023024F8023C4123ADF80230BDF80230C9
:10197000ADF80230BDF802302380C5238DF8023067
:101980009DF802308DF802309DF8023024F8023CB8
:10199000ADF802E0BDF80230ADF80230BDF802301B
:1019A0002380ADF80200BDF80200ADF80200BDF8DA
:1019B000020020808020ADF80200BDF80200ADF8E2
:1019C0000200BDF802002080B6208DF802009DF8CC
:1019D00002008DF802009DF8020024F8020CADF818
:1019E0000220BDF80200ADF80200BDF80200208020
:1019F0008DF802109DF802008DF802009DF802009B
:101A000024F8020C4820ADF80200BDF80200ADF841
:101A10000200BDF8020020803A208DF802009DF8F7
:101A200002008DF802009DF8020024F8020C5520F7
:101A3000ADF80200BDF80200ADF80200BDF80200EA
:101A40002080E9208DF802009DF802008DF8020048
:101A50009DF8020024F8020CADF802E0BDF8020087
:101A6000ADF80200BDF802002080F7208DF80200DA
:101A70009DF802008DF802009DF8020024F8020C87
:101A8000A920ADF80200BDF80200ADF80200BDF8D3
:101A9000020020805120ADF80200BDF80200ADF830
:101AA0000200BDF8020020802C20ADF80200BDF835
:101AB0000200ADF80200BDF8020020808220ADF8DF
:101AC0000200BDF80200ADF80200BDF8020020805F
:101AD00011208DF802009DF802008DF802009DF89B
:101AE000020024F8020C7820FEF7FCFD29208DF876
:101AF00002009DF802008DF802009DF8020024F813
:101B0000020C01B0F0BD0000B0B540F61804C4F2FC
:101B1000020404250A202560FEF7E4FD4FF480202E
:101B200020601420FEF7DEFD14202560FEF7DAFDAC
:101B3000FFF786FD40F2101040F2E012C2F2000002
:101B4000C0F24012C0F8022042F62C22012142814C
:101B50002B22017202730170012000F009F84FF688
:101B6000FF70FFF791FC4FF48050C4F80004B0BD43
:101B700040F2101CC2F2000C8CF8090007289ABF32
:101B800044A232F81020082281B036208DF80200DD
:101B90009DF802008DF802009DF802300020C6F288
:101BA000020020F8023CADF80220BDF80220ADF89A
:101BB0000220BDF8022002809CF80B208DF8022044
:101BC0009DF802208DF802209DF8022020F8022CBA
:101BD0000022ADF80220BDF80230ADF80230BDF8A9
:101BE00002300380ADF80220BDF80230ADF80230BB
:101BF000BDF802300380BCF80230013B190AADF891
:101C00000210BDF80210ADF80210BDF802100180FC
:101C1000D9B2ADF80210BDF80210ADF80210BDF84F
:101C2000021001809CF80C108DF802109DF8021033
:101C30008DF802109DF8021020F8021CADF8022069
:101C4000BDF80210ADF80210BDF802100180ADF829
:101C50000220BDF80210ADF80210BDF8021001809C
:101C6000BCF8041001390A0AADF80220BDF80220C0
:101C7000C9B2ADF80220BDF802200280ADF8021012
:101C8000BDF80210ADF80210BDF80210018001B0DD
:101C9000704700BFA800E80028006800880008001E
:101CA000C800480010B581B040F2101EC2F2000E0C
:101CB0009EF80BC002448DF802C09DF802C0013AA4
:101CC0008DF802C09DF8024040F2000CC6F2020CF2
:101CD0002CF8024C040AADF80240BDF80240C0B234
:101CE000ADF80240BDF80240ACF80040ADF802008B
:101CF000BDF8020094B2ADF80200BDF80200ACF8E5
:101D00000000200AADF80200BDF80200ADF80200A4
:101D1000BDF80200ACF80000D0B2ADF80200BDF88A
:101D20000200CA18ADF80200BDF80200ACF80000CD
:101D30009EF80C008DF802009DF802008DF802005C
:101D40009DF802002CF8020C080AADF80200BDF85C
:101D50000200ADF80200BDF80200ACF80000C8B205
:101D6000ADF80200BDF80200511EADF80200BDF84A
:101D700002008AB2ACF80000100AADF80200BDF80B
:101D80000200ADF80200BDF80200ACF80000C8B2D5
:101D9000ADF80200BDF80200ADF80200BDF8020087
:101DA000ACF8000001B010BD81B0ADF80200BDF884
:101DB00002000021ADF80200BDF80200C6F20201E7
:101DC000088001B07047000081B040F21010C2F2EC
:101DD0000000807A4FF6FE718DF803009DF8030035
:101DE000C6F201018DF803009DF80300088001B0E0
:101DF0007047000080B58EB040F2845040F204126B
:101E0000C2F200004FF02043CAF200020021C0E9F4
:101E100000324FF480434FF48052C0E90C313C2330
:101E2000C0E90A210F22CDE9093109234FF0100C36
:101E3000CDE907224FF0110ECDE900320822C0E9AA
:101E40000211C0E9041CC0E90611C0E90811816350
:101E50004164CDE90CE1CDE90221069107A96A466A
:101E6000CDF82CC0CDE904CEFFF7ACF8002818BFA0
:101E7000FEF7A6FB0EB080BD2DE9F04786B0002727
:101E800043F6300005970097C4F20200016840F65F
:101E9000000541F0040101600168C4F2020501F08F
:101EA00004010091009900970168012241F080012E
:101EB00001600168012601F08001009100990097FE
:101EC000016841F010010160016801F0100100910A
:101ED00000990097016841F008010160016801F074
:101EE0000801009100990097016841F0010101602B
:101EF0000068052100F00100009000982846FEF7D8
:101F0000DDFC05F5806420464FF4805100224FF43B
:101F10008059FEF7D3FC0DF1040828464146CDE96F
:101F20000166CDE90377FEF7F1FB042001A9C1C1E9
:101F30004FF0030A28464146CDF810A0FEF7E6FB15
:101F400020464146CDE90196CDE9037AFEF7DEFB56
:101F500006B0BDE8F087000080B582B040F2D450F2
:101F60000021C2F2000041F2000240F2E73CCDE95C
:101F70000011C4F200025323C0E9021C8021C0E911
:101F800000238161FFF706F9002818BFFEF718FB50
:101F900040F2D450C2F200006946FFF79DF80028D5
:101FA00018BFFEF70DFB02B080BD0000FEE7000089
:101FB000FEE700007047000070470000FEF78ABC93
:101FC000B0B592B0002443F64000CDE90A44CDE913
:101FD00008440594CDE90344CDE901440094C4F2DA
:101FE00002000168022541F080510160006800F0A4
:101FF00080500090009847F200000094C4F2000066
:10200000016841F4804101600068A82100F480402B
:1020100000900098012006904FF4803007904FF414
:1020200080000D9004200E90119006A80C95CDE92B
:102030000F15FEF7EFFD18B172B600BFFEE700BF47
:102040000F20CDE901054FF4A05004904FF48050CB
:10205000059001A805210394FEF7F4FC10B172B6B7
:10206000FEE700BF12B0B0BD4EF68850CEF20000C1
:10207000016841F4700101607047000040F2D450E3
:10208000C2F20000FFF730B910B540F6FF3E03681A
:10209000C4F2000E40F2004C7045C4F2010C27DC83
:1020A000B0F1804F31D040F20042C4F200029042C1
:1020B0002BD040F60002C4F20002904225D041F637
:1020C000FF72C4F20002904229DC70453CDCB0F1A2
:1020D000804F5FD040F20042C4F20002904259D0DB
:1020E00040F60002C4F20002904253D056E000BF16
:1020F00040F60042C4F20002904206D0604504D08F
:102100000022C4F201029042D9D14A6823F0700340
:10211000134341F6FF72C4F200029042D5DD43F64C
:10212000FF72C4F20102904222DC42F20002C4F2C9
:10213000000290422ED00022C4F20102904229D027
:10214000604527D02AE000BF40F60042C4F20002FA
:1021500090421FD041F60002C4F20002904219D012
:1021600041F60042C4F20002904213D016E000BFD4
:1021700044F20002C4F2010290420BD044F6000285
:10218000C4F20102904205D044F20042C4F20102BE
:10219000904203D1CA6823F44073134323F08002B2
:1021A0004B69D1F800E08C681A430260C46240F4C5
:1021B0008062C0F828E0624504BF0969016301211B
:1021C00041610169C90708BF10BD016921F0010122
:1021D000016110BDFEE70000B0B540F2F424C2F288
:1021E00000042046442101F085F844F62D50C0F645
:1021F00000001021002228F08BFF40F29825C2F247
:102200000005686001202870204601F041F8014671
:10221000686829B129F082F800202870B0BD00BF9D
:1022200029F06CF800202870B0BD00002DE9F043C3
:10223000B1F900E0B2F90470BE4511DCB1F904C097
:10224000B2F90060B4450BDBB1F90250B2F90640B7
:10225000A54205DCB1F90680B2F90230984503DAEF
:10226000FF2358B2BDE8F083B64509DBAB4207DC7B
:10227000BC4505DCA04503DC002358B2BDE8F08373
:102280005E1B36B2012EA8EB05090BDBA0F800E0BF
:102290004580A0F804C0C380D4884D88B1F806807A
:1022A000012300E00023A9EB04062E4436B2012EE0
:1022B00015DB0FFA88F627B2B74210DA0E888F883E
:1022C00005EB090800EBC30520F833606C80AF8094
:1022D000A5F806804D88D488B1F806800133B2F99C
:1022E00002602DB2AE42C8BF354626B20FFA88F45E
:1022F000A642B8BF3446661B36B2012E0E88ACEB40
:102300000E0C10DBB2F800E0AEEB06073FB2012F77
:1023100009DB00EBC30720F833607D80A7F804E0F9
:10232000FC800E8801339188ACEB0102324412B27A
:10233000012A09DB06EB0C0200EBC30720F833107F
:1023400001337D80BA80FC8058B2BDE8F083000084
:1023500070B50346B1F90000B2F90040B1F902C00E
:10236000B2F90250B1F904E0B2F90460A042B1F947
:102370000610B2F90620C8BF0446AC451C80C8BF91
:102380006546B6455D80B8BF764691429E80B8BF2F
:102390000A460020B4424FF00001D8BF0121954207
:1023A000D8BF01200840DA8070BD00002DE9F0435D
:1023B00081B00C46B0F90070B1F900108F423DDBDE
:1023C000B0F90260B4F902108E4237DBB0F9049024
:1023D000B4F90410894531DCB0F90680B4F906007F
:1023E00080452BDC15466AB3694620462A46ADF87F
:1023F0000070ADF8026000F097F8F8B16946204629
:102400002A46ADF80090ADF8026000F08DF8A8B152
:10241000694620462A46ADF80070ADF8028000F00B
:1024200083F858B1694620462A46ADF80090ADF8C9
:10243000028000F079F801B0BDE8F083002001B01F
:10244000BDE8F083012001B0BDE8F083B0F90020C1
:10245000B1F904309A4213DCB0F90420B1F900302C
:102460009A420DDBB0F90220B1F906309A4207DC3E
:10247000B0F90600B1F902108842A4BF01207047EC
:10248000002070472DE9F04381B00C46B0F904609C
:10249000B1F900108E4211DBB0F90670B4F90210E8
:1024A0008F420BDBB0F90080B4F90410884505DCDD
:1024B000B0F90290B4F90600814503DD012001B0B6
:1024C000BDE8F0831546EAB1694620462A46ADF8D4
:1024D0000080ADF8029000F027F898B969462046D0
:1024E0002A46ADF80060ADF8029000F01DF848B93A
:1024F000694620462A46ADF80080ADF8027000F02B
:1025000013F818B1002001B0BDE8F08369462046F9
:102510002A46ADF80060ADF8027000F005F880F0D2
:10252000010001B0BDE8F0832DE9F041B1F90030C0
:10253000B0F90040A3420DDBB0F904E0734509DCBB
:10254000B1F902C0B0F902108C4503DBB0F90650B6
:10255000AC4503DD0020BDE8F08100BF012A54DB5B
:10256000AEEB0400013086B200EBD63006B2681A3A
:10257000013087B200EBD73007B24FEA6608781017
:10258000B8EB670FB8BF70109042A8BF1046021991
:1025900017B24218BB4216B2D8BFB44516DD2A1A8C
:1025A000BB4212B22CDC94452ADB391809B2091B54
:1025B00001EBD1714F1004EB610602EB6101401A8F
:1025C0009B1B604407FB07F10FE000BF384400B2DB
:1025D000001B00EBD070421004EB600701EB6000C1
:1025E000DB1BACEB000002FB02F110FB00F013FB65
:1025F000030200208A4298BF0120BDE8F08100BF9D
:10260000AEEB000424B2A34202DA0120BDE8F0815F
:10261000944517DAB445F8DC201A02B2AEEB020298
:1026200002EBD27201EB620100EB6200ACEB010144
:102630005710181A11FB01F107FB07F210FB0011EC
:1026400014E000BF211A0CB2AEEB040707EBD777FA
:1026500002EB6702801A01EB670160447E10591A91
:1026600010FB00F006FB06F211FB01010020914275
:1026700098BF0120BDE8F08170B5B1F90030B2F922
:102680000040B1F902C0B2F90250B1F904E0B2F968
:102690000460A342B1F90610B2F90620B8BF1C4687
:1026A000AC450480B8BF6546B6454580C8BF764690
:1026B00086809142C8BF0A46C28070BD2DE9F04FA6
:1026C00091B0044628F088FC0021089103900CB1D9
:1026D000E06801E00EF080FA40F2AC190169C2F244
:1026E0000009C9F80800084624F0B2F8D9F8081023
:1026F000486918B124F0ACF8D9F80810C86924F07A
:10270000A7F8D9F80800006A24F0A2F8D9F8081050
:102710000869002800F0DE80B1F85001002857D089
:1027200000274FF001080DF1240A012005E000BF49
:10273000B1F85001013787424AD20028F8D0C819B1
:1027400090F830010028F3D1002504E0B1F85001E1
:1027500001358542ECD2BD42F8D0481990F83001DD
:102760000028F3D1303101EBC70001EBC501FFF7C1
:102770006DFED9F808100028E8D001F1300000EB18
:10278000C70100EBC5025046FFF776FF50460AF03E
:1027900035FBD9F80810044601EBC70030300AF0C9
:1027A0002DFBD9F80810064601EBC50030300AF0C1
:1027B00025FB3044D9F808108442C7D2099A0A9BF5
:1027C00001EBC70002634363481980F83081BDE71D
:1027D0000868027CD20700F0AB80C068406800281F
:1027E00000F0A68001F5AC7000F0F0FDD9F80810FB
:1027F000002840F09D800868C068036882689A429B
:1028000008BF43680846CDE906320EF0FFF9D9F853
:1028100008100590B1F850210020002ACDE90F00E2
:10282000CDE90D00CDE90B00CDE9090058D009AE86
:10283000A6F1080A4FF0000808E000BFD9F8081018
:1028400008F10108B1F85001804549D201EB0800B8
:1028500090F830010028F1D101F5AC7000F018FDBE
:102860000028EBD004460CE0D9F80800214600F51A
:10287000AC7000F0B5FD20461CF0A0FF002D2C46EA
:10288000DCD0D9F80800214600F5AC7000F024FD3A
:10289000D9F80810054601EBC80000F130023046B7
:1028A0002146FFF7C3FC411CE8D00128DCDB5FFABE
:1028B00080FB5746D9F80800214600F5AC7000F0BF
:1028C0003BFD57F8081FBBF1010B7A6801604260BD
:1028D000F0D1C9E70020A1F8500111B0BDE8F08F98
:1028E00001F5AC7000F0D4FC0DF1140898E860011B
:1028F000B0B10446D9F80800414600682A46C06BCA
:102900002346876BCDE900650294B847D9F80800E3
:10291000214600F5AC7000F0DFFC04460028E9D148
:10292000D9F8080000F5AC7000F082FCD9F8081066
:10293000B1F850810020B8F1000FC9F80C0000F088
:10294000B381B8F1010F1BDB01EB080090F82F21D8
:10295000D2B1B8F1020F13D390F82E21C2B1B8F161
:10296000030F0DD390F82D21B2B1B8F1040F07D3A6
:1029700090F82C01A8F104080028E2D10EE000BF75
:102980004FF000080AE000BFA8F1010806E000BF10
:10299000A8F1020802E000BFA8F103080868426B32
:1029A0001AB19047D9F808100868C068826922F007
:1029B000010282610868C068826922F002028261B5
:1029C000B1F8502191F82800002A40F0040281F863
:1029D000282000F065810025CDF8108015E000BFAB
:1029E000DDF81080069DD9F8080000EBC5003030F6
:1029F0000AF004FAD9E902121044C9F80C00B1F83F
:102A000050010135854280F0FF80481990F830016F
:102A10000028F4D1454505D10868C068826942F0B4
:102A2000010282610868C068826922F00202826144
:102A30000868C268C66B92683260007C01EBC50210
:102A4000800702F1300421D00846A2460EF0DEF8DD
:102A5000D9F80810441E08460EF02EF9013823B2AA
:102A600009AC07B220460021002200970AF000FAC4
:102A70007460D9F808000068D0E903018269890709
:102A800016D48169544662F3410113E0B4F800A002
:102A9000B4F804B0B4F80280B4F90670084606959C
:102AA0000EF00AF9874205940ADAE3880DE000BFC8
:102AB00042F0020181613046B4602AF0BDFF92E726
:102AC000D9F808000EF0F8F8431ED9F80810A7EB63
:102AD00008020968ABEB0A00CF680130FF6800B25A
:102AE0000132B7FBF0F0896915B2A842B8BF0546BC
:102AF00031B3984600202F460990ADF8280000BF5A
:102B00007C1ED9F80800ADF82A40006809A982693E
:102B10009047BDF82610BDF92A00411A013109B2CB
:102B20008D4207DA27B2002FEADC059F002509ACA9
:102B3000434607E039B243460129B4BF0025451C8E
:102B4000059F09ACB7F902000FFA83FA05EB000BF9
:102B5000ABF10101514580B222DD4FF000081FFAB0
:102B600088F19AB28A423FF43BAF3988ADF824101D
:102B7000B988ADF82A30ADF82810C6E90144D9F873
:102B80000810ADF826000868C06881683160816966
:102B900041F00201816130462AF04EFF20E700BF7C
:102BA00007950CE030462AF047FF0799584601FA8E
:102BB0008BFBABF1010151454B46A946CFDC3A886E
:102BC0000FFA81F8ADF82420BA88ADF82A10ADF8D4
:102BD0002820C6E90144D9F80820ADF8260010687D
:102BE000C245C0689AB281684D463160BCBFADF83D
:102BF0002A3098461FFA88F199468A42D2D18169D3
:102C000041F002018161CDE791F82820002802F00F
:102C1000FB0281F8282047D00868027CD2071FD029
:102C2000C0684068E0B130244FF4987509E000BFF7
:102C30000135B1F85001A5F59872824204F10804FB
:102C40000ED2485D0028F3D101F5AC7000F0A4FB72
:102C5000D9F808100A1952680B5942600360E7E777
:102C600001F130004FF480711DF096FAD9F8080098
:102C7000202100F598701DF08FFAD9F80800002186
:102C8000A0F85011039828F08FF90890D9F808009F
:102C90000068436A43B10899D9F80C20984703E0CB
:102CA00000F0FB0081F828001CF0A6FB00F06AF998
:102CB00000F024F9D9F82440ECBB0DF08DFF0DF0A5
:102CC000BDFF1AF0EDFC7F210022044623F096FCA4
:102CD00020460021002223F085FC20464FF6FF719C
:102CE000002223F0C7FC20460321002223F0B6FC7B
:102CF00020460321002223F09FFC204603210022CE
:102D000023F0A0FC20460321002223F0A1FC204652
:102D10000321002223F0A8FC49F21901C0F60301A7
:102D200020461BF00DFF20460621002200231EF046
:102D300055FCC9F82440D9F8100028F035F980086E
:102D40004A283DD8D9F80C0041F2893188420BD38A
:102D50000898D9E905120844511CC9E90501D9F8B8
:102D600004402CB963E000BFD9F80440002C5ED0C9
:102D7000D9F8000028F018F9B0F5967F40F2988055
:102D800028F02AF9C9F8000009A81CF041FD0998AB
:102D90000B999DF83C70401A40F2FE31820A0840BF
:102DA00040F2832148439DF83D60030C4AA1204630
:102DB000CDE900761BF006FF11B0BDE8F08F00BF33
:102DC00028F00AF9D9F80810C9F810004868002856
:102DD00072D000684FF47A71B1FBF0F5D9F8181091
:102DE000284649B1D9F814004FF47A72012898BFE7
:102DF00001205143B1FBF0F00021C9E90511D9E9E7
:102E00000712A84238BF05465019C9F82000481CCF
:102E1000C9F81C0028F0A2F9C0F164032AA12046D9
:102E20002A461BF0CFFED9F80440002CA0D10DF0AB
:102E3000D3FE0DF003FF1AF033FC7F21002204467D
:102E400023F0DCFB20460021002223F0CBFB2046B0
:102E50004FF6FF71002223F00DFC204603210022D3
:102E600023F0FCFB20460321002223F0E5FB204653
:102E70000321002223F0E6FB20460321002223F059
:102E8000E7FB49F21901C0F6030120461BF058FE8A
:102E900020460421002200231EF0A0FBC9F80440B4
:102EA000D9F8000028F080F8B0F5967F3FF668AFBB
:102EB00011B0BDE8F08F00BF3E25D9F818102846A4
:102EC00000298FD198E700BF2575204650530A2569
:102ED000752525204350550025752E2575206B42FC
:102EE000207573656420282564202525290A25641A
:102EF000252520667261672E0000000010B540F2A3
:102F00004C34C2F200042068002818BF1CF056FCA4
:102F100020461C211DF040F9E069002818BF1CF074
:102F20004DFC04F11C001C211DF036F9A06B00289B
:102F300018BF1CF043FC04F138001C211DF02CF9D3
:102F4000606D002818BF1CF039FC04F154001C21EE
:102F5000BDE810401DF020B940F28051C2F20001DE
:102F6000096804E00A7E42F001020A7649690029F4
:102F700008BF70474A688242F4D00A688242F5D19D
:102F8000F0E700007047000040F2E820C2F20000C5
:102F9000042100F0AFB9000040F20030C2F200009E
:102FA000202100F0A7B900002DE9F04F85B00E9E5A
:102FB0001D46002B834608BFB6F5807F68D0DDF83C
:102FC0003C800023019301A8ADF80810CDF80A3029
:102FD000ADF80E20ADF81010ADF81220294632469B
:102FE0004346071D00F1080900F10C0A23F086FC96
:102FF000384629463246434623F080FC4846294657
:103000003246434623F07AFC504629463246434630
:1030100023F074FCBDF90410BDF90870BDF90C6013
:10302000BDF91040B9423846BDF906C0BDF90A30B5
:10303000B8BF0846A6422546B8BF3546A842B8BF25
:103040000546B942C8BF0F46A642C8BF3446A7428C
:10305000C8BF3C46A11CBDF90E60BDF912409C459D
:103060001A46A5F10200B8BF6246A6422546B8BF7F
:103070003546AA42B8BF15469C45C8BF6346A6421E
:10308000C8BF3446AF1EA342C8BF1C46A21C03E003
:103090000139013A00200027ABF80000ABF80270BC
:1030A000ABF80410ABF8062005B0BDE8F08F0000C7
:1030B000F0B581B016460C46074627F08DFFA2B248
:1030C00040F23C44C2F200040546204639463346ED
:1030D00019F036FA30B1E0690021A16270B12046E2
:1030E00001B0F0BD20462C211DF056F84FF00040F5
:1030F000A0620024204601B0F0BD00BF284627F0A2
:1031000053FF012898BF0120E061204601B0F0BDC7
:1031100010B540F20C34C2F200042046142100F035
:10312000E9F8204600F0EEF8B0B1142104461DF095
:1031300033F84BF6A510C0F601004BF695214BF67F
:1031400051624BF66D13C0F60101C0F60102C0F6E4
:1031500001030FC410BD00BFFEE70000F0B585B04D
:1031600004460D4620B90DF037FD044600285DD019
:1031700020460DF0B9FD002858D094F828004007EB
:1031800054D40020C5B3029020460DF03FFD013815
:10319000ADF80C0020460DF08FFD0138ADF80E00A3
:1031A000684602AA2946FFF7D3F800283ED02068D7
:1031B000017C890724D482690AB169469047B4F832
:1031C000500128B304F1300500276E4630462946E9
:1031D0000022FFF7EBF848BBB4F8500101378742F3
:1031E00005F10805F2D31F2813D9DDE90201616357
:1031F0000121206314E000BFA4F8500105B0F0BD28
:10320000DDE90201C4E90C016068012109E000BFA9
:103210000020009A019B04EBC0010A634B63411C30
:103220006068A4F8501108B128F078F805B0F0BD36
:10323000F0B581B010B345680446FDB1002707E042
:10324000002BA36014BF9F5067601CF0B7FAADB1AC
:10325000D4E9001328460A1DAD5883420AD0A66857
:1032600043588642ECD0002B18BF9D5055B16B508F
:10327000EBE700BF65601DB16F50E6E701B0F0BD40
:103280000021A16001B0BDE8F0401CF097BA000039
:10329000002814BF4068002070470000D0B1426889
:1032A000C2B10068011D03205258002A04BF023831
:1032B00070475258002A04BF013870475258002AFC
:1032C00008BF704752580430002A04BF03387047C3
:1032D000EAE700BF00207047006808444068704774
:1032E0000068085870470000002814BF806800205C
:1032F000704700000331002221F00301C0E90012F1
:103300008260704710B50446006808301CF056F81B
:10331000002808BF10BD216800224250626843188F
:103320005A606268002A18BF5050A1686060002986
:1033300008BFA06010BD000070B5044600284FF023
:10334000000012D00D4681B1D4E9000608301CF00F
:1033500035F8AE420AD0E8B121686A580B1D002A40
:1033600018BFD05042506850C55070BD4FF0000299
:1033700080B121684250626843185A606268002A2E
:1033800018BF5050A1686060002918BF70BDA060D0
:1033900070BD00BF002070BD10B504460068083045
:1033A0001CF00CF8002808BF10BD22680023111D76
:1033B0004350A3688350A268002A18BF5050616828
:1033C000A060002908BF606010BD000030B14168F6
:1033D00009B9806810B10020704700BF0120704714
:1033E00080B5002808BF80BD42688A4214D0D0F85A
:1033F00000E0826851F80E308A4219D00EF1040CB8
:1034000051F80C00002B18BF43F80C00002818BF1F
:1034100040F80E3080BD00BF0268114449680029A1
:10342000416007BF002181600020885080BD00BF3F
:103430000021002B836018BF0EEB0300416080BDAC
:1034400010B50446006804E00068002808BF10BDFD
:1034500020608268002AF7D0214690472068F3E771
:103460008068002814BFC08A002000B270470000A6
:10347000806800280EBF0020807E80097047000011
:10348000F0B581B01446C8B1622206460F4620F05E
:10349000DBFA98B10546006880B1304639466322B0
:1034A00020F0D2FA010609D02B68A1B2C2B2284698
:1034B0009847C0EA040001B0F0BD00BF2046C0EA52
:1034C000040001B0F0BD00002DE9F04F91B00446BA
:1034D000408CDDF868B040F0080060842284164615
:1034E000BBF8082020461F468A4620F0ADFA278404
:1034F000BBF8082005462046514620F0A5FA618C0D
:10350000814621F008004D45608403D102D111B0FD
:10351000BDE8F08F2684BBF808202046514620F0F5
:1035200093FA804620465146278407F057F80068F2
:10353000BBF80810424625F09DFBBBF808000B289D
:1035400027D147F6FF75A94518BFA84521D12046C8
:1035500020F02CFC81B200EBD13000B246102046A6
:103560001FF01CFC81B200EBD13000B24010A84526
:1035700006F1010100F1010003D180468142B8BF8C
:10358000884647F6FF72914503D18142B8BF08468D
:10359000814640F21830C2F20000FFF7B3FEC8B314
:1035A000C0E9038904600646BBF808006C46B08099
:1035B0002046C6F808A008F0C9FD44F26D50C0F6D8
:1035C0000300019044F2A970C0F60300029044F297
:1035D000E960C0F6030003900020CDE90800FF2059
:1035E0000A90BBF80000BBF802100B9048420C9008
:1035F000DBE903019DF84220079002F0FE008DF800
:10360000420020460096069108F020FE11B0BDE869
:10361000F08F00BFFEE7000040F21830C2F2000059
:103620001421FFF767BE00002DE9F04F81B004467A
:10363000408C10F47C7F00F02B816FEA01086FEA68
:10364000020900276D464FF0020B4FF0000A08E018
:103650000227608C0AF1010AC0F305118A4580F047
:103660001281E16801EBCA0252689301F2D492B26E
:1036700012EA080302EA0902B2FA82F24FEA52128F
:1036800018BF01235340E5D151F83A60102130466C
:103690002A4625F05DF8002840F0F48030461121DC
:1036A0002A4625F055F8002840F0EC8030461221DB
:1036B0002A4625F04DF8002840F0E48030461321DA
:1036C0002A4625F045F8002840F0DC8030461521D8
:1036D0002A4625F03DF8002840F0D48030461421D9
:1036E0002A4625F035F8002840F0CC8030460A21E3
:1036F0002A4625F02DF8002840F0C48030466B2182
:103700002A4625F025F8002840F0BC8030466C2180
:103710002A4625F01DF8002840F0B48030460121EB
:103720002A4625F015F8002840F0AC8030460421E8
:103730002A4625F00DF8002840F0A48030460221EA
:103740002A4625F005F8002840F09C8030460321E9
:103750002A4624F0FDFF002840F0948030460521E1
:103760002A4624F0F5FF002840F08C8030460621E0
:103770002A4624F0EDFF002840F0848030463221B4
:103780002A4624F0E5FF00287CD130466E212A46E7
:1037900024F0DEFF002875D130466D212A4624F042
:1037A000D7FF00286ED1304669212A4624F0D0FF89
:1037B00000287FF44DAF30466A212A4624F0C8FF26
:1037C00000287FF445AF30466E212A4624F0C0FF22
:1037D00000287FF43DAF30466D212A4624F0B8FF23
:1037E00000287FF435AF304637212A4624F0B0FF59
:1037F00000287FF42DAF304638212A4624F0A8FF58
:1038000000287FF425AF304635212A4624F0A0FF5A
:1038100000287FF41DAF304640212A4624F098FF4F
:1038200000287FF415AF304645212A4624F090FF4A
:1038300000287FF40DAF304641212A4624F088FF4E
:1038400000287FF405AF304642212A4624F080FF4D
:1038500000287FF4FDAE304643212A4624F078FF4D
:1038600000287FF4F5AE304649212A4624F070FF47
:10387000FFB2012F4FF0010198BF0F46002818BF7B
:103880005F46E6E60327F8B201B0BDE8F08F00BF5F
:103890000027F8B201B0BDE8F08F000040F2AC1094
:1038A000C2F200008068704740F2AC10C2F2000023
:1038B0000021C0E90411C0E90611C0E90811C0E9FE
:1038C00000117047C0F30410072828BF0720704775
:1038D0004FF6FF71884204BF1F20704710B90020C7
:1038E000704700BF702805D844F6F651C0F60301B2
:1038F000085C704740F2C021C2F20001096800294B
:10390000EDD040F26842C2F200027138126880B213
:10391000824284BF085C7047E1E7000080B540F256
:10392000C420C2F200001821FFF7E4FC40F230305E
:10393000C2F200000121417080BD0000002808BFD4
:1039400070472DE9F041164604460D46FCF73EFD52
:1039500040F26408C2F20008D8F80020074620466A
:1039600029469047D8F80020054620443146904724
:10397000391A8D4202D9BDE8F0417047204400BF9A
:10398000425D6B1C8B426255F5D843195F78AE1CC3
:1039900062198E425770EED89F78EE1C8E42977057
:1039A000E9D8DB7804358D42D370E9D9E3E700002C
:1039B0002DE9F04140F25408C2F200081446D8F84C
:1039C00004200F4619461D4606469047386048B108
:1039D0002868D8F804203044002190472060BDE8D2
:1039E000F08100BF00202060BDE8F0812DE9F04F9C
:1039F0008DB0169C8246002C1E4691460D461CBF7B
:103A000000202080BAF1000F36D0002D4FF00000CA
:103A100000F05E829AF80010002900F05982179891
:103A200010F0060F2CD00020012242F2014301E0E9
:103A3000397904300D2904D802FA01F71F4240F009
:103A400016810AEB000779780D2904D802FA01F6ED
:103A50001E4240F00981B9780D2904D802FA01F616
:103A60001E4240F00381F9780D29E1D802FA01F6EF
:103A70001E42DDD00330FAE000200DB0BDE8F08F2B
:103A80000021012E0A91C0F21182C007CDE9085928
:103A900040F0FA8051464FF0000B0027CDF804A00B
:103AA00040F25400C2F20000426800200C900791DE
:103AB00008460CA9904704461AF807000C990028FC
:103AC0000B9100F07F8019FA86F005900798069711
:103AD000CDE903B600224FF0FF3500274FF0000B71
:103AE0004FF000090FE000BF6A1C324608BF0A46CB
:103AF000DDE90B1907980C9110F80910013700291E
:103B0000444600F0628040F25401C2F200011646C1
:103B10004A680BA9AA469047804608982146424623
:103B200017F054F801B2834409980029C8BF8344B0
:103B300005980FFA8BF188424D46A8BF4FF0FF352C
:103B40001AF1010218BF55460A2C00F033800D2CE3
:103B500000F03080A4F59C4245F2A6139A42C0F0D2
:103B60002980A4F120023F2ABED8DFE802F02321F9
:103B7000212121212121212121212323232121212F
:103B80002121212121212121232321212121212121
:103B90002121212121212121212121212121212115
:103BA000212121212121212121212121212300BF86
:103BB0009AE700BFB9F1000F06D16A1C10D10025A9
:103BC0000A4611E0002224E03246691C0BD0069F11
:103BD000DDF804A0DDF82490DDE903B6D7B17BE180
:103BE0003246691CF3D14D46DDF804A0DDF824907F
:103BF000049E5FB10D2C2FD1DDF80CB0069FB8F1FB
:103C00000A0F08BF0C9D934445B947E1DDF80CB09D
:103C1000069F0C9D002D934400F040819AF80010FF
:103C20002F440A290A9700F039810D2900F03681C6
:103C30001AF807000A2800F02F810D2800F02C81C7
:103C4000002800F02B81B01A06B2002E0AEB070103
:103C50003FF726AF22E100BFDDF80CB0069F002D34
:103C60009344DBD11AE100BF013000E002300029AB
:103C700018BF0130002C00F02B814FF6FF7121801E
:103C80000DB0BDE8F08F00BF54464FF0000B00258B
:103C9000002700BF40F25400C2F20000426800203A
:103CA0000C9020460CA9904780461AF807000C9902
:103CB000002806970B9100F0A18019FA86F0029077
:103CC0000020CDE903B607904FF0FF304FF0000B16
:103CD0004FF000090027464605900AE00125DDE97E
:103CE0000B070BF1010B0C90E05D4646002800F03D
:103CF000798040F25400C2F20000426820460BA9CD
:103D00009047232E804605D1002DE7D0022D09D102
:103D10000025E4E7012D09D1202E0CBF0225012545
:103D2000DDE700BF2326012D08BF00250898314696
:103D3000424616F04BFF01B2814409980029C8BFE2
:103D4000814402980FFA89F188423846A8BF4FF0A3
:103D5000FF30059B5A1C18BF18460A2E00F06480DD
:103D60000D2E00F06180A6F59C4245F2A6139A4202
:103D7000C0F05A80A6F120023F2A00F22380DFE83B
:103D800002F05321212121212121212121215353DD
:103D9000532121212121212121212121535321217D
:103DA0002121212121212121212121212121212103
:103DB00021212121212121212121212121212121F3
:103DC000215300BF0C9F421CE25D079B08BF0B46BE
:103DD0000B99002A0BF1010B07930C917FF47BAF39
:103DE000464649E0DDF82490079A059B4646581C54
:103DF00008D0069FDDE903B62FB36DE0069F0022D1
:103E000020E000BF3B46BBF1000F18D00D2E049EF2
:103E100038D1DDF80CB0069FB8F10A0F08BF0C9B33
:103E2000934493B93AE000BF37BB421CDDF82490BD
:103E3000079A2FD100230A46BBF1000FE6D1DDE936
:103E400003B6069F0C9B934443B39AF800001F44AB
:103E50000A280A9722D00D2820D01AF807000A282D
:103E60001AD00D2818D0C8B1B01A06B2012E0AEB2C
:103E70000704BFF60FAF11E0DDF82490079A034660
:103E8000B5E700BFDDF80CB0069F002B9344DCD1F2
:103E900004E000BF0346AAE701370A97169C089D75
:103EA00027B1002C18BFA4F800B010E040F2540075
:103EB000C2F2000042680AA9504690473CB1014650
:103EC0002846002216F082FE8346A4F800B00A9825
:103ED0000DB0BDE8F08F00BF169CE2E7002808BFD8
:103EE00070472DE9F04F83B01446002A00F08A8015
:103EF000824620460D46FCF769FA002800F08280D1
:103F0000064650460194FCF761FA074640F2640009
:103F1000C2F20000026850462946BC19904700EBE7
:103F2000060C6445029613D2029E0AEB000716F0B7
:103F3000030341D0019D39462A4612F8010B012B9B
:103F400001F8010B3ED1701E0F46042E4BD259E0F2
:103F5000029EAAF10102A6F1030E9519A6F102092B
:103F6000D11907EB060891F801B0A8F10104EB198B
:103F7000644583F801B0D7D312F8078007EB090432
:103F8000644505F80780CFD311F8018C07EB0E04C8
:103F9000644503F8018CC7D311F8021C043E03F8F2
:103FA000021CB919043AAEF1040E043D6145A9F1B1
:103FB0000409D5D2B8E700BF019A3046042E12D2C8
:103FC00020E000BF6878022B787005D10237AA1C68
:103FD000B01E042E07D215E0A878EA1CB87003378B
:103FE000F01E042E0ED3043A391F00BF12F8043F0E
:103FF000043801F8043F53784B7093788B70D37872
:10400000CB70F3D103B0BDE8F04F7047037823299C
:104010000CD1032B24BF00207047D9004FF0010CB6
:104020002CFA01F22CEA030109E000BF012B1CBFAE
:104030000020704720294FF0010101D102220270B7
:10404000084670472DE9F04182B004460B46CDE9A1
:1040500000110020002122464FF0000828F024F92A
:10406000451C074628461BF0A9F958B100F80780FF
:10407000019B29462246064628F016F9304602B032
:10408000BDE8F081FEE700002DE9F047E2B1DDF880
:1040900020909A4614460F46804606E064F00100E0
:1040A0003044441C05EB0A0774B1660806FB0A7528
:1040B00040462946C8470128F0DAB0F1FF3F3446B0
:1040C000F2DD2846BDE8F08700252846BDE8F087E8
:1040D0002DE9F04F83B0129C1E468146DDE910C0E9
:1040E0000E9FDDE90C3B8A46A507CDE9002505D4E6
:1040F000E0B10146E0071DD1884623E090460290DA
:10410000E00644D50F98610507D4BBF1000F04D039
:10411000E34553D002998B4550D010285AD1A006C0
:1041200060D4BBF1200F5DD2782061E04FF0000831
:1041300008E000BF14F00C0018BF01203843884687
:10414000A1EB0008BCF1200F4FF0200538BF6546F9
:104150005D454FF020070AD903EB0B00A5EB0B01DF
:104160003022E346FCF751F90C9BDC46AB46019D3F
:10417000B8F1200FCDF8088038BF4746E00718BFD8
:104180005F4509D80E9FDDF80080E006BAD4BBF188
:104190001F0F3CD949E000BF03EB0B00A7EB0B015D
:1041A0003022E046FCF731F90C9BC446BB460E9F1B
:1041B000DDF80080E006EAD5A4E700BFBBF101010D
:1041C0000A4618BFABF10202102818BF0A469346F0
:1041D0001028A4D002280FD1BBF11F0F0CD86220E9
:1041E00006E000BF002807D5BBF1200F04D25820FD
:1041F00003F80B000BF1010BBBF11F0F15D830209A
:1042000003F80B000BF1010BBBF11F0F0DD80FB121
:104210002D2006E0600703D4200706D5202000E00B
:104220002B2003F80B000BF1010B029844466DB9EB
:10423000584544460AD9A0EB0B0742462020514678
:104240003346541CC847013F2246F7D1BBF1000F4B
:1042500014D00C98A0F1010818F80B005146224622
:104260003346ABF10105671CC847002D3C46AB4601
:10427000F2D10198002805D41AE000BF2746019822
:10428000002815D50099DDF80880781A40450FD22E
:104290004D4200BF202051463A4633467C1CC84759
:1042A000281940452746F5D3204603B0BDE8F08FD6
:1042B0003C46204603B0BDE8F08F00009A4238BF6C
:1042C00088547047704700002DE9F04F99B00E46B2
:1042D000229944F2C5271C469246C0F600070025E5
:1042E0001091002E18BF074604F1020B2078A94652
:1042F000002800F00D8500BF25280FD031464A4622
:10430000534609F10105B84701340BF1010B207840
:10431000A9460028F0D100F0FBBC00BF109C4FF074
:104320000008CDE90D761BF8010CA0F12002102A3F
:1043300000F27C800121DFE802F00979790B7979BC
:1043400079797979790D790F79791100082105E06A
:10435000102103E0042101E0022100BF9BF80000CE
:1043600048EA0108A0F12002102A00F2AB800121E6
:10437000DFE802F00AA8A80CA8A8A8A8A8A8A80E78
:10438000A810A8A8120000BF082105E0102103E032
:10439000042101E0022100BF9BF8010048EA010866
:1043A000A0F12002102A00F2CB800121DFE812F0F8
:1043B0001200C800C8001400C800C800C800C80027
:1043C000C800C800C8001600C8001800C800C8000F
:1043D0001A0000BF082105E0102103E0042101E0DC
:1043E000022100BF9BF8020048EA0108A0F1200268
:1043F000102A00F2AF800121DFE802F012ACAC1409
:10440000ACACACACACACAC16AC10ACAC0A0000BF05
:1044100048EA01080BF1040B85E700BF0221F7E72A
:104420000821F5E71021F3E70421F1E7ABF10201E0
:10443000ABF1010BA0F13002D2B2092A49D80BF13D
:10444000020B002505EB8501490051FA80F11BF8AC
:10445000010CA1F13005A0F13002D2B2092A00F21C
:10446000178105EB850100EB41019BF80000A1F1EC
:104470003005A0F13002D2B2092A00F20B8105EB1F
:10448000850100EB41019BF80100A1F13005A0F18D
:104490003002D2B2092A00F25B8105EB850100EB04
:1044A00041019BF80200A1F13005A0F13001C9B231
:1044B0000A290BF1040BC5D3ABF1020B2E2800F037
:1044C000EC801FE0ABF10101A0F13002D2B2092A69
:1044D000B5D92A2812D154F8040B02220546002827
:1044E00048BF454202EA907211F8020F48EA0208FA
:1044F0008B462E2800F0D18004E000BF00252E2836
:1045000000F0CB804FF0000EA0F16801C20742EA34
:104510005103092B3DD801214FF48072DFE803F0ED
:1045200006262A3939393439393400BF594611F849
:10453000010F682840F012810221C02224E000BF50
:1045400059460BF1010BA0F13002D2B2092AC0D8B2
:1045500075E700BF0BF101010BF1020BA0F1300276
:10456000D2B2092A7FF66BAFB3E700BF4FF40072F7
:104570000AE000BF594611F8010F6C2840F0F280A4
:1045800002214FF4407200BF1BF8010048EA020804
:104590008B44A0F12503532B00F2EE8008216F22FB
:1045A0001027DFE813F0E300E900E900E900E90083
:1045B000E900E900E900E900E900E900E900E900B3
:1045C000E900E900E900E900E900E900E900E900A3
:1045D000E900E900E900E900E900E900E900E90093
:1045E000E900E900E900E900E900E900E900E90083
:1045F000E900E900E900E900E900E9005900E90003
:10460000E900E900E900E900E900E9006500E900E6
:10461000E900E900E900E900E900E900E900E90052
:10462000F500B9015500E900E900E900E90055008D
:10463000E900E900E900E900E900F7005900E900B4
:10464000E900C301E9005500E900E900650000BF89
:1046500028F010080A270BE05B4613F8011F48F406
:10466000887856294FF0100102D156229B4691E0DE
:1046700040F00801582908BF48F02008642800F0DD
:104680008D8069280246394600F0888082E000BFAC
:10469000ABF1010B2E287FF435AF594611F8010F0D
:1046A00048F48068A0F13002D2B2092A42D80BF156
:1046B000020B4FF0000E00BF0EEB8E01490051FAC5
:1046C00080F19BF80000A1F1300EA0F13002D2B2CF
:1046D000092A3FF619AF0EEB8E0100EB41019BF862
:1046E0000100A1F1300EA0F13002D2B2092A00F28D
:1046F00053810EEB8E0100EB41019BF80200A1F10A
:10470000300EA0F13002D2B2092A00F249810EEB3C
:104710008E0100EB41019BF80300A1F1300EA0F1E6
:104720003001C9B20A290BF1040BC5D3ABF1010B5F
:10473000EAE600BF2A2807D154F8041B1BF8020F31
:1047400021EAE17EE0E600BF4FF0000E8B46DBE69B
:104750000BF1010B2E28A0D0D4E600BF48F0800852
:104760008B4616E748F480788B4612E7109409F1DF
:104770000105252003E000BF09F1010510940E9EFC
:104780000D9F31464A465346B8470BF10104ABE54D
:104790000221622228F00C0810460F465FEA4851B9
:1047A00048BF28F00108562818D0692801D064288D
:1047B0002AD15FEA8850CDF830E037D45FEAC8509C
:1047C0004AD45FEA486000F1EF80D4F800C05FEAA5
:1047D000086048BF0FFA8CFCE8E000BF54F8040BF7
:1047E0000E9E41680D9F0D6806EB09011195036847
:1047F000AAEB0902384610940095FFF765FD00EB1F
:1048000009050BF101046FE55FEA885036D45FEAD1
:10481000C85000F1D9805FEA486000F18B812068C0
:104820005FEA086148BF80B285E100BFE01D20F06B
:1048300007000246436852F8080B50EA030108BF1C
:1048400028F0100810920B95CDE9093A81BB18F4B5
:1048500080612DD0002259E054F804CBBCF1000F48
:1048600008BF28F01008BCF1000F109440F0BC8085
:1048700018F4806000F0B880002236E1E01D20F0DE
:104880000700446850F8086B109056EA040008BF0F
:1048900028F010080028CDE90AA5CDF830E040F056
:1048A000C78018F4806000F0C3800022E6E000BFFB
:1048B00080EAE370B0EBE37408F0200083EAE37170
:1048C00080F0610061EBE376F63000220F9000BFCC
:1048D0009246204631463A460023FBF7DBFC00FBBC
:1048E000174211AD02F0FE030A2B0F9B38BF302395
:1048F00013440AF10102BAF11E0F05F80A3005D877
:10490000E31B76F1000304460E46E1D2099811A993
:10491000C00FCDE90012B5E05FEA88760B9540F153
:10492000EF800D9F4FF0010867E100BFCDF828A090
:1049300054F804AB9AF8000051460028109400F097
:1049400081817646BEF1000F08BF4FF0FF362F463B
:10495000A6F1030CB21E731E043E00250AEB0504EB
:104960006178002918BFAB4200F0E280A1780029ED
:1049700018BFAA4200F06281E178002918BFAC4557
:1049800000F05E8121792C1D11B1AE422546E5D1A2
:104990000AEB040155E100BF0BF1010BB4E500BFC8
:1049A0000BF1020BB0E500BF94F800C0BCF1000FA2
:1049B00008BF28F01008BCF1000F109470D118F453
:1049C00080606DD000228DE054F8040B002808BFF1
:1049D00028F010080028109440F0B88018F4806186
:1049E00000F0B4800021EEE008F0200181F06101C8
:1049F000604601F1F60E0022BCF1000F48BFCCF179
:104A0000000000BFB0FBF7F1734601FB170404F090
:104A1000FE060A2E38BF3023234411ACA3541E2AAD
:104A200002F1010261D8B8420846EBD25DE000BF56
:104A300008F0200080F06100F63000220F9000BFE7
:104A40009246304621463A460023FBF723FC00FB02
:104A5000176211AD02F0FE030A2B0F9B38BF302303
:104A600013440AF10102BAF11E0F05F80A3005D805
:104A7000F31B74F1000306460C46E1D211A8CDE900
:104A800000020020CDE902070C980D9F04900B98BE
:104A90000E9EDDF828A00590384631464A469FE034
:104AA00008F0200181F06101604601F1F60E00225C
:104AB000BCF1000F48BFCCF1000000BFB0FBF7F124
:104AC000734601FB170404F0FE060A2E38BF30239C
:104AD000234411ACA3541E2A02F1010202D8B842A9
:104AE0000846EBD21098043010904FEADC70CDE904
:104AF00002070C9811A9CDE9001204906AE000BFEA
:104B0000022D77D3DDE90D781094681C6C420025E6
:104B10000F9000BF09EB0502202041465346B847DD
:104B2000013560190130F5D1DDE90F84A94464E055
:104B3000611C86E02078002808BF28F01008109437
:104B400010BB18F480611FD0002139E008F020016B
:104B500081F0610101F1F60C002100BFB0FBF7F319
:104B6000624603FB170606F0FE040A2C38BF30220B
:104B7000324411AE72541E2901F1010123D8B8420A
:104B80001846EBD21FE000BF08F0200181F0610160
:104B900001F1F60C002100BFB0FBF7F3624603FB06
:104BA000170606F0FE040A2C38BF3022324411AE3C
:104BB00072541E2901F1010102D8B8421846EBD205
:104BC00010980430109011A8CDE90001002002A92E
:104BD00081E881400D9F0E9E384631464A46059534
:104BE0005346CDF81880FFF773FA05460BF1010420
:104BF000FFF77ABB0D9F4FF0020814F8040B0E99D3
:104C00004A46534609F10105B847002E10940FD5C6
:104C10000B9840450CD90E9EA0EB08042A46202094
:104C2000314653460135B847013CF7D1ADE500BFE9
:104C30000E9E0BF10104FFF757BB00BFA11C00E063
:104C4000E11C3D46A1EB0A027245714638BF114690
:104C50005FEA48530F9358BF11465FEA8872099282
:104C60000B951CD48D4219D9DDF82880DDE90D762D
:104C7000681C6D1A0024CDF830E0089009EB04029E
:104C8000202031464346B8470134A542F6D19AF870
:104C90000000DDF830E0A14404E000BF0131DDE9AF
:104CA0000D760891D0B10AF10104DDF828A00CE0DE
:104CB000F046C0B231464A46534609F10105B847AD
:104CC00014F8010BA946C64658B10F990029EFD533
:104CD000BEF1000F04D0AEF10108EAE7DDF828A02C
:104CE0004D46099800287FF550ADDDF82C800898D6
:104CF00080457FF64AADA8EB000400BF2A4620207D
:104D0000314653460135B847013CF7D13DE500BF78
:104D10004A46002031465346CA4598BFAAF10102CF
:104D2000B847484619B0BDE8F08F00002DE9F04FB4
:104D300081B040F29827C2F20007B86826F034F933
:104D40007978044681F00100787040F2F420C2F2D4
:104D50000000FEF79DFA002800F0B08040F2F42B2E
:104D600006464FF00008C2F2000B4FF001094FF663
:104D7000FF7A07E058463146FEF7AEFA06460028AD
:104D800000F09C8096F842007978C0F380028A4255
:104D900087F8008062D000F0FB0242EA8102316BAA
:104DA000030786F842201AD4002918DC0A1916D401
:104DB000C00709D1716939B130468847316AB26A92
:104DC000014410443162B062B16809B1304688478D
:104DD00096F84200316B40F0080086F8420008194E
:104DE00030633BD4F16A8842C8BF3163F169304611
:104DF0008847726A904205D07268014670620AB1B3
:104E000030689047D6E90B01814227DB96F84210C3
:104E1000B6F840308A0705D423B153451CBF013B87
:104E2000A6F840301B0407D0D6E90E356D42356335
:104E3000A3B1002A04D506E0002A1BD4B36BCBB182
:104E4000726B5242326381F0020186F84210B16AFD
:104E5000326A3162C6E90A23B06300BF387801289C
:104E60007FF488AF5846FEF713FA064600287FF411
:104E700089AF23E058463146FEF7B2FA584687F824
:104E80000090FEF705FA0146786889B126F046FAE7
:104E9000F16809B130468847316909B13046884721
:104EA00030461AF08BFC387801287FF463AFD9E7DD
:104EB00026F024FAF1680029ECD1EDE726F08CF811
:104EC000B86001B0BDE8F08FB0B5044640680D464B
:104ED00010B12946FFF7F8FF2268002A08BFB0BDCD
:104EE00020462946BDE8B0401047000089B207F0CF
:104EF00079BE000089B207F0EBBE000089B207F06E
:104F000071BE0000B0B5002944D080290B460BD3F8
:104F1000B1FA81F2C2F11A024FF0FF3303FA02F242
:104F2000D24353187F2B37D89A08002300EB830510
:104F3000D5F814C04FF0FF3505FA02F212EA0C0260
:104F400012D092FAA2F2B2FA82FE00EBC31202EB86
:104F50008E0454F83C2FEAB1556825F003058D42C4
:104F60002AD200BFFEE700BF02696FF0010505FA13
:104F700003F31A400ED092FAA2F2B2FA82F300EBD7
:104F80008302D2F814C0BCF1000F6246D9D100BF31
:104F9000FEE700BF0020B0BD0022B2EB134F25D1C9
:104FA000B3FA83F5C5F11A0223FA02F282F0200265
:104FB000C5F11903BAE700BFD568CDB19168C9B191
:104FC000CD60A9602568954210D1814221600DD144
:104FD000012101FA0EF500EB83043CEA0505656149
:104FE00004D10569994025EA010101611046B0BD6F
:104FF000FEE700BFFEE70000F0B54A68032A09D9C2
:1050000022F003030A1D9B1806D05D68EC0705D14A
:105010000846F0BDFEE700BFFEE700BF25F0030431
:105020007F2C3BD84FEA950E4FF0000CDD68002D29
:1050300042D09C6864B3E560AC6000EBCC1505EB36
:105040008E0555F83C6F9E4211D184422C600ED1E2
:1050500000EB8C0501276E6907FA0EF4A6436E611A
:1050600005D1066907FA0CF726EA070707614868C1
:1050700003280FD95B6823F0030318440430032886
:10508000486009D920F0030081500846F0BD00BFF8
:10509000FEE700BFFEE700BFFEE700BFB4FA84FCF6
:1050A000CCF11A0524FA05F585F0200ECCF1190C87
:1050B000DD68002DBDD100BFFEE7000070B539B13D
:1050C00022B14B68DD0705D1FEE700BFFEE700BF58
:1050D000002070BD23F0030402F11005AC420FD292
:1050E000032B40F2818023F0030201F10800835872
:1050F00023F0020383504A6822F001024A6070BD27
:1051000001F1080E02EB0E03DD1D1E1D25F0030547
:10511000AE4201D0FEE700BFA3F1040CA31ADCF8F5
:105120000440043B04F0030423430B2BCCF804306D
:105130002CD94B6803F003031A434A60DCF80420BF
:10514000032A25D922F00304325942F002023251D7
:10515000DCF80420344442F00103CCF804304B68FE
:1051600044F804CC032B15D923F00303734443F80C
:10517000041C22F0030342F003067F2BCCF80460EA
:105180000AD84FEA920E00230FE000BFFEE700BFEF
:10519000FEE700BFFEE700BFB3FA83F2C2F11A06D2
:1051A000F34083F0200EC2F1190300EBC31202EBAF
:1051B0008E0252F83C4FCCB1CCE90240C4F80CC08E
:1051C0000124056904FA03F63543056100EB830009
:1051D000436904FA0EF6334343614B68C2F800C0DA
:1051E000032B3FF680AF00BFFEE700BFFEE70000E5
:1051F000B0B582B0044617F0E7FE054617F024FF6D
:1052000040B1218F2046E18602B0BDE8B0401FF0DA
:1052100029B900BF606A01211EF03AFE30B1204674
:1052200002B0BDE8B04015F0A1B900BF2046012191
:105230001CF03EFF4FF6FF71606A618701211CF090
:10524000B1F820462021002215F04EFB218FE08E80
:1052500081420BD02087019001AA20461C2115F025
:1052600043FB01280DD120461FF0FCF8284617F01B
:10527000F7FE042805D120461DF08AFD002116F016
:10528000D7FA02B0B0BD0000B0B515F029FB044656
:105290001DF00AFE0546204608F0D0FF01462846CC
:1052A0000022BDE8B04024F0CDBD00002DE9F04F54
:1052B0008FB0154609900A91C8784CF681614CF67A
:1052C0008D62C0F60001C0F600020B9310F00100E1
:1052D00008BF0A464CF61961DDF870B0C0F600014F
:1052E00006924CF6E5520B46C0F6000208BF134684
:1052F000DBF810E00893002808BF0A4607920C95D7
:1053000006E000BF0C9D5FEACC70C34600F0D08081
:10531000BEF1000F00F0CC80BBF80200BBF8041017
:10532000DBF80C30BEF1040FA0EB010A02D200241E
:10533000002249E02EF0030703F14C06002400226E
:1053400008E000BF36F8040C02440434A74206F11A
:10535000500639D016F83C0CC00717D136F8400C6F
:10536000024416F8280CC00718D036F8300CAAEB07
:10537000000A16F8140CC00717D036F81C0CAAEB5C
:10538000000A3078C007DDD015E000BF36F8440CC5
:10539000AAEB000A16F8280CC007E6D136F82C0C48
:1053A000024416F8140CC007E7D136F8180C024472
:1053B0003078C007C6D036F8080CAAEB000A0434CF
:1053C000A74206F15006C5D11EF0030732D004EB08
:1053D000840003EB8000067CF60705D18089024437
:1053E000012F06D126E000BF0089AAEB000A012F99
:1053F00020D0601C00EB800003EB8000067CF607E9
:1054000004D180890244022F05D113E00089AAEB60
:10541000000A022F0ED0A01C00EB800003EB8000DE
:10542000037CDB0702D18089024403E00089AAEBF8
:10543000000A00BFBEF1000F3AD0DBF80C90D8464E
:10544000002300264FF0000C0DE000BF09EB030025
:105450008189AAEB050A521A05810136764503F1C6
:105460001403BFF44FAF09EB0304207CC507F4D14C
:1054700015041BD015B20FFA8AFB9BFBF5F5E1680A
:10548000B4F904706943B4F9065009B2A942B8BF2F
:105490000D46BD42D8BF3D468D42D7D040F00100F9
:1054A0002074D8E9039E4FF0010CCFE7FEE700BF60
:1054B000DDF824A00021504616221EF0C5FADDF8C2
:1054C0002880DBF8081098F800600AB2F71EFFB2D7
:1054D000022A3346B8BF0223032F4FF0FF3728BFFD
:1054E000334657FA83F7042F0AD8BBF80230DFE8B7
:1054F00007F0030B131F2B001A990026CF1A2FE079
:10550000002600272CE000BF1A9A19B2511A01EBAD
:10551000D1714F10002623E01A9AD21A4FF480332B
:1055200003EB014112B2091492FBF1F73E4617E07A
:105530001A99C91A09B291FBF2F6B1B206EBD13150
:1055400009B24F100CE000BF1A9A0027D21A0023AC
:10555000CFF6FF7303EB014112B2091492FBF1F68F
:1055600098F803105FFA80FBC90709D0DDF82C908A
:10557000BBF1010F06D150461DF092FB074401E03C
:10558000DDF82C90504629461DF008FB002818BF76
:105590004D4503D10FB0BDE8F08F00BF04461B9806
:1055A00030440126C0F206060B9000BF204631466B
:1055B0001EF076FC60B198F80300400700F15681B8
:1055C000DAF80800013541688D42C0F25581E1E703
:1055D00040F2E810C2F200004289204600211EF08D
:1055E00033FA000626D01C98016949B3C068BC464E
:1055F0004A4200F13C03032153F83C7CA74221D0EE
:105600005718022F13D053F8286CA6421CD0012F34
:105610000DD053F8146CA64218D047B11F68A742AA
:1056200015D004315718032F03F15003E4D10020A3
:1056300012E000BF608C20F4406060843FE000BF57
:1056400000200AE0033902E0023900E0013901EBF1
:10565000810100EB8100008967460C9098F80310E7
:10566000608CC9074FF4006120F4406008BF4FF41C
:10567000806108440899608404F114000646884754
:105680000C9980B281421AD020461EF0EBFE606970
:10569000A1690D900C98069A0E9101B23046904780
:1056A000204629210DAA15F01FF920461DF0FCFB0C
:1056B0002221224615F018F920461EF0D3FE98F854
:1056C0000100012810D0022816D11C980799B0F9C2
:1056D0000000013020F0010604F114008847301A60
:1056E00000EBD070401008E01C980799068804F180
:1056F00014008847301A00E00020059098F8030055
:10570000CDF808B0C00707D0BBF1010F04D108994C
:1057100004F1140088473F1A204600216B220C97A1
:105720001EF092F98346204600216C221EF08CF96F
:10573000064620461EF03AFB074620461DF02EFB8B
:105740000BF4C041B1F5005F18D10FFA8BF121F4D1
:10575000C041B1F5FA6FB44611DCB1F57A7FC8BF2C
:10576000C1F57A7148F21F527943C5F2EB1251FB31
:1057700002F14A1102EBD17B01E000BFB4460CF408
:10578000C041B1F5005FCDF810B017D10FFA8CF120
:1057900021F4C0410C9BB1F5FA6F10DCB1F57A7FB2
:1057A000C8BFC1F57A71484348F21F51C5F2EB11E9
:1057B00050FB01F0411101EBD07C00E00C9B204636
:1057C00030F8142F98F803E0019040881F460390AA
:1057D0001EF00100059908BF0F46189EDDF810B0B5
:1057E00000285E44A6EB02021744199A0C9308BFE6
:1057F0001946039B6244D21A561847EA060212045D
:105800001BD020461EF02EFEA08A218B3844A08299
:10581000C819E18A20838819618BE0828819608326
:1058200020461EF01FFE39B232B2204600231EF081
:10583000CDFE98F803E00EF001000C9FDDF808B0F3
:105840000126C0F2060628B1BBF1010F02D10B9868
:105850003F1A07E00198089988470B9998F803E0E8
:10586000CA1917185FEA4E707FF5AAAE012DFFF630
:1058700091AEDAF80800013D006850F82540002C90
:105880003FF488AE4D457FF491AE83E6022A3ED9BF
:1058900010B5C1F3C42CC0F3C42363444FF01F0CF4
:1058A0001F2B28BF63464FEAC32EC1F34513C0F335
:1058B0004514234401F01F0400F01F003F2B28BFB4
:1058C0003F2320444EEA43131F2838BF8446FF2A53
:1058D00043EA0C0018D08CB283B2240414FA81F18C
:1058E0004FF61F041B04C0F2E07413FA80F0043278
:1058F00021402040D208401A504301EB5010204074
:1059000040EA104101E000BF0146BDE810400846F2
:1059100070470000022A35D980B5C0F3C42CC1F30A
:10592000C42303FB0CFC00F01F0E01F01F0303FB5C
:105930000EFEC0F34510C1F3451358436FF01F032B
:1059400003EA50002CF01F039B0143EA5E13184446
:10595000FF2ABDE8804008BF70478BB21B0413FAD2
:1059600081F14FF61F03C0F2E07300EB00400432F8
:1059700019401840D208401A504301EB501018400B
:1059800040EA104108467047022A3ED980B5C1F36B
:10599000C42CC0F3C423ACEB030323EAE3734FEA44
:1059A000C32EC1F3451CC0F34513ACEB030323EA3C
:1059B000E37363F34A1E01F01F0300F01F00181A7F
:1059C00020EAE070FF2A40EA0E001BD08BB21FFADB
:1059D00080FC04321B044FEAD20E13FA81F14FF619
:1059E0001F034FEA0C42C0F2E07312FA80F0194034
:1059F0001840401A00FB0EF001EB5010184040EA2E
:105A0000104100E00146BDE88040084670470000B4
:105A100070B582B0044614F063FF0546204614F0CA
:105A200047FF064628461DF03FFA0A2E044609D0D5
:105A30002B2E4ED1618D2046002202B0BDE8704071
:105A400024F000BA17F0C0FA10B10079012840D054
:105A500001A928461DF0AEFA94F82C0010F00C0FA6
:105A600018D028461DF01CF9054686B220460021B4
:105A700016221DF0E9FF05EBD632C1B2BDF90400D4
:105A800012B201294FEA620114BF0844081A90FBC0
:105A9000F5F00CE028461DF0E7F881B2BDF90620CC
:105AA00000EBD13109B202EB610191FBF0F001048E
:105AB0004FF00005668D58BF05B2204629460122E9
:105AC00024F0C0F9B54204D020461C21002214F075
:105AD0000BFF02B070BD000090F8542002F00103EB
