:020000040800F2
:10000000086B0120C10200081526000879210008AC
:100010001126000889130008D537000800000000E9
:10002000000000000000000000000000B9350008DA
:100030008D1300080000000019260008BD350008D7
:10004000DB020008DB020008DB020008DB0200081C
:10005000DB020008DB020008DB020008DB0200080C
:10006000DB020008DB020008DB020008DB020008FC
:10007000DB020008DB020008DB020008DB020008EC
:10008000DB020008DB020008DB020008DB020008DC
:10009000DB020008DB020008DB020008DB020008CC
:1000A000DB020008DB020008DB020008DB020008BC
:1000B000DB020008DB020008DB020008DB020008AC
:1000C000DB020008DB020008DB020008DB0200089C
:1000D000DB020008DB020008DB020008DB0200088C
:1000E000DB020008DB020008DB020008DB0200087C
:1000F000DB020008DB020008DB020008DB0200086C
:10010000DB020008DB020008DB020008DB0200085B
:10011000DB020008DB0200087D360008DB02000875
:10012000DB020008DB020008DB020008DB0200083B
:10013000DB020008DB020008DB020008DB0200082B
:10014000DB020008DB020008DB020008DB0200081B
:10015000DB020008DB020008DB020008DB0200080B
:10016000DB020008DB020008DB020008DB020008FB
:10017000DB020008DB020008DB02000800000000D0
:10018000DB020008DB02000800F002F800F088F84B
:1001900014A696E8000CB244B344DA4501D100F04D
:1001A0007FF8BAE80F000FA696E83000A5EB04052B
:1001B00004EB0607AAEB0704A7F101074FEA1515A0
:1001C0004FEA3414A4F10104AC4201D300F068F802
:1001D00013F0010F18BFFB1A43F0010300F001F800
:1001E000DBE7184738EC030058EC0300103A24BF53
:1001F00078C878C1FAD8520724BF30C830C144BF8C
:1002000004680C6070470000704700000023002461
:1002100000250026103A28BF78C1FBD8520728BF16
:1002200030C148BF0B607047662938F09487652954
:1002300038F09187672938F08E87612938F08D87EB
:10024000692900F07181642900F06E81752900F040
:100250006B816F2900F00282782900F029820368FF
:10026000DB0928BF41F08001632900F00987E329F9
:1002700000F01C87002070471FB538F05FFF00F0CA
:100280004DFF04000020002138F042FF401C606058
:100290000020002138F026FFE0601FBD10B510BD22
:1002A00001F03CF81146FFF7E7FF2EF0F3FD01F0F7
:1002B0005AF803B4FFF7F2FF03BC01F05DF8000049
:1002C0000948804709480047FEE7FEE7FEE7FEE7EA
:1002D000FEE7FEE7FEE7FEE7FEE7FEE70448054926
:1002E000054A064B7047000069360008890100087E
:1002F00008650120086B01200867012008670120BC
:1003000053EA020C00F069802DE9F04B4FF0000633
:10031000002B1FBFB3FA83F503FA05F424FA05F6A0
:100320005E4012BF1643B2FA82F502FA05F4C5F137
:1003300020051EBF22FA05FC44EA0C04203556EACB
:10034000044C4FEA144418BF641C4FF000084FF0EF
:100350000009904271EB030C39D3002919BFB1FA9F
:1003600081F701FA07F6B0FA80F700FA07F6C7F14D
:1003700020071EBF20FA07FC46EA0C062037B6FB12
:10038000F4FCA7EB0507103F07F01F0BCBF120068D
:100390002CFA06F60CFA0BFB44BFB3460026202FBE
:1003A000A4BF5E464FF0000B5BEA060C08BF4FF09F
:1003B000010B19EB0B0948EB0608ABFB027C06FBB3
:1003C00002CC0BFB03CCC01B71EB0C01C1E70B464D
:1003D000024641464846BDE8F08B13B5084318BFB6
:1003E0004FF0FF300146AFF30080BDE81C4070477E
:1003F00053EA020C23D010B54C1084EA530404D500
:100400004042C1F1000138BF491E1B4204D552428F
:10041000C3F1000338BF5B1EFFF772FF14F0804F7B
:1004200004D04042C1F1000138BF491E14F0004F12
:1004300004D05242C3F1000338BF5B1E10BD13B598
:1004400040424FF0000070EB0104B8BF012001F002
:10045000004100281CBF6FF000414FF0FF30AFF3A8
:1004600000801CBD70B5044685690068C10601D5D1
:10047000302600E02026C00707D070BDD4E9012156
:1004800030469047206A401C20626D1EF6D570BD34
:1004900070B5044685690078C00707D170BDD4E9FE
:1004A000012120209047206A401C20626D1EF6D555
:1004B00070BD09684A0501D540B27047C905FCD531
:1004C00000B2704709684A0501D5C0B27047C90536
:1004D000FCD580B2704770B50C460546012A05D0A0
:1004E0002878800600D5EA69002302E0012305E0B0
:1004F0005B1C934202D2E05C0028F9D1A869E6189F
:10050000C01AA861286A184428622846FFF7AAFF83
:1005100004E0D5E9012114F8010B9047B442F8D367
:100520002846FFF7B5FF70BD2DE9F04106460024CF
:1005300010687529314616A510D0FFF7BAFF0028BC
:1005400002DA404213A507E031688A0701D512A5F7
:1005500002E0490704D511A5012401E0FFF7B2FF2D
:1005600000210A2206F1240709E0B0FBF2FCB0FBEF
:10057000F2F302FB1C00303078541846491C002866
:10058000F3D123462A463046BDE8F04100F089B950
:10059000000000002D0000002B00000020000000E3
:1005A0002DE9FF5F15468A460446DFF8AC80F84423
:1005B0000027D8E900103E46CDE9001010E03AF8D7
:1005C00016106A4602A800F07DFD411C07D0217874
:1005D000890603D5E269391891420DD80744761C83
:1005E0002078800602D5E069B84205DDAE42E6DB40
:1005F0003AF816000028E2D1A069C01BA06120468D
:10060000FFF730FFD8E90010CDE90010002017E017
:100610003AF818106A4602A800F054FDB0F1FF3F06
:1006200081460BD000250DF1080B05E0D4E901212E
:100630001BF8050090476D1C4D45F7D308F10100EC
:10064000B0428046E4DB206A384420622046FFF74F
:100650001FFFBDE8FF9F0000AE8B030070B504468E
:1006600021461068FFF72EFF002104F1240505E064
:1006700000F007023032C0086A54491C0028F7D144
:100680002068002308A2050708D500F020000843D1
:1006900004D0E069012305A2401EE0612046BDE8C8
:1006A000704000F0FEB800000000000030000000C4
:1006B00070B504460D4621461068FFF703FF2188F8
:1006C000090502D50F4A7A4402E00E4A7A440E32F6
:1006D000002104F1240305E000F00F060009965DF7
:1006E0005E54491C0028F7D120780023000704D568
:1006F000702D02D009B1022311322046BDE87040AE
:1007000000F0CFB89E8A030010B5203AC0F00B80ED
:10071000B1E81850A0E81850B1E81850A0E81850F7
:10072000203ABFF4F5AF5FEA027C24BFB1E818506D
:10073000A0E8185044BF18C918C0BDE810405FEACF
:10074000827C24BF51F8043B40F8043B08BF70474B
:10075000D20728BF31F8023B48BF11F8012B28BF50
:1007600020F8023B48BF00F8012B704702F0FF035E
:1007700043EA032242EA024200F00AB802F0FF0311
:1007800043EA032242EA024200F024B84FF000029A
:100790000429C0F0128010F0030C00F01B80CCF193
:1007A000040CBCF1020F18BF00F8012BA8BF20F801
:1007B000022BA1EB0C0100F00DB85FEAC17C24BF55
:1007C00000F8012B00F8012B48BF00F8012B7047FF
:1007D0004FF0000200B5134694469646203922BFDA
:1007E000A0E80C50A0E80C50B1F12001BFF4F7AF25
:1007F000090728BFA0E80C5048BF0CC05DF804EB07
:10080000890028BF40F8042B08BF704748BF20F874
:10081000022B11F0804F18BF00F8012B7047000029
:1008200030B44FF0013C50F8042B51F8043BCCFAA3
:1008300052F4D51A20D1FCB950F8042B51F8043BDE
:10084000CCFA52F4D51A17D1B4B950F8042B51F898
:10085000043BCCFA52F4D51A0ED16CB950F8042BE3
:1008600051F8043BCCFA52F4D51A05D1002CDAD059
:1008700030BC4FF00000704729BAB1FA81F111F095
:100880001801D1F120008440F2D1CA40CB4012F0CF
:10089000FF0213F0FF0330BCD01A70477047704757
:1008A00070472DE9F0470D4699469246044600F1FF
:1008B00024080168880604D5E06921F01001216050
:1008C00000E00120A84201DD471B00E00027A169EC
:1008D0007A1902EB0900081AA0612078C00602D438
:1008E0002046FFF7BFFD002608E0D4E901211AF8F1
:1008F00006009047206A401C761C20624E45F4DBBF
:100900002078C0060AD52046FFF7ACFD06E0D4E902
:10091000012130209047206A401C2062381EA7F138
:100920000107F4DC07E0D4E9012118F8050090473D
:10093000206A401C2062281EA5F10105F3DC204638
:10094000FFF7A6FD2078000602D50220BDE8F0875B
:100950000120FBE72DE9FF4F0C461E464FF0FF3705
:100960008BB0D2E90001DDF860800A908A46C1F3BD
:100970000A5505B93D46002108464FF00000BAF17E
:10098000000F00F4400005DA00EB80004FF4400156
:1009900001EA50004FEA9059B9F1010F00DDB94664
:1009A0000A9850EA4A000ED044F61050A5F2FF35DE
:1009B00045432F14B8F1000F1ED07542291E1EDDCD
:1009C000C9F100021CE0B8F1010F4FF0000001D0A6
:1009D000302103E0F24305E02154401CB042FBDB30
:1009E00030460022002121540B99C1F80880C1E94A
:1009F00000200FB0BDE8F08FBD1B6D1CDEE74A463E
:100A000000DA694206A800F013FC06AB93E8070081
:100A100003AB83E8070050460A9937F082FF8DE860
:100A20000700A0F500501F3800900398002D0ADD44
:100A300042F21F014A460844002303A90390684676
:100A400038F0ECF909E0A0F500504A461F380023C1
:100A500003A90390684638F0F6F98DE80700000412
:100A6000000C03D04FF0FF30410800E01046B8F111
:100A7000000F03D00022009215461EE0751E05D41B
:100A800000F050FB303262556D1EF9D5B34601229D
:100A9000084302D000227F1C04E02078302801D1D6
:100AA00000227F1E002A099784D01DE0112D07DA4D
:100AB00000F038FB303262556D1C50EA0102F5D16E
:100AC000084302D00098C8B10EE00021681E05E07E
:100AD000235C625C63542254401E491C8142F7DB54
:100AE000AB46A81B401E0990002004F80B000B9891
:100AF000099AC0F80880C0E9002B7AE711264FF068
:100B0000000857E72DE9F04F88460446D21D22F031
:100B1000070191B0D1E90001CDE90A0138F0CAFA24
:100B200002460B98C00F01D02D2007E020688107F6
:100B300001D52B2002E0202101EAC000032A099000
:100B400001D0072A05DB03464146204600F030FB72
:100B50000BE12078800601D5E06900E00620B8F1BD
:100B6000650F814606D0B8F1660F18D0B8F1670F4F
:100B700070D131E00020B9F1110F009001DB112399
:100B800001E009F101030AAA01A90CA8FFF7E2FE9E
:100B9000DDE90C70002609F10105834647E00120DC
:100BA0004B4600904FF000470AAA01A90CA8FFF796
:100BB000D1FEDDE90DB00C995D46002610B909F1B2
:100BC00001000D18B9EB050003D4C0F1FF3609F19F
:100BD0000105A5EB09002BE0B9F1010F01DA4FF097
:100BE00001090020B9F1110F0090484601DD1123E1
:100BF00000E003460AAA01A90CA8FFF7ABFEDDE955
:100C00000C704D4600268346207800070AD4AB4579
:100C100000DA5D4601A8012D04DD411911F8011C1F
:100C2000302907D04F4502DA17F1040F04DA01200A
:100C300082460FE06D1EEEE7002F02DCED1B3E4406
:100C400003E0781CA84200DD7D1CB81B00F1010AFE
:100C50004FF000472078000703D4AA4501DB4FF08E
:100C6000FF3A0021B7F1004F0DF143088DF8431012
:100C700024D002202B23002F01DA7F422D230A21CA
:100C8000021EA0F1010000DC5FB197FBF1FC97FBB5
:100C9000F1F201FB1C7C17460CF1300C08F801CD79
:100CA000EEE7A8F1010003702188090501D545216F
:100CB00000E06521A0F1010800F8011C09980FA9C6
:100CC000A1EB0807FF1D00B10120411901EBEA70FB
:100CD000A1693844081A401EA0612078C00602D4D9
:100CE0002046FFF7BFFB099828B1D4E901219047BE
:100CF000206A401C20622078C00622D52046FFF7DB
:100D0000B1FB1EE0002E04DBB34502DD01A8805DCF
:100D100000E03020D4E901219047206A401C206285
:100D2000761CAAF101005FEA000A0AD100F0F6F988
:100D3000C0680168405CD4E901219047206A401CEA
:100D40002062281EA5F10105DCDC07E0D4E90121C1
:100D500018F8010B9047206A401C2062381EA7F14A
:100D60000107F3DC2046FFF793FB032011B041E6B7
:100D70002DE9F04F04460D46D21D22F0070089B040
:100D8000D0E900974846394638F094F90246F80F02
:100D900001D02D2307E02068810701D52B2302E035
:100DA000202101EAC0038DF820300BB1012000E0C2
:100DB0000020032A824601D0072A04DB2946204668
:100DC00000F0F6F93FE12078800601D40D2500E01F
:100DD000E569C7F30A560D2D49DA00214FEA175B82
:100DE00008464FF00000002F00F4400007DA00EB47
:100DF00080004FF4400100EBD07001EA60008115E3
:100E0000012901DD4FF0FF3100224FEA850CBCF1D2
:100E1000180F06D31346ACF118004FF08052C240B1
:100E200003E04FF4801323FA0CF30CF10C0CBCF12B
:100E3000200F04D3ACF1200C09FA0CF001E007FA02
:100E40000CF000294FF0004801DD18B90FE00ED179
:100E500040450CD319EB02095F4121B9404502D14D
:100E60009F4329EA0209BBEB175F00D0761C20885C
:100E7000000502D57B48784402E07A487844193866
:100E800008AA302302F80A30037C0AF10101002E7F
:100E90000AF1020A53546A4602DC4FF0300101E0C5
:100EA0004FF031014FF001088DF8001002D0A6F28A
:100EB000FF3603E059EA470100D06B4E002D02DCFB
:100EC0002178090704D54FF002082E218DF8011072
:100ED000C44600210BE0C7F303433F01C35C491C38
:100EE0006D1E02F80830052908F1010801DA002D0D
:100EF000F1DC00210CE000EB1973491C1B786D1E1E
:100F0000082902F808304FEA091908F1010801DA46
:100F1000002DF0DC21688B0602D516E0A8F101084F
:100F2000E04505DD02EB080313F8013C302BF5D05A
:100F3000B8F1000F09DD02EB080313F8013C2E2B7A
:100F400003D1090701D4A8F10108002D05DD3E21D8
:100F500002F808106D1E08F10108407C002E02F80E
:100F6000080008F1010804DA2D20764202F8080092
:100F700002E02B2002F808000A214FF47A70864222
:100F800008F101080BDB96FBF0F3303302F8083070
:100F900096FBF0F308F1010800FB136601E0642EF4
:100FA0000CDB642096FBF0F3303302F8083096FB3C
:100FB000F0F308F1010800FB136601E00A2E06DBDE
:100FC00096FBF1F0303002F8080008F1010896FBBA
:100FD000F1F001FB1060303002F80800A16908F15F
:100FE000010808EB050202EB0A00081AA06120784C
:100FF000C00602D42046FFF735FA216A08AE01EB9D
:101000000A00206204E0D4E9012116F8010B9047A0
:10101000BAF1010AF7D22078C00602D52046FFF7C0
:1010200021FA6E4609E016F8010B3E280FD0D4E9EC
:1010300001219047206A401C2062B8F10108F2D2D9
:101040002046FFF725FA09B00320BDE8F08F206A9B
:101050002844206203E0D4E90121302090476D1E2E
:10106000EBD3F8E72983030002FCFFFF10B54369C7
:1010700013B1AFF3008001E0FFF72DFA012010BD9E
:10108000127800F124010A7000224A700122EDE773
:1010900011684FF0FF32E9E710B5436913B1AFF3C0
:1010A000008001E0FFF77CFA012010BD128800F1FA
:1010B000240182840022C2840122EDE711684FF0EE
:1010C000FF32E9E72DE9F04116460C46054600F0EF
:1010D0001DF8036893F80101012807D0FF2C12D8EE
:1010E000185D80B101202C70BDE8F081D3F80701B4
:1010F0003246214603F20713C7182846BC46BDE80E
:10110000F041002360474FF0FF30EDE710B500F0ED
:1011100005F8001D10BD00BFF97F030000487047AF
:10112000C800002030B5B0F10A0271F100034FEAA7
:10113000900E4EEA817EB0EB0E0061EB91014FEA1A
:10114000101E4EEA017E10EB0E0041EB11114FEA2A
:10115000102E4EEA016E10EB0E0041EB11214FEA0A
:10116000104E4EEA014E10EB0E0041EB11414018BB
:1011700041F100014FEAD00040EA41704FEAD1014D
:101180004FEA810444EA907410EB800544EB0104BB
:101190006D1944EB0404521BA3414FF0000348BFF8
:1011A0000A3200D530BD401C41F1000130BD0000C5
:1011B0002DE9F0411F46044603260168072A01F481
:1011C000006004DB08B116A505E016A503E008B130
:1011D00015A500E015A521F010002060A069C01E33
:1011E000A0610FB1401EA0612046FFF73BF94FB14F
:1011F000D4E9012138469047206A401C2062C01C77
:10120000206206E0206AFAE7D4E9012115F8010B13
:101210009047761EF8D22046FFF73AF9BDE8F081F4
:101220004E414E006E616E00494E4600696E66008A
:101230002DE9F047814616468AB0354878440DC8F6
:101240008DE80D0032487844801C03AC0DC884E85A
:101250000D0041F69B300844372190FBF1F290FBE2
:10126000F1F5A5F1800501FB12041B3C02D5644297
:10127000012000E00020DFF898A080460027FA4413
:10128000AAF1BE0A0EE0E0070AD03246684607EB34
:10129000470101230AEB810137F0D5FD8DE80700F6
:1012A00064107F1C002CEED1194F7F44AE3F19E033
:1012B000E80715D007EB04100DF1180A90E80E00AE
:1012C0008AE80E00C068F04201D1981908903246B1
:1012D000012306A903A837F0B6FD03AB83E8070096
:1012E0006D10641C002DE3D14FF0010332466946B6
:1012F000B8F1000F03A802D037F090FD01E037F0FD
:10130000A2FDC9E90001C9F808200AB0BDE8F087CC
:10131000F47F030000487047A80000207546FFF7DF
:10132000F9FFAE4605006946534620F007008546A2
:1013300018B020B5FEF7D2FFBDE820404FF0000600
:101340004FF000074FF000084FF0000BAC46ACE840
:10135000C009ACE8C009ACE8C009ACE8C00921F09C
:1013600007018D46704710B50446AFF30080204654
:10137000BDE81040FEF79DBF01491820ABBEFEE757
:101380002600020070470000FEE7000070470000E2
:1013900072B600BFFEE70000B0B5044600F0EEF8FC
:1013A000054640F20000C2F200000078611C18BF40
:1013B000044400BF00F0E2F8401BA042FAD3B0BDE5
:1013C0002DE9F04F82B000F13E4707F1FF77860527
:1013D00046EA972741F60046C4F20206082243F681
:1013E000004EB04208BF0722C4F2010E072F38BFDB
:1013F0003A46002600274FF00008009209E000BF9F
:1014000008F101080237B8F1100F06F1040600F0E8
:10141000A3800D68012202FA08F415EA0409EFD04E
:10142000D1F804B003220BF0030CACF10105BA4073
:10143000012D6FEA020A0FD88268CD6802EA0A021B
:10144000BD402A4382604268A243CBF3001404FAF1
:1014500008F42243426005E0BCF1030F02D14FF0D3
:10146000030C1EE0C2688C6802EA0A02BC402243F8
:10147000BCF1020FC26014D16FF0030202EA5802FD
:101480000244D2F820C006F01C040F230D69A340CB
:101490002CEA0303A5402B431362D1F804B00BF0F0
:1014A000030C02680CFA07F302EA0A021A431BF45F
:1014B000403F0260A4D0002243F644030192C4F2EC
:1014C00002031A684FF6084C42F480421A601A6808
:1014D000CFF6FF7C02F480420192019A28F00302C9
:1014E000724452F80C3006F00C050F24AC40A343B4
:1014F000009C04FA05F52B4342F80C30DEF8082076
:101500004B6842EA090543F60C4CDC0258BF22EA5C
:101510000905CEF80850C4F2010CDCF800209C024A
:1015200042EA090558BF22EA0905CCF80050DEF866
:1015300004209C0342EA090558BF22EA0905CEF8B7
:101540000450DEF80020DB0342EA090558BF22EA16
:101550000905CEF8005053E702B0BDE8F08F000057
:10156000426902EA0103914341EA03418161704704
:10157000002A08BF090481617047000046F200504C
:10158000C2F201000068704740F2000046F20051CC
:10159000C2F20000C2F2010100780A68104408603B
:1015A0007047000080B543F60040C4F202000168B5
:1015B00041F400710160016841F4806101600168DB
:1015C00041F480710160032000F086F80F2000F0E4
:1015D00005F800F027F8002080BD000070B540F24B
:1015E0000006C2F2000640F26C013278C2F200013D
:1015F0004FF47A730968B3FBF2F20446B1FBF2F1DF
:10160000084600F0C9FB0F2C4FF0010508D838B987
:101610004FF0FF3021460022002500F031F87460C1
:10162000284670BD82B0002043F640010190C4F20C
:1016300002014A6842F480424A604A6802F48042E9
:101640000192019A0090086840F080500860086894
:1016500000F080500090009802B07047002848BF0A
:10166000704700F01F01012202FA01F11C2202EA78
:10167000D0004EF20012CEF20002815070470000FE
:1016800010B54EF60C5CCEF2000CDCF80030C3F363
:10169000022E8EF00704042C28BF0424BEF103039D
:1016A0004FF0FF3E0EFA04F438BF0023A1439940E7
:1016B0000EFA03F39A43114300F00F0200F1604366
:1016C0000901043A03F564436244002848BF02F16B
:1016D0000C03197010BD00004EF60C51CEF2000143
:1016E0000A684FF6FF031A4060F30A2242F0806056
:1016F00040F0FD7008607047002804BF012070476B
:101700002DE9F04143F60808C4F202080446D8F86F
:10171000F8030D4600F00700884207D288F8F85316
:10172000D8F8F80300F00700A84277D120688107B5
:1017300017D5410705D5D8F8001041F4E051C8F895
:101740000010010705D5D8F8001041F46041C8F831
:101750000010D8F80010A26821F0F0011143C8F879
:101760000010C00740D1D8F8F80300F00700A842E5
:1017700007D988F8F853D8F8F80300F00700A84212
:101780004CD12068410707D5D8F80010E26821F451
:10179000E0511143C8F80010000708D5D8F8000040
:1017A000216920F4604040EAC100C8F8000000F060
:1017B00055F8D8F8001049F26422C1F30311C0F6BD
:1017C0000302515C40F26C0220FA01F140F2040085
:1017D000C2F200000068C2F200021160FFF7FEFED4
:1017E0000020BDE8F08100BF6068811E022907D299
:1017F00058F8081C89015CBF0120BDE8F08111E0A8
:10180000012807D158F8081C89035CBF0120BDE8F6
:10181000F08107E058F8081C890703D40120BDE8CF
:10182000F08100BFD8F8001021F003010843C8F888
:101830000000FFF7A3FE064641F28837D8F8000003
:10184000616800F00C00B0EB810F8CD0FFF796FEC2
:10185000801BB842F2D90320BDE8F08110B543F6F1
:101860000404C4F20204606800F00C0142F200407B
:101870000829C0F2F40007D0042918BF10BD41F2B6
:101880000020C0F27A0010BD216801F03F022168FB
:1018900023684902C3F3881106D4A1FB0001002389
:1018A000FEF72EFD07E000BF41F20020C0F27A00F3
:1018B0004843B0FBF2F021680222C1F3014102EB80
:1018C0004101B0FBF1F010BD002804BF01207047BA
:1018D0002DE9F04182B00446007843F60006C007C7
:1018E000C4F202060CD0B06800F00C00042840F0EE
:1018F00081803068800303D56068002800F06A8129
:10190000207880071BD5B06810F00C0F09D0B068A4
:1019100000F00C00082840F087807068400200F159
:1019200083803068800703D5E068012840F0528149
:101930003068216920F0F80040EAC100306020786A
:10194000000713D4207840072AD4A569002D00F0A1
:101950003C81B06800F00C00082840F0A180012D07
:1019600040F01081012002B0BDE8F08160690028DC
:1019700040F20000C4F2472000F07E800121C0F850
:10198000801EFFF7FBFD0546706F8007DAD4FFF776
:10199000F5FD401B0228F7D9032002B0BDE8F08115
:1019A000306C5FEAC0080AD400200190306C40F02F
:1019B00080503064306C00F080500190019847F204
:1019C0000007C4F200073868C00547D4386840F4FF
:1019D00080703860FFF7D2FD054600BF3868C0054B
:1019E0003CD4FFF7CBFD401B0228F7D9032002B0FF
:1019F000BDE8F081B06800F00C00082803D17068E1
:101A000040023FF576AF6068B0F5803F07D0B0F593
:101A1000A02F40F09B80306840F480203060306818
:101A200040F4803030609BE0E06800285CD000200B
:101A3000C4F2472001210160FFF7A0FD054600BF69
:101A4000306880073FF574AFFFF798FD401B022810
:101A5000F6D9032002B0BDE8F08100BFA0680128DC
:101A600005D0052854D1306F40F004003067306F46
:101A700040F00100306755E00021C0F8801EFFF7FC
:101A80007DFD0546706F80077FF55CAFFFF776FD43
:101A9000401B0228F6D9032002B0BDE8F08100BF48
:101AA0000027C4F2472700203866FFF767FD022DA4
:101AB00005460DD13068800140F19080FFF75EFD52
:101AC000401B02284FF00300F4D902B0BDE8F081BA
:101AD0003068800179D5FFF751FD401B02284FF097
:101AE0000300F5D9F1E700BF0020C4F24720002130
:101AF0000160FFF743FD0546306880077FF51FAFA3
:101B0000FFF73CFD401B02284FF00300F4D9DCE74F
:101B1000316F002821F001013167316F21F004019C
:101B200031677DD0FFF72AFD054641F2883700BFB7
:101B3000306F800700F18680FFF720FD401BB84220
:101B4000F6D9032002B0BDE8F08100BF316800285B
:101B500021F480313160316821F4802131607BD003
:101B6000FFF70CFD054600BF306880033FF5C8AEA7
:101B7000FFF704FD401B6428F6D9032002B0BDE83E
:101B8000F08100BF7068E16900F480028A4221D1CF
:101B9000216A00F03F028A421CD147F6C071626A96
:101BA0000140B1EB821F15D1A16A4FF6FF73C90343
:101BB000994300F44032A1F580318A420AD1E16AAA
:101BC00000F07060B0EB016F04D1002002B0BDE8FE
:101BD000F08100BF012002B0BDE8F08104F11C05D6
:101BE0002FCD084340EA8210D9034FF6FF7291438C
:101BF000A1F5803140EA0560084370600120386635
:101C0000FFF7BCFC044600BF30688001DDD4FFF75D
:101C1000B5FC001B02284FF00300F5D955E700BFC3
:101C2000FFF7ACFC054641F2883700BF306F8007F4
:101C300008D5FFF7A3FC401BB8424FF00300F5D9CD
:101C400043E700BFB8F1000F3FF57FAE306C20F0E6
:101C50008050306479E600BFFFF790FC054600BF76
:101C6000306880037FF54CAEFFF788FC401B64288A
:101C70004FF00300F4D928E770B538B10446406A44
:101C800030B10020206104F1140007E0012070BD94
:101C90006068B0F5827F03D004F11C000021016070
:101CA0000026A66294F8510020B9204684F85060BE
:101CB00000F03CF8022084F8510094E80F0001F491
:101CC0008271056802F4044225F040050560114464
:101CD00003F400622369114403F0020263691144B2
:101CE00003F00102A369E569114403F40072114491
:101CF00005F03802256A114405F08002A56A1143F7
:101D000005F4005211430160626A042101EA1341A3
:101D100002F0100211444160C16921F40061C16107
:101D20000120666584F85100304670BD016843F6B5
:101D30000040C4F20000814218BF704780B586B0F1
:101D4000002143F630020191C4F20202136900F54A
:101D5000E43043F400431361136903F40043019337
:101D6000019B0191136843F002031360126802F0B3
:101D700002020192019A282201920222CDE9022157
:101D8000032104910621059101A9FFF719FB06B073
:101D9000BDE8804070470000411E0020B0EB116F8D
:101DA0001CBF012070474EF21002CEF200025160BB
:101DB0004EF62351CEF20001F0230B700721906004
:101DC00011607047704700007047000090F83C2099
:101DD000012A4FF0020254D010B580F83D2002686D
:101DE000D2F804E0D2F808C00C682EF07003234348
:101DF00041F2FF74C4F20004A24253600EDC40F2D0
:101E0000FF73C4F200039A4216DCB2F1804F2BD06C
:101E100040F20043C4F2000324E000BF40F2FF336D
:101E2000C4F201039A4213DC41F60003C4F200033A
:101E30009A4219D0002313E040F60003C4F20003D5
:101E40009A4211D040F60043C4F200030AE000BFFA
:101E500044F20003C4F201039A4205D040F2004369
:101E6000C4F201039A4204D149682CF0800319435B
:101E700091600121002280F83D1080F83C20BDE8EF
:101E80001040104670470000002804BF0120704732
:101E900010B5044690F83D0028B9002084F83C00B5
:101EA000204600F01FF8022084F83D002068211D24
:101EB00001F0EAFB012084F8460084F83E0084F833
:101EC0003F0084F8400084F8410084F8420084F820
:101ED000430084F8440084F8450084F83D00002065
:101EE00010BD0000006841F20001C4F20001884208
:101EF00018BF704780B582B00020019043F64000C3
:101F0000C4F202000168002241F010010160006883
:101F1000002100F01000019001983620FFF7B0FB7F
:101F2000362002B0BDE88040FFF798BB90F83D1026
:101F300001291CBF01207047022180F83D10006874
:101F400041F2FF72C168C4F20002904241F0010107
:101F5000C1600DDC40F2FF71C4F20001884215DC63
:101F6000B0F1804F2AD040F20041C4F2000123E0DA
:101F700040F2FF31C4F20101884213DC41F6000156
:101F8000C4F20001884219D0002113E040F600019C
:101F9000C4F20001884211D040F60041C4F20001B1
:101FA0000AE000BF44F20001C4F20101884205D0FA
:101FB00040F20041C4F20101884206D1816801F07B
:101FC0000701062904BF00207047016841F00101A4
:101FD00001600020704700007047000070B50446A3
:101FE0000068C5680669B10716D515F0020113D05F
:101FF0006FF002010161012121778069800703D020
:102000002046FFF7E9FF05E0204600F08FF8204664
:1020100000F08EF800202077700719D515F0040025
:1020200016D020686FF004010161022121778069D8
:1020300010F4407F04D02046FFF7CEFF06E000BF3B
:10204000204600F073F8204600F072F80020207758
:10205000300717D515F0080014D020686FF008017C
:10206000016104212177C069800703D02046FFF772
:10207000B3FF05E0204600F059F8204600F058F87C
:1020800000202077F00619D515F0100016D0206832
:102090006FF01001016108212177C06910F4407FC1
:1020A00004D02046FFF798FF06E000BF204600F06E
:1020B0003DF8204600F03CF800202077F00718BFDC
:1020C00015F0010002D1300609D412E020686FF04B
:1020D00001010161204600F02DF8300609D515F008
:1020E000800006D020686FF0800101612046FFF774
:1020F00069FE700609D515F0400006D020686FF023
:1021000040010161204600F035F8B00658BF70BDAF
:1021100015F0200008D021686FF0200220460A61E7
:10212000BDE87040FFF750BE70BD00007047000072
:1021300070470000016841F20000C4F200008142D3
:1021400018BF704740F29411C2F200010A880132B0
:1021500093B2B3F57A7F0A8009D380B500220A8052
:1021600000F5FC300121FFF7FBF9BDE880400120BC
:102170002CF080B970470000FEE7000010B518246D
:1021800002460B46C4F2020400F03CF84FF0004057
:10219000206040F20810C2F20000018940F298105D
:1021A000C2F2000000680A0AC2608268920709D47D
:1021B000826892075CBF82685FEA827202D482689A
:1021C0009207F2D5C1608168890709D481688907BF
:1021D0005CBF81685FEA817102D481688907F2D5AA
:1021E0008168090609D58168090644BF81685FEAEC
:1021F000016102D581680906F2D44FF400402060E5
:1022000010BD00002DE9F04F81B040F218098A4658
:10221000C4F202094FF0004140F29816C9F80010CC
:10222000C2F20006316898461746054688680006DF
:1022300009D58868000644BF88685FEA006002D557
:1022400088680006F2D440F60044C4F20204204636
:102250004FF400510022FFF78BF930682A21C1604A
:10226000816889070AD4816889075CBF81685FEA51
:10227000817103D481688907F2D500BF816809069E
:1022800009D58168090644BF81685FEA016102D50A
:1022900081680906F2D420464FF400510122FFF76D
:1022A00067F940F2081BC2F2000B9BF816104819A0
:1022B00082B23068130AC36083689B0709D48368BD
:1022C0009B075CBF83685FEA837302D483689B07C4
:1022D000F2D5C2608268920709D4826892075CBF17
:1022E00082685FEA827202D482689207F2D539442A
:1022F00089B20A0AC2608268920709D4826892078A
:102300005CBF82685FEA827202D482689207F2D56B
:10231000C1608168890709D4816889075CBF8168C9
:102320005FEA817102D481688907F2D58168090664
:1023300009D58168090644BF81685FEA016102D559
:1023400081680906F2D420464FF400510022FFF7BD
:102350000FF930682B21C160816889070AD4816830
:1023600089075CBF81685FEA817103D4816889074E
:10237000F2D500BF8168090609D58168090644BF06
:1023800081685FEA016102D581680906F2D42046BE
:102390004FF400510122FFF7EBF89BF8171001EB07
:1023A0000A0082B23068130AC36083689B0709D4AD
:1023B00083689B075CBF83685FEA837302D483688A
:1023C0009B07F2D5C2608268920709D4826892079F
:1023D0005CBF82685FEA827202D482689207F2D59B
:1023E000414489B20A0AC2608268920709D48268AD
:1023F00092075CBF82685FEA827202D482689207A9
:10240000F2D5C160816889070AD4816889075CBFF9
:1024100081685FEA817103D481688907F2D500BFC2
:102420008168090609D58168090644BF81685FEAA9
:10243000016102D581680906F2D420464FF40051AB
:102440000022FFF795F830682C21C1608168890768
:102450000AD4816889075CBF81685FEA817103D40F
:1024600081688907F2D500BF8168090609D58168AE
:10247000090644BF81685FEA016102D581680906E7
:10248000F2D420464FF400510122FFF771F8306872
:102490008168090609D58168090644BF81685FEA39
:1024A000016102D581680906F2D44FF40040C9F8F1
:1024B000000001B0BDE8F08F4FF478414FF4FC62AA
:1024C00001EA102102EA5012C0F3C400114408448A
:1024D00040F20811C2F200018860704770B586B002
:1024E000002543F6300005950095C4F2020001680E
:1024F00040F6000441F0040101600168C4F20204E6
:1025000001F004010091009900950168012241F059
:10251000800101600168012601F0800100910099AD
:102520000095016841F001010160016801F00101BD
:10253000009100990095016841F002010160006876
:10254000012100F00200009000982046FFF710F8EB
:1025500001A92046CDE90166CDE90355FEF730FF1C
:1025600006B070BD10B540F2981443F60040C2F2B8
:102570000004C4F200004FF482714FF400420023C3
:1025800084E80F000A204FF4007CC4E90A3020469A
:10259000C4E90433C4E906C3C4E90833FFF76CFB9C
:1025A000002818BFFEF7F4FE2068016841F04001E2
:1025B0000160016841F48041016010BD80B582B0C6
:1025C00040F2F0100021C2F2000041F2000240F29D
:1025D000E73CCDE90011C4F200025323C0E9021C1C
:1025E0008021C0E900238161FFF74EFC002818BF5D
:1025F000FEF7CEFE40F2F010C2F200006946FFF78F
:10260000E5FB002818BFFEF7C3FE02B080BD000046
:10261000FEE70000FEE70000704700002DE9F043F0
:1026200087B0002643F6300006960196C4F20200F9
:10263000016840F6004841F0010101600168C4F200
:10264000020801F00101019101990196016802ADB2
:1026500041F00801016001684FF4004901F00801F0
:102660000191019901960168012441F0080101607E
:102670000068022700F0080001900198A8F540606A
:102680002946CDF80890CDE903460597FEF798FE58
:102690004FF4805002A951C1404629460596FEF7E5
:1026A0008FFE4FF4005002A9D1C140462946FEF7E3
:1026B00087FE40464FF400510122FEF759FF4FF2CA
:1026C0001845CFF6FF7540464FF48051002248F878
:1026D0000590FEF74DFF0A20FEF75EFE4FF000402A
:1026E00040F2981648F80500C2F20006306881688A
:1026F000090609D58168090644BF81685FEA01615E
:1027000002D581680906F2D440464FF400510022F8
:10271000FEF72EFF30683621C1608168890709D431
:10272000816889075CBF81685FEA817102D4816832
:102730008907F2D58168090609D58168090644BF71
:1027400081685FEA016102D581680906F2D44046DA
:102750004FF400510122FEF70BFF30680021C160E9
:10276000816889070AD4816889075CBF81685FEA4C
:10277000817103D481688907F2D500BF8168090699
:1027800009D58168090644BF81685FEA016102D505
:1027900081680906F2D440464FF400510022FEF74A
:1027A000E7FE30683A21C160816889070AD48168F0
:1027B00089075CBF81685FEA817103D481688907FA
:1027C000F2D500BF8168090609D58168090644BFB2
:1027D00081685FEA016102D581680906F2D440464A
:1027E0004FF400510122FEF7C3FE30680521C1609D
:1027F000816889070AD4816889075CBF81685FEABC
:10280000817103D481688907F2D500BF8168090608
:1028100009D58168090644BF81685FEA016102D574
:1028200081680906F2D440464FF400510022FEF7B9
:102830009FFE3068B221C160816889070AD481682F
:1028400089075CBF81685FEA817103D48168890769
:10285000F2D500BF8168090609D58168090644BF21
:1028600081685FEA016102D581680906F2D44046B9
:102870004FF400510122FEF77BFE30680C21C1604D
:102880008168890709D4816889075CBF81685FEA2C
:10289000817102D481688907F2D50C21C1608168F9
:1028A000890709D4816889075CBF81685FEA817103
:1028B00002D481688907F2D50021C1608168890747
:1028C00009D4816889075CBF81685FEA817102D49D
:1028D00081688907F2D53321C1608168890709D4ED
:1028E000816889075CBF81685FEA817102D4816871
:1028F0008907F2D53321C160816889070AD48168CC
:1029000089075CBF81685FEA817103D481688907A8
:10291000F2D500BF8168090609D58168090644BF60
:1029200081685FEA016102D581680906F2D44046F8
:102930004FF400510022FEF71BFE3068B721C16042
:10294000816889070AD4816889075CBF81685FEA6A
:10295000817103D481688907F2D500BF81680906B7
:1029600009D58168090644BF81685FEA016102D523
:1029700081680906F2D440464FF400510122FEF767
:10298000F7FD30683521C160816889070AD4816804
:1029900089075CBF81685FEA817103D48168890718
:1029A000F2D500BF8168090609D58168090644BFD0
:1029B00081685FEA016102D581680906F2D4404668
:1029C0004FF400510022FEF7D3FD3068BB21C160F7
:1029D000816889070AD4816889075CBF81685FEADA
:1029E000817103D481688907F2D500BF8168090627
:1029F00009D58168090644BF81685FEA016102D593
:102A000081680906F2D440464FF400510122FEF7D6
:102A1000AFFD30681921C160816889070AD48168D7
:102A200089075CBF81685FEA817103D48168890787
:102A3000F2D500BF8168090609D58168090644BF3F
:102A400081685FEA016102D581680906F2D44046D7
:102A50004FF400510022FEF78BFD3068C021C160A9
:102A6000816889070AD4816889075CBF81685FEA49
:102A7000817103D481688907F2D500BF8168090696
:102A800009D58168090644BF81685FEA016102D502
:102A900081680906F2D440464FF400510122FEF746
:102AA00067FD30682C21C160816889070AD481687C
:102AB00089075CBF81685FEA817103D481688907F7
:102AC000F2D500BF8168090609D58168090644BFAF
:102AD00081685FEA016102D581680906F2D4404647
:102AE0004FF400510022FEF743FD3068C221C1605F
:102AF000816889070AD4816889075CBF81685FEAB9
:102B0000817103D481688907F2D500BF8168090605
:102B100009D58168090644BF81685FEA016102D571
:102B200081680906F2D440464FF400510122012485
:102B3000FEF71EFD3068C460816889070AD4816889
:102B400089075CBF81685FEA817103D48168890766
:102B5000F2D500BF8168090609D58168090644BF1E
:102B600081685FEA016102D581680906F2D44046B6
:102B70004FF400510022FEF7FBFC3068C321C16016
:102B8000816889070AD4816889075CBF81685FEA28
:102B9000817103D481688907F2D500BF8168090675
:102BA00009D58168090644BF81685FEA016102D5E1
:102BB00081680906F2D440464FF400510122FEF725
:102BC000D7FC30681221C160816889070AD4816806
:102BD00089075CBF81685FEA817103D481688907D6
:102BE000F2D500BF8168090609D58168090644BF8E
:102BF00081685FEA016102D581680906F2D4404626
:102C00004FF400510022FEF7B3FC3068C421C160CC
:102C1000816889070AD4816889075CBF81685FEA97
:102C2000817103D481688907F2D500BF81680906E4
:102C300009D58168090644BF81685FEA016102D550
:102C400081680906F2D440464FF400510122FEF794
:102C50008FFC30682021C160816889070AD48168AF
:102C600089075CBF81685FEA817103D48168890745
:102C7000F2D500BF8168090609D58168090644BFFD
:102C800081685FEA016102D581680906F2D4404695
:102C90004FF400510022FEF76BFC3068C621C16082
:102CA000816889070AD4816889075CBF81685FEA07
:102CB000817103D481688907F2D500BF8168090654
:102CC00009D58168090644BF81685FEA016102D5C0
:102CD00081680906F2D440464FF400510122FEF704
:102CE00047FC30680F21C160816889070AD4816878
:102CF00089075CBF81685FEA817103D481688907B5
:102D0000F2D500BF8168090609D58168090644BF6C
:102D100081685FEA016102D581680906F2D4404604
:102D20004FF400510022FEF723FC3068D021C1602F
:102D3000816889070AD4816889075CBF81685FEA76
:102D4000817103D481688907F2D500BF81680906C3
:102D500009D58168090644BF81685FEA016102D52F
:102D600081680906F2D440464FF400510122FEF773
:102D7000FFFB3068A421C1608168890709D481689C
:102D800089075CBF81685FEA817102D48168890725
:102D9000F2D5A121C1608168890709D481688907BA
:102DA0005CBF81685FEA817102D481688907F2D5CE
:102DB0008168090609D58168090644BF81685FEA10
:102DC000016102D581680906F2D440464FF40051F2
:102DD0000022FEF7CDFB3068E021C16081688907E1
:102DE0000AD4816889075CBF81685FEA817103D476
:102DF00081688907F2D500BF8168090609D5816815
:102E0000090644BF81685FEA016102D5816809064D
:102E1000F2D440464FF400510122FEF7A9FB30687E
:102E2000D021C1608168890709D4816889075CBFA6
:102E300081685FEA817102D481688907F2D5042133
:102E4000C1608168890709D4816889075CBF81688E
:102E50005FEA817102D481688907F2D50D21C160D2
:102E60008168890709D4816889075CBF81685FEA46
:102E7000817102D481688907F2D51121C16081680E
:102E8000890709D4816889075CBF81685FEA81711D
:102E900002D481688907F2D51321C160816889074E
:102EA00009D4816889075CBF81685FEA817102D4B7
:102EB00081688907F2D52B21C1608168890709D40F
:102EC000816889075CBF81685FEA817102D481688B
:102ED0008907F2D53F21C1608168890709D48168DB
:102EE00089075CBF81685FEA817102D481688907C4
:102EF000F2D55421C1608168890709D481688907A6
:102F00005CBF81685FEA817102D481688907F2D56C
:102F10004C21C1608168890709D4816889075CBF39
:102F200081685FEA817102D481688907F2D518212E
:102F3000C1608168890709D4816889075CBF81689D
:102F40005FEA817102D481688907F2D50D21C160E1
:102F50008168890709D4816889075CBF81685FEA55
:102F6000817102D481688907F2D50B21C160816823
:102F7000890709D4816889075CBF81685FEA81712C
:102F800002D481688907F2D51F21C1608168890751
:102F900009D4816889075CBF81685FEA817102D4C6
:102FA00081688907F2D52321C1608168890709D426
:102FB000816889075CBF81685FEA817102D481689A
:102FC0008907F2D58168090609D58168090644BFD9
:102FD00081685FEA016102D581680906F2D4404642
:102FE0004FF400510022FEF7C3FA3068E121C160BE
:102FF000816889070AD4816889075CBF81685FEAB4
:10300000817103D481688907F2D500BF8168090600
:1030100009D58168090644BF81685FEA016102D56C
:1030200081680906F2D440464FF400510122FEF7B0
:103030009FFA3068D021C1608168890709D481680E
:1030400089075CBF81685FEA817102D48168890762
:10305000F2D50421C1608168890709D48168890794
:103060005CBF81685FEA817102D481688907F2D50B
:103070000C21C1608168890709D4816889075CBF18
:1030800081685FEA817102D481688907F2D51121D4
:10309000C1608168890709D4816889075CBF81683C
:1030A0005FEA817102D481688907F2D51321C1607A
:1030B0008168890709D4816889075CBF81685FEAF4
:1030C000817102D481688907F2D52C21C1608168A1
:1030D000890709D4816889075CBF81685FEA8171CB
:1030E00002D481688907F2D53F21C16081688907D0
:1030F00009D4816889075CBF81685FEA817102D465
:1031000081688907F2D54421C1608168890709D4A3
:10311000816889075CBF81685FEA817102D4816838
:103120008907F2D55121C1608168890709D4816876
:1031300089075CBF81685FEA817102D48168890771
:10314000F2D52F21C1608168890709D48168890778
:103150005CBF81685FEA817102D481688907F2D51A
:103160001F21C1608168890709D4816889075CBF14
:1031700081685FEA817102D481688907F2D51F21D5
:10318000C1608168890709D4816889075CBF81684B
:103190005FEA817102D481688907F2D52021C1607C
:1031A0008168890709D4816889075CBF81685FEA03
:1031B000817102D481688907F2D52321C1608168B9
:1031C000890709D4816889075CBF81685FEA8171DA
:1031D00002D481688907F2D58168090609D581681A
:1031E000090644BF81685FEA016102D5816809066A
:1031F000F2D440464FF400510022FEF7B9F930688E
:103200002121C160816889070AD4816889075CBF70
:1032100081685FEA817103D481688907F2D500BFB4
:103220008168090609D58168090644BF81685FEA9B
:10323000016102D581680906F2D440464FF400517D
:103240000122FEF795F930688168090609D5816881
:10325000090644BF81685FEA016102D581680906F9
:10326000F2D440464FF400510022FEF781F9306855
:103270001121C160816889070AD4816889075CBF10
:1032800081685FEA817103D481688907F2D500BF44
:103290008168090609D58168090644BF81685FEA2B
:1032A000016102D581680906F2D440464FF400510D
:1032B0000122FEF75DF97820FEF76EF8306881682C
:1032C000090609D58168090644BF81685FEA016182
:1032D00002D581680906F2D440464FF4005100221D
:1032E000FEF746F930682921C1608168890709D451
:1032F000816889075CBF81685FEA817102D4816857
:103300008907F2D58168090609D58168090644BF95
:1033100081685FEA016102D581680906F2D44046FE
:103320004FF400510122FEF723F930688168090645
:1033300009D58168090644BF81685FEA016102D549
:1033400081680906F2D44FF4004140F2081748F8AA
:103350000510C2F20007002179744FF0004148F8CF
:1033600005108168090609D58168090644BF81688E
:103370005FEA016102D581680906F2D440464FF444
:1033800000510022FEF7F4F830683621C1608168F0
:10339000890709D4816889075CBF81685FEA817108
:1033A00002D481688907F2D58168090609D5816848
:1033B000090644BF81685FEA016102D58168090698
:1033C000F2D440464FF400510122FEF7D1F83068A4
:1033D0007021C1608168890709D4816889075CBF51
:1033E00081685FEA817102D481688907F2D514216E
:1033F000F98240F21811C0F2F001C7F8121081688A
:10340000090609D58168090644BF81685FEA016140
:1034100002D581680906F2D44FF4004048F805004F
:1034200000204FF6FF71C7E90210002140F2171289
:10343000EF23FEF7E7FE30684FF6BF7201681140D8
:103440000160016841F400610160016841F04001E0
:1034500001604FF0004148F80510798ABA8A02FBF2
:1034600001F32BB3F968042B03F0030250D2FAB135
:10347000C16083689B0709D483689B075CBF83682E
:103480005FEA837302D483689B07F2D5012A0FD0C9
:10349000C16083689B0709D483689B075CBF83680E
:1034A0005FEA837302D483689B07F2D5022A71D145
:1034B0008168090609D58168090644BF81685FEA09
:1034C000016102D581680906F2D44FF4004148F841
:1034D000051001684FF6BF721140016001684FF29C
:1034E000FF72114001600168012241F0400101605A
:1034F00040F26000C2F2000038600020387440469C
:103500004FF48051FEF734F807B0BDE8F08300BFF8
:1035100023F00303002602E004369E42A7D0C160D8
:103520008468A4070AD48468A4075CBF84685FEA3F
:10353000847403D48468A407F2D500BFC160846892
:10354000A40709D48468A4075CBF84685FEA847414
:1035500002D48468A407F2D5C1608468A40709D4A2
:103560008468A4075CBF84685FEA847402D48468BA
:10357000A407F2D5C1608468A407CDD48468A407E9
:103580005CBF84685FEA8474C6D48468A407F2D5FB
:10359000C2E700BFC160816889073FF589AF8168D4
:1035A00089075CBF81685FEA81713FF581AF8168FF
:1035B0008907F0D57CE7000070470000FDF7E4BF05
:1035C000B0B592B0002443F64000CDE90A44CDE9FD
:1035D00008440594CDE90344CDE901440094C4F2C4
:1035E00002000168022541F080510160006800F08E
:1035F00080500090009847F200000094C4F2000050
:10360000016841F4804101600068A82100F4804015
:1036100000900098012006904FF4803007904FF4FE
:1036200080000D9004200E90119006A80C95CDE915
:103630000F15FEF749F918B172B600BFFEE700BFDB
:103640000F20CDE901054FF4A05004904FF48050B5
:10365000059001A805210394FEF74EF810B172B64B
:10366000FEE700BF12B0B0BD4EF68850CEF20000AB
:10367000016841F4700101607047000040F2F010F1
:10368000C2F20000FEF7AABC10B540F6FF3E036888
:10369000C4F2000E40F2004C7045C4F2010C27DC6D
:1036A000B0F1804F31D040F20042C4F200029042AB
:1036B0002BD040F60002C4F20002904225D041F621
:1036C000FF72C4F20002904229DC70453CDCB0F18C
:1036D000804F5FD040F20042C4F20002904259D0C5
:1036E00040F60002C4F20002904253D056E000BF00
:1036F00040F60042C4F20002904206D0604504D079
:103700000022C4F201029042D9D14A6823F070032A
:10371000134341F6FF72C4F200029042D5DD43F636
:10372000FF72C4F20102904222DC42F20002C4F2B3
:10373000000290422ED00022C4F20102904229D011
:10374000604527D02AE000BF40F60042C4F20002E4
:1037500090421FD041F60002C4F20002904219D0FC
:1037600041F60042C4F20002904213D016E000BFBE
:1037700044F20002C4F2010290420BD044F600026F
:10378000C4F20102904205D044F20042C4F20102A8
:10379000904203D1CA6823F44073134323F080029C
:1037A0004B69D1F800E08C681A430260C46240F4AF
:1037B0008062C0F828E0624504BF09690163012105
:1037C00041610169C90708BF10BD016921F001010C
:1037D000016110BDFEE70000B0B540F23825C2F22D
:1037E000000505F1AC042046582101F0BDF846F271
:1037F000F150C0F60000212100222AF077FEC5F822
:10380000A800012085F8A400204601F07BF80146BD
:10381000D5F8A80031B12AF0ABFF0020A5F8A4002C
:10382000B0BD00BF2AF090FF0020A5F8A400B0BDF5
:103830002DE9F04F0C6893689C420EDC8D68166889
:10384000B5420ADBD1F804E0D2F80C90CE4504DC96
:10385000D1F80CC05768BC4504DAFF2358B2BDE864
:10386000F08F00BFB442A8BFBE450FDA7745ACEB7E
:103870000E0813DDC0E9004EC0E90257D2F80C90E3
:10388000D1F804E0D1F80CC0012308E09D42EDDC42
:10389000CC45EBDC002358B2BDE8F08F0023A8EB49
:1038A00009067644012E17DBE14515DAD1F800B0A0
:1038B00000EB03160EEB080C1F0106F1040ED1F805
:1038C00008A040F807B08EE80016D1F804E0D1F85F
:1038D0000CC0D2F80C90013356682C1B7645C8BF3B
:1038E000B646E145B8BFCC460E68F4450EDD156816
:1038F000B5420BDD00EB03174FEA031840F80860F0
:10390000C7E901E5C7F80CC00E6801339168621A77
:103910003244012A09DB321900EB03141D01013383
:103920004151C4E901E2C4F80CC058B2BDE8F08FBF
:1039300070B5034691E8015092E87000C968A04252
:10394000D268C8BF0446AC45C8BF6546B645B8BFD7
:1039500076469142B8BF0A460020B4424FF00001BB
:1039600083E87000D8BF01219542D8BF01200840EC
:10397000DA6070BD2DE9F04383B00C460768096832
:103980008F4231DB466861688E422DDBD0F80890AB
:10399000A168894528DCD0F80C80E068804523DCEC
:1039A00015462AB301A920462A46CDE9017600F042
:1039B0007BF8C8B101A920462A46CDE9019600F05E
:1039C00073F888B101A920462A46CDE9017800F0B4
:1039D0006BF848B101A920462A46CDE9019800F0CC
:1039E00063F803B0BDE8F083002003B0BDE8F083C6
:1039F000012003B0BDE8F08302688B689A420DDCB9
:103A000082680B689A4209DB4268CB689A4205DCFF
:103A1000C06849688842A4BF0120704700207047F1
:103A20002DE9F04383B00C46866809688E420DDBB1
:103A3000C76861688F4209DBD0F80080A1688845BB
:103A400004DCD0F80490E068814503DD012003B078
:103A5000BDE8F0831546BAB101A920462A46CDE952
:103A6000018900F021F878B901A920462A46CDE95C
:103A7000016900F019F838B901A920462A46CDE9B4
:103A8000018700F011F818B1002003B0BDE8F08301
:103A900001A920462A46CDE9016700F005F880F02B
:103AA000010003B0BDE8F0832DE9F0410B68056823
:103AB000AB420BDBD0F808C0634507DC4968D0F89F
:103AC00004E0714502DBC468A14203DD0020BDE8CB
:103AD000F08100BF012A2FDBACEB0500013000EBC9
:103AE000D076A4EB0E00013000EBD0774FEA6608E9
:103AF0007810B8EB670FB8BF70109042A8BF10469F
:103B00004619B34200EB0E02D8BF914218DDB34212
:103B1000A4EB00051CDCA9421ADB9A1B031B194409
:103B200000FB00F302FB02F001FB010100209942BF
:103B300098BF0120BDE8F0810120BDE8F08100BF01
:103B40009B1B891A00FB00F203FB03F01DE000BF82
:103B5000ACEB0004A342BCBF0120BDE8F081A94248
:103B60001CDA9142C4BF0120BDE8F081201AACEB01
:103B7000000202EBD27200EB62005710181A0EEB33
:103B80006202891A07FB07F2404301FB0101002092
:103B9000914298BF0120BDE8F08100BF221AACEB32
:103BA000020707EBD77702EB67029A1A05EB670368
:103BB000C01A084452437E1000FB002206FB06F1A7
:103BC00000208A4298BF0120BDE8F08170B591E8DD
:103BD000085092E87000C968A342D268B8BF1C467A
:103BE000AC45B8BF6546B645C8BF76469142C8BF2A
:103BF0000A4680E87000C26070BD00002DE9F04FF9
:103C00009BB008B1C06801E00DF08EF840F2382B8F
:103C1000C2F2000B0028CBF8100000F04E83416A7E
:103C2000002900F04A830A69002A00F04683C96827
:103C3000002900F04283342100220DF03DF9DBF829
:103C40001000D0F8B00225F091FEDBF81010D1F88A
:103C5000B40218B125F08AFEDBF81010D1F8BC02CE
:103C600025F084FEDBF81000D0F8C00225F07EFEBF
:103C7000DBF81000D0F8C40225F078FEDBF8104025
:103C8000D4F8B002002800F00D83D4F85C020028BC
:103C90005AD000270DF12C094FF0010805E000BFB4
:103CA000D4F85C02013787424ED2E01990F83C020A
:103CB0000028F5D100253C2607E000BFD4F85C02BF
:103CC0000135854206F11006EAD2AF42F6D06019FE
:103CD00090F83C020028F1D104EB07103C30A11908
:103CE000FFF78AFEDBF810400028E7D004EB07104E
:103CF00000F13C01A2194846FFF768FF484609F069
:103D000069FCDBF81010824601EB07103C3009F02B
:103D100061FCDBF810100446881909F05BFC2044B4
:103D2000DBF810408245C9D20DF12C0C04EB0710D2
:103D30009CE80E103C3080E80E10601980F83C8240
:103D4000DBF81040BAE700BF94F83900012840F0D2
:103D5000DD8020460DF098F8DBF81040002800F0D8
:103D6000D58004F5197000F06BFEDBF810400028D8
:103D700040F0CC8020463A2100220DF09DF8E16A07
:103D8000002900F08F80204688470020606320468D
:103D90003B2100220DF090F8DBF81000C569446A61
:103DA000AC4208BF056A0CF0D1FFDBF8101080466A
:103DB00008460DF053F80BAE074630464021FCF79D
:103DC00007FDDBF81000CDE90454D0F85C12CDE912
:103DD000027800296AD0A6F110014FF0000A4FF0D6
:103DE000000906910AE000BFDBF8100009F10109A3
:103DF000D0F85C121FFA89FA514557D900EB0A0135
:103E000091F83C120029EFD100F5197000F07AFD0D
:103E10000028E9D007460CE0DBF81000394600F531
:103E2000197000F017FE38461BF0B4FB002C274633
:103E3000DAD0DBF81000394600F5197000F086FD85
:103E4000DBF81010044601EB0A1000F13C0230468A
:103E50003946FFF7EDFC411CE8D00128DCDBDDF83A
:103E60001880C5B2DBF81000394600F5197000F073
:103E70009DFD58F8101F013D016008F104030ECBB1
:103E8000C360C0E90112EDD1C6E700BF206B002876
:103E90003FF47BAF206B00283FF477AF206B002806
:103EA0003FF473AF206B0028F0D16EE70021CDE91D
:103EB0000711039900F51970013909910299013927
:103EC0000A9100F01FFDDDE90475B0B1044607AEAC
:103ED000204621463246FFF72BFD284621463A462A
:103EE00023460DF03DFCDBF81000214600F519706B
:103EF00000F02CFD04460028EAD1DBF81000002178
:103F000000F5197000F0C4FCDBF81040D4F85C0236
:103F1000002800F0CA8104F50E710438C71C13D4C0
:103F20000A18D3798BB1871C0ED493796BB1471CD7
:103F30000AD453794BB1002806D412790438002AE8
:103F4000ECD1071D01E000BF0027204636210022EA
:103F50000CF0B2FFDBF8100090F8381090F83A201F
:103F600001F0FE0180F8381090F8381042F002029B
:103F700001F0FD0180F83810D0F85C1280F83A208A
:103F80000129C0F241810DF12C094FF0000A04977C
:103F90001EE000BF90F8381090F8382001F00101C1
:103FA00002F0FD0242EA410180F83810069B0FCB77
:103FB00005F1180C8CE80F0028462BF089FDDBF882
:103FC00010000AF1010AD0F85C128A4580F21A81C9
:103FD00000EB0A0191F83C120029F0D1BA4505D155
:103FE00090F8381041F0010180F8381090F838103E
:103FF00000EB0A1201F0FD0180F83810D0F8A05251
:10400000416A296090F83910002902F13C010691BB
:104010003ED00021C5E901110CF098FE0138E8609E
:10402000DBF810000CF01AFFD5E90042D5E9026375
:10403000411E2961297D9A1A0132831B20460026E0
:1040400000960EF0E3F8002800F0D880DBF81000AE
:104050000CF07CFEDBF81010461E08460CF0FEFE4D
:10406000441E4846002100223346009409F0E8FA35
:10407000DBF8100090F8391001298BD002299ED16D
:1040800090F838104B4641F0020180F838108EE766
:10409000D1E90084D1E902960F460CF0DFFE86429A
:1040A00002DAF86805E000BFDBF810000CF0D6FE7D
:1040B0000138DBF81070059097F83B000CF078FBA6
:1040C0000028A9EB08000CBF97F83B101021013025
:1040D000321B561C0EF0E8F8796A0DF12C09C968FC
:1040E000B1FBF0F0B042B8BF0646002037460D9055
:1040F000CDE90B00DBF810007C1E30214A460E94FF
:104100000CF0DAFE0C990E98411A0131B14203DD30
:10411000012F2746EEDC00E03C46069B0026D3F844
:1041200004C0002CC8BF461C0CEB0600059C0138DF
:10413000A0424FF0000839DCACF10109A71B09E0EF
:1041400028462BF0C5FC059C06EB0800069BA04208
:10415000C14627DCDBF810001A68406A9B6809F149
:10416000010105F1080C06EB0908C5E900028CE81D
:104170000A01C5E90621297D9A1AC5E908380132E4
:104180003346002400940EF041F8A8B34F45D7D130
:10419000DBF8100090F8381041F0020180F8381078
:1041A000CEE700BF08F1010C0DF12C09049F444536
:1041B0003FF405AFDBF810001A68406A9E6885E896
:1041C0000510C5E9062C297DB21AA4EB0C03C5E93C
:1041D0000364C5E9086401320133002600960EF03D
:1041E00015F868B1DBF8100090F8381041F00201C2
:1041F00080F83810E0E600BFFEE700BFFEE700BF32
:10420000FEE700BF90F83A2002F0FD02002980F896
:104210003A204AD0372100220CF04EFEDBF8100085
:104220000CF032FE0146DBF8100059B390F839105B
:10423000012927D134F018FBDBF81000D0F85C120C
:1042400001B300243C2506E0D0F85C1201348C4216
:1042500005F1100516D2011991F83C120029F3D18D
:1042600000F5197000F0D2FBDBF810104A59294410
:104270000260CB68D1E90121C360C0E90121DBF80C
:104280001000E1E73C3000214FF400721FF072F99A
:10429000DBF81000002100F50F7020221FF06AF9F2
:1042A000DBF810400020C4F85C0200F057F9DBF89E
:1042B0001000352100220CF0FFFD1BB0BDE8F08F8F
:1042C000B0B540F23824C2F2000404F1C800002165
:1042D000142200251FF04EF946F6A53048F6AD032E
:1042E000C0F6000046F6A13146F69532C0F603034B
:1042F00004F1C80CC0F60001C0F600028CE82700EB
:10430000C4F8D830B0BD0000002B08BF70472DE9BD
:10431000F0479AB00D469A46D5E90B3417468146C8
:10432000D2E90010D2E90262002BCDE916101896EE
:10433000199208BFB4F5807F3CD0101A421CA88E99
:10434000711AA4B2013105F14006CDE9004016A86A
:10435000029600F073F916AED7E900014CCE199C15
:104360000244304416925A18189060181792199007
:10437000D9F808200DF1480816A94046FFF7D8FAE9
:10438000A0B1E96903A800221BF050FE01280DD15D
:10439000CDE9007803AF484629463A460023CDF8D8
:1043A00008A007F03BFA38461BF00AFE1AB0BDE839
:1043B000F04770476C6BB4F5807FD9D04FF48074B0
:1043C000BBE700002DE9F04FB3B0089373B30D467F
:1043D000C9691446064615A800221BF027FE0128CD
:1043E00024D1A98CE2680795EF8C0D4694E80B0068
:1043F000149211AA11AC0BC22046294609F02CF9DF
:1044000020463946049709F021F90121CEF2000136
:10441000B26810911298D368DDF844C098420F91A9
:10442000CDE90D1106DD15A81BF0CAFD33B0BDE8BE
:10443000F08F00BF079909AF4831059105EB0C01DA
:10444000A1F1010E15AC0DF1B0090DF1340A0DF119
:10445000A0080DF1900B0695CDE902EC10E000BF2D
:104460001298DDE902EC049B149918441944149144
:10447000D16812908842CDF844C0CDF84CE0D2DC2F
:1044800091688C4514DDEEE711AD0799CDE9005731
:10449000089D3046224630ABA847069D1398B26867
:1044A0002844119913909068294481421191D7DCD6
:1044B000384611A9FFF73CFA0028EFD00599887813
:1044C0008DF8C20008881D99ADF8C0003191BDF883
:1044D00078001C996FF35F20ADF8C80029B10D98E2
:1044E0000121CEF200018842CED00C9A09AB0BCB51
:1044F0002F922CAA0BC2DDE91102414252424846DA
:1045000009F08EF80120CEF20000CDE90D00CDE9D2
:104510000F0000BF2046494652461BF06DFD109A21
:104520000DAB05460BCB2B92CDE92913DDE911121A
:104530002890404609F074F8012DAED1584639460E
:104540004246FFF7F5F90028E4D00799089D304668
:10455000224630ABCDE9008BA847DBE710B540F22F
:104560003824C2F20004D4F8FC00002818BF1BF065
:1045700011F804F1FC0000211C221EF0FBFFD4F80E
:104580001801002818BF1BF005F804F58C700021F5
:104590001C221EF0EFFFD4F83401002818BF1AF0D7
:1045A000F9FF04F59A7000211C221EF0E3FFD4F8F5
:1045B0005001002818BF1AF0EDFF04F5A870002183
:1045C0001C22BDE810401EF0D5BF000040F238218B
:1045D000C2F20001C96E04E00A7E42F001020A76CE
:1045E0004969002908BF70474A688242F4D00A68C6
:1045F0008242F5D1F0E70000406940F23821C2F272
:104600000001C8667047000040F23821C2F2000184
:10461000CA6EC8664261704740F23820C2F200009C
:1046200000F5C870042100F09FB9000040F2382066
:10463000C2F200003430202100F096B92DE9F04F8D
:104640008BB0DDE914761D468346002B4FF0000346
:1046500008BFB7F5807F63D003A8169CCDE903336C
:10466000CDE90513CDE9073200F118030293CDE936
:1046700009124FF0010829463A46334600F108096D
:1046800000F1100ACDE9004825F0B8FD484629465A
:104690003A463346CDE9004825F0B0FD504629465C
:1046A0003A463346CDE9004825F0A8FD0298294650
:1046B0003A463346CDE9004825F0A0FDDDE9032C5C
:1046C000DDE90567079C0999B2423546B8BF154632
:1046D0008C420B46B8BF23469D42B8BF2B46B24220
:1046E000C8BF16468C42C8BF21468E42C8BF31465D
:1046F000089D0A9ABC453846B8BF604695421646A2
:10470000B8BF2E46B042B8BF0646BC45C8BF6746D4
:104710009542C8BF2A469742C8BF3A4604E000BF48
:10472000B6F5807F98D10026501E0139CBE90036BE
:10473000CBE902100BB0BDE8F08F000040F238204A
:10474000C2F20000DC30182100F00EB970B588B05C
:1047500004460D4620B90CF0E7FA0446002866D05E
:1047600020460CF097FB002861D094F83A008007AF
:1047700020D4002005B3CDE9040020460CF0E6FA71
:104780000138069020460CF069FB01380790684616
:1047900004AA2946FFF7CCF8002848D094F839003D
:1047A00002280DD104AB0FCB04F13C0C8CE80F00B8
:1047B000012035E0FEE700BFC4F85C0208B070BD20
:1047C0006A46204630210CF077FB01282FD1D4F81F
:1047D0005C02A8B100216D46002604EB011000F137
:1047E0003C0128460022FFF7C5F800BB0136D4F88B
:1047F0005C02B1B28842F0D8202805D304A900E0B9
:104800006946002001E000BF6946D1E90036D1E9E0
:10481000025104EB00120130C2E90F36C2E9115116
:10482000C4F85C022046332100220CF045FB08B09E
:1048300070BD000010B500211622044622F0F0F8E9
:1048400040F23821C2F200018A6D4FF0FF3353FA73
:1048500080F3934228BF10BDCA6DC0B202EBC00105
:10486000496852F830202046BDE81040104700004B
:1048700010B540F23824C2F20004A06DC0001EF052
:1048800003FAE0651AF0FCFBBDE810401BF09AB992
:10489000F0B581B060B1456804464DB10E4649B1EE
:1048A0002068284447682846B047002F3D46F7D186
:1048B00001B0F0BD002708E0002BA3600CBF6760CB
:1048C0009F501AF067FE002DF2D0D4E9001328465D
:1048D0000A1DAD58834209D0A66843588642EBD0E2
:1048E000002B18BF9D503DB16B50EAE765600DB1DC
:1048F0006F50E6E70021A16001B0BDE8F0401AF07A
:1049000049BE0000002814BF406800207047000026
:10491000D0B14268C2B10068011D03205258002A7C
:1049200004BF023870475258002A04BF013870474C
:104930005258002A08BF704752580430002A04BF5A
:1049400003387047EAE700BF00207047006808445A
:10495000406870470068085870470000002814BF7E
:1049600080680020704700000331002221F003011D
:10497000C0E900128260704710B504460068083034
:104980001EF082F9002808BF10BD216800224250A5
:10499000626843185A606268002A18BF5050A168C4
:1049A0006060002908BFA06010BD000070B504461B
:1049B00000284FF0000012D00D4681B1D4E9000666
:1049C00008301EF061F9AE420AD0E8B121686A5899
:1049D0000B1D002A18BFD05042506850C55070BD02
:1049E0004FF0000280B121684250626843185A605B
:1049F0006268002A18BF5050A1686060002918BF83
:104A000070BDA06070BD00BF002070BD10B5044631
:104A1000006808301EF038F9002808BF10BD226871
:104A20000023111D4350A3688350A268002A18BFB9
:104A300050506168A060002908BF606010BD000090
:104A400030B1416809B9806810B10020704700BFDB
:104A50000120704780B5002808BF80BD42688A42A7
:104A600014D0D0F800E0826851F80E308A4219D094
:104A70000EF1040C51F80C00002B18BF43F80C0089
:104A8000002818BF40F80E3080BD00BF02681144F6
:104A900049680029416007BF0021816000208850DB
:104AA00080BD00BF0021002B836018BF0EEB030008
:104AB000416080BD10B50446006804E0006800282D
:104AC00008BF10BD20608268002AF7D021469047B9
:104AD0002068F3E78068002814BF406A0020704710
:104AE000806800280EBF0020408DC0F381207047F1
:104AF0002DE9F04383B090460028154648D006467D
:104B0000008D894601430020019001AB30466122AF
:104B100005F0C2FB012803D1019C0CBB38E000BFAB
:104B20004AF24440C0F6030090F86100C00712D07A
:104B300019F47F0F344601D1746864B101AF00BF2E
:104B4000218D204661223B4605F0A6FB0128E3D0DB
:104B50006468002CF4D1612027F0C0F90446BCB190
:104B60002068A8B1308D02AB40EA09010020029014
:104B70003046622205F090FB012811D1029801060F
:104B800006D0236828F07F41C2B2204698470546E8
:104B90004FEA186060F31F65284603B0BDE8F08354
:104BA0004AF24440C0F6030090F86200C00710D0FB
:104BB00019F47F0F01D176685EB102AF318D3046B6
:104BC00062223B4605F068FB0128D7D07668002EAC
:104BD000F4D1622027F082F90106D2D1D8E7000093
:104BE0002DE9F04F97B00546408D209F40F008001A
:104BF00068852A853E7A42EA010800209B461446D1
:104C00008946019001AB28464146324605F04EFDEB
:104C100010B1019E04E000BF304627F05FF9064660
:104C2000A5F828B03F7A00204BEA0901019001ABBA
:104C300028463A4605F03AFD10B1DDF804A003E03D
:104C4000384627F04BF98246688D209F20F00800F7
:104C50005645688504D103D117B0BDE8F08F00BF79
:104C60002C853C7A0020019001AB28464146224623
:104C700005F01CFD10B1DDF8048003E0204627F0AC
:104C80002DF9804628464946A5F828B005F07AFD5A
:104C90000068397A424627F06DFA387A0C281DD11F
:104CA00047F6FF74A24518BFA04517D1284621F04A
:104CB0007DFF00EBD076284620F0B2FF00EBD070ED
:104CC000012101EB660201EB60008242B8BF104691
:104CD000A04508BF8046A24508BF824640F2382062
:104CE000C2F200001830FFF747FEB8B3C0E9038AEC
:104CF00005600646387A01AC30712046C6F8089047
:104D000007F030FD47F26540C0F60300029047F21D
:104D10003570C0F60300049047F27960C0F60300D6
:104D2000059000200A904FF000400B90FF200C905F
:104D3000388879880D9048420E90D7E903019DF894
:104D40005220099002F0FE008DF852002046019694
:104D5000089107F0BBFD17B0BDE8F08FFEE700003B
:104D600040F23820C2F2000018301421FFF7FCBDD9
:104D70002DE9F04F81B00446408D10F47C7F00F0A7
:104D800025816FEA01086FEA020900276D464FF09E
:104D9000020B4FF0000A08E00227608D0AF1010AB9
:104DA000C0F305118A4580F00C81E16801EBCA026D
:104DB00052689301F2D492B212EA080302EA09029D
:104DC000B2FA82F24FEA521218BF01235340E5D1E2
:104DD00051F83A60102130462A4627F015F800288D
:104DE00040F0EE80304611212A4627F00DF80028C9
:104DF00040F0E680304612212A4627F005F80028C8
:104E000040F0DE80304613212A4626F0FDFF0028C0
:104E100040F0D680304615212A4626F0F5FF0028BE
:104E200040F0CE80304614212A4626F0EDFF0028BF
:104E300040F0C680304616212A4626F0E5FF0028BD
:104E400040F0BE8030466A212A4626F0DDFF002869
:104E500040F0B68030466B212A4626F0D5FF002868
:104E600040F0AE80304601212A4626F0CDFF0028D2
:104E700040F0A680304602212A4626F0C5FF0028D1
:104E800040F09E80304604212A4626F0BDFF0028CF
:104E900040F09680304605212A4626F0B5FF0028CE
:104EA00040F08E80304606212A4626F0ADFF0028CD
:104EB00040F08680304607212A4626F0A5FF0028CC
:104EC0007ED1304630212A4626F09EFF002877D139
:104ED000304668212A4626F097FF00287FF45CAF11
:104EE000304669212A4626F08FFF00287FF454AF10
:104EF00030466E212A4626F087FF00287FF44CAF0B
:104F000030466C212A4626F07FFF00287FF444AF0C
:104F100030466D212A4626F077FF00287FF43CAF0B
:104F200030463A212A4626F06FFF00287FF434AF3E
:104F300030463B212A4626F067FF00287FF42CAF3D
:104F4000304638212A4626F05FFF00287FF424AF40
:104F500030463C212A4626F057FF00287FF41CAF3C
:104F600030463E212A4626F04FFF00287FF414AF3A
:104F7000304640212A4626F047FF00287FF40CAF38
:104F8000304641212A4626F03FFF00287FF404AF37
:104F9000304642212A4626F037FF00287FF4FCAE37
:104FA000304648212A4626F02FFFFFB2012F4FF04E
:104FB000010198BF0F46002818BF5F46EDE600BF0D
:104FC0000327F8B201B0BDE8F08F00BF0027F8B2A8
:104FD00001B0BDE8F08F000090B170B582B004461A
:104FE000018D0020019001AB20466E2205F054F99E
:104FF000012807D10198002840F0CA801FE000BFB7
:10500000FEE700BF4AF24440C0F6030090F86E008D
:10501000C0070ED0656865B101AE00BF298D284676
:105020006E22334605F038F90128E3D06D68002D73
:10503000F4D16E2026F052FF002840F0A980218D87
:105040000020019001AB20466C2205F025F90128D3
:1050500006D10198B0F5807F40F09A801DE000BF36
:105060004AF24440C0F6030090F86C00C0070ED02E
:10507000656865B101AE00BF298D28466C223346B4
:1050800005F00AF90128E4D06D68002DF4D16C20F8
:1050900026F024FFB0F5807F7AD1218D0020019089
:1050A00001AB20466D2205F0F7F8012804D10198E4
:1050B000B0F5807F6CD11CE04AF24440C0F603009A
:1050C00090F86D00C0070ED0656865B101AE00BFF5
:1050D000298D28466D22334605F0DEF80128E6D0FA
:1050E0006D68002DF4D16D2026F0F8FEB0F5807FBC
:1050F0004ED1218D0020019001AB2046712205F098
:10510000CBF8012804D10198002841D11AE000BF52
:105110004AF24440C0F6030090F87100C0070DD079
:1051200065685DB101AE298D28467122334605F0D0
:10513000B3F80128E7D06D68002DF4D1712026F076
:10514000CDFE28BB218D0020019001AB20467222AC
:1051500005F0A2F8012801D1019818E04AF2444074
:10516000C0F6030090F87200C0070DD065685DB10D
:1051700001AE298D28467222334605F08DF80128AC
:10518000EAD06D68002DF4D1722026F0A7FE78B128
:105190000225A06820B94DB120461FF019FBA06878
:1051A000418D21F4406141EA8521418502B070BD05
:1051B000218D0020019001AB2046602205F06CF8A3
:1051C000012803D19DF8040019E000BF4AF24440D1
:1051D000C0F6030090F86000C0070DD065685DB1AF
:1051E00001AE298D28466022334605F055F8012886
:1051F000E8D06D68002DF4D1602026F06FFEC0B2BB
:10520000FF2825D1218D0020019001AB204673227B
:1052100005F042F8012801D1019818E04AF2444013
:10522000C0F6030090F87300C0070DD065685DB14B
:1052300001AE298D28467322334605F02DF801284A
:10524000EAD06D68002DF4D1732026F047FE08B136
:1052500001259EE7218D0020019001AB20466722A9
:1052600005F01AF8012803D19DF8040019E000BFE9
:105270004AF24440C0F6030090F86700C0070DD022
:1052800065685DB101AE298D28466722334605F079
:1052900003F80128E8D06D68002DF4D1672026F0CE
:1052A0001DFEC5B2002D18BF012572E740F238205F
:1052B000C2F200000069704770470000FF2804BF79
:1052C0003F20704710B90020704700BF8C2805D8D8
:1052D0004AF24441C0F60301085C704740F23822AC
:1052E000C2F20002116B0029EDD07330926AC0B295
:1052F000824284BF085C7047E5E7000070B540F269
:10530000201440F23826C2F20004C2F2000604F172
:105310001C0506F5D070294627F05AF84FF27D702B
:10532000C0F602004FF496712A4629F0DFF8C6F85D
:10533000C00106F5E470214627F04AF84EF6DD700C
:10534000C0F602004FF49671224629F0CFF8C6F855
:10535000E80170BD002808BF70472DE9F0411646EE
:1053600004460D4626F036FD40F27008C2F20008F1
:10537000D8F800200746204629469047D8F8002054
:105380000546204431469047391A8D4202D9BDE87E
:10539000F0417047204400BF425D6B1C8B42625558
:1053A000F5D843195F78AE1C62198E425770EED85B
:1053B0009F78EE1C8E429770E9D8DB7804358D42D9
:1053C000D370E9D9E3E700002DE9F04140F2080885
:1053D000C2F200081446D8F804200F4619461D46AC
:1053E00006469047386048B12868D8F80420304411
:1053F000002190472060BDE8F08100BF00202060C0
:10540000BDE8F0812DE9F04F8DB0DDF858800446FD
:10541000B8F1000F1D460E461CBF0020C8F8000062
:10542000A4B3002E4FF0000000F0F4812178002991
:1054300000F0F081179883072CD00020012242F25F
:10544000014301E0397904300D2904D802FA01F74B
:105450001F4240F0B281271879780D2904D802FA4A
:1054600001F61E4240F0A681B9780D2904D802FA4F
:1054700001F61E4240F0A081F9780D29E2D802FA27
:1054800001F61E42DED0033097E100BF00200DB0D0
:10549000BDE8F08F0021012D0A91C0F2A781C0075D
:1054A000CDE90626029021464FF00009002601941E
:1054B00002980028284618BF6FF06040089040F21C
:1054C0000800C2F20000426800200C9009910846D2
:1054D0000CA990470746A05D0C9900280B9100F09D
:1054E0002981099805954FF0FF334FF0000B0025F7
:1054F0004FF0000C4FF0000A0BACCDE9036940F20D
:105500000801C2F200014A68214698466646904763
:105510008146079839464A4619F0C0FF069AB446B4
:10552000B118002818BF01EB000C0899ACEB020081
:1055300088425346D8BF4FF0FF3318F10101A7F15D
:105540000A0118BF4346732900F27680DFE811F0A4
:10555000DE0074007400DE007400740074007400D7
:10556000740074007400740074007400740074009B
:10557000740074007400740074007400DE00740021
:105580007400740074007400740074007400DE0011
:1055900074007400DE00DE00DE007400740074002D
:1055A000740074007400740074007400740074005B
:1055B000DE00DE0074007400740074007400740077
:1055C000740074007400740074007400740074003B
:1055D000740074007400740074007400740074002B
:1055E000740074007400740074007400740074001B
:1055F000740074007400DE007400DE007400740037
:1056000074007400740074007400740074007400FA
:1056100074007400740074007400740074007400EA
:1056200074007400740074007400740074007400DA
:10563000740074007400DE00B9F1000F2BD04FF637
:105640003061A9EB01012029C0F08C8029F00F0105
:105650004FF61062914200F08580A9F54151C029B2
:10566000C0F08080A9F5475130297BD329F07F0114
:10567000B1F53A5F76D029F03F01B1F5405F71D0C6
:10568000A9F59C41B1F5A44F6CD34FF60171A9EB7C
:1056900001015E2966D32FB340F6E171B1EB171F0C
:1056A00060D0A7F54151C0295CD3A7F547513029F7
:1056B00058D327F07F01B1F53A5F53D027F03F016F
:1056C000B1F5405F4ED0A7F59C41B1F5A44F49D349
:1056D0004FF60171791A5E2944D34FF63061791A79
:1056E0001F293FD9591C08BFE346DDE90B1A099869
:1056F0000C9110F80A10013500294F467FF4FFAED7
:10570000DC464F46591C1CD131E000BFBAF1000FF6
:1057100014D1591C12D1002365B3B9F10A0F19D164
:10572000DDF85880019C059DDDE903690D2F08BF58
:105730000C9B27E00C9B4FF0000C23E0DC46591C2F
:1057400015D0039EDDF85880019CDDE90495CEB1AB
:1057500045E000BFDDF85880019C059DDDE9036947
:1057600010E000BFDDF830A00135591CE9D15346E7
:10577000002DD2D1DDF85880019C059DDDE903693B
:105780000C9B00BFE1443BB321781E440A290A96D2
:1057900022D00D2920D0A05D0D281BD00A2819D0B9
:1057A000D0B1A5EB0C05012D04EB0601BFF680AED0
:1057B00012E000BF013000E00230002918BF0130C4
:1057C000B8F1000F26D04FF0FF31C8F800100DB02F
:1057D000BDE8F08F01360A96002E079E06D0B8F17C
:1057E000000F18BFC8F8009013E000BF40F2080097
:1057F000C2F2000042680AA920469047B8F1000FA3
:1058000007D001463046002219F048FE8146C8F80C
:1058100000900A980DB0BDE8F08F00002DE9F04F20
:1058200083B018B315460AB382460C4626F0D2FA66
:105830008346284626F0CEFAC0B1064640F27000F4
:10584000C2F20000026850462146019506EB0B05A6
:10585000904700EB060C654502960BD2DDE901127C
:10586000504403B0BDE8F04F1DF0ECBA03B0BDE802
:10587000F08F00BF029DAAF10102A5F1030954199E
:10588000AF1E00BF02EB0B010BEB050891F801E026
:10589000A8F1010304EB0B06634586F801E0DDD3B4
:1058A00012F80BE00BEB0703634504F80BE0D5D3CC
:1058B00011F801EC0BEB0903634506F801ECCDD3BD
:1058C00011F8021C043D06F8021C0BEB0501043A1A
:1058D000A9F10409043C6145A7F10407D2D2BDE750
:1058E00070B582B004460B46CDE9001100200021BE
:1058F000224629F07FFA451C28461DF0C5F948B11B
:10590000019B29462246064629F074FA304602B029
:1059100070BD00BFFEE7000010B540F23824C2F2AF
:10592000000404F174001821FFF71EF8D4F89C104D
:10593000012084F8800000200029C4F8840008BFFA
:1059400010BDD4F8A000BDE8104008472DE9F0478D
:10595000E2B1DDF820909A4614460F46804606E0F4
:1059600064F001003044441C05EB0A0774B166087A
:1059700006FB0A7540462946C8470128F0DAB0F10F
:10598000FF3F3446F2DD2846BDE8F0870025284673
:10599000BDE8F0872DE9F04F99B00E46229946F206
:1059A000ED571C469246C0F6000700251091002EC8
:1059B00018BF074604F1020B2078A946002800F022
:1059C0000D8500BF25280FD031464A46534609F1C0
:1059D0000105B84701340BF1010B2078A9460028D6
:1059E000F0D100F0FBBC00BF109C4FF00008CDE9E7
:1059F0000D761BF8010CA0F12002102A00F27C8029
:105A00000121DFE802F00979790B797979797979DF
:105A1000790D790F79791100082105E0102103E053
:105A2000042101E0022100BF9BF8000048EA0108C0
:105A3000A0F12002102A00F2AB800121DFE802F081
:105A40000AA8A80CA8A8A8A8A8A8A80EA810A8A842
:105A5000120000BF082105E0102103E0042101E04D
:105A6000022100BF9BF8010048EA0108A0F12002D2
:105A7000102A00F2CB800121DFE812F01200C800EA
:105A8000C8001400C800C800C800C800C800C8008A
:105A9000C8001600C8001800C800C8001A0000BFDF
:105AA000082105E0102103E0042101E0022100BFEC
:105AB0009BF8020048EA0108A0F12002102A00F237
:105AC000AF800121DFE802F012ACAC14ACACACAC9E
:105AD000ACACAC16AC10ACAC0A0000BF48EA010894
