:020000040800F2
:10000000300F0020C1020008592B0008051C000811
:10001000552B0008FD110008C13B0008000000003E
:10002000000000000000000000000000FD3A000891
:1000300001120008000000005D2B0008013B0008D1
:10004000DB020008DB020008DB020008DB0200081C
:10005000DB020008DB020008DB020008DB0200080C
:10006000DB020008DB020008DB020008DB020008FC
:10007000DB020008DB020008DB020008DB020008EC
:10008000DB020008DB020008DB020008DB020008DC
:10009000DB020008DB020008DB020008DB020008CC
:1000A000DB020008DB020008DB020008DB020008BC
:1000B000DB020008DB020008DB020008DB020008AC
:1000C000DB020008DB020008DB020008DB0200089C
:1000D000DB020008DB020008DB020008DB0200088C
:1000E000DB020008DB020008DB020008DB0200087C
:1000F000DB020008DB020008DB020008DB0200086C
:10010000DB020008DB020008DB020008DB0200085B
:10011000DB020008DB020008DB020008DB0200084B
:10012000DB020008DB020008DB020008DB0200083B
:10013000DB020008DB020008DB020008DB0200082B
:10014000DB020008DB020008DB020008DB0200081B
:10015000DB020008DB020008DB020008DB0200080B
:10016000DB020008DB020008DB020008DB020008FB
:10017000DB020008DB020008DB02000800000000D0
:10018000DB020008DB02000800F002F800F088F84B
:1001900014A696E8000CB244B344DA4501D100F04D
:1001A0007FF8BAE80F000FA696E83000A5EB04052B
:1001B00004EB0607AAEB0704A7F101074FEA1515A0
:1001C0004FEA3414A4F10104AC4201D300F068F802
:1001D00013F0010F18BFFB1A43F0010300F001F800
:1001E000DBE71847509A0000709A0000103A24BFCD
:1001F00078C878C1FAD8520724BF30C830C144BF8C
:1002000004680C6070470000704700000023002461
:1002100000250026103A28BF78C1FBD8520728BF16
:1002200030C148BF0B607047662904F0DE81652944
:1002300004F0DB81672904F0D881612904F0D781BB
:10024000692900F03781642900F03481752900F0B4
:1002500031816F2900F0C881782900F0EF810368AF
:10026000DB0928BF41F08001632900F00586E329FE
:1002700000F01886002070471FB504F0A9F900F0BF
:1002800049FE04000020002104F08CF9401C60604D
:100290000020002104F070F9E0601FBD10B510BD12
:1002A00000F038FF1146FFF7E7FF03F08BFC00F08A
:1002B00056FF03B4FFF7F2FF03BC00F097FF000006
:1002C0000948804709480047FEE7FEE7FEE7FEE7EA
:1002D000FEE7FEE7FEE7FEE7FEE7FEE70448054926
:1002E000054A064B70470000AD3B00088901000835
:1002F00030090020300F0020300B0020300B002090
:1003000053EA020C00F069802DE9F04B4FF0000633
:10031000002B1FBFB3FA83F503FA05F424FA05F6A0
:100320005E4012BF1643B2FA82F502FA05F4C5F137
:1003300020051EBF22FA05FC44EA0C04203556EACB
:10034000044C4FEA144418BF641C4FF000084FF0EF
:100350000009904271EB030C39D3002919BFB1FA9F
:1003600081F701FA07F6B0FA80F700FA07F6C7F14D
:1003700020071EBF20FA07FC46EA0C062037B6FB12
:10038000F4FCA7EB0507103F07F01F0BCBF120068D
:100390002CFA06F60CFA0BFB44BFB3460026202FBE
:1003A000A4BF5E464FF0000B5BEA060C08BF4FF09F
:1003B000010B19EB0B0948EB0608ABFB027C06FBB3
:1003C00002CC0BFB03CCC01B71EB0C01C1E70B464D
:1003D000024641464846BDE8F08B13B5084318BFB6
:1003E0004FF0FF300146AFF30080BDE81C4070477E
:1003F00070B5044685690068C10601D5302600E065
:100400002026C00707D070BDD4E9012130469047AF
:10041000206A401C20626D1EF6D570BD70B5044682
:1004200085690078C00707D170BDD4E9012120207B
:100430009047206A401C20626D1EF6D570BD096889
:100440004A0501D540B27047C905FCD500B27047D6
:1004500009684A0501D5C0B27047C905FCD580B20C
:10046000704770B50C460546012A05D028788006ED
:1004700000D5EA69002302E0012305E05B1C9342FA
:1004800002D2E05C0028F9D1A869E618C01AA86178
:10049000286A184428622846FFF7AAFF04E0D5E935
:1004A000012114F8010B9047B442F8D32846FFF716
:1004B000B5FF70BD2DE9F04106460024106875298E
:1004C000314616A510D0FFF7BAFF002802DA4042E5
:1004D00013A507E031688A0701D512A502E0490794
:1004E00004D511A5012401E0FFF7B2FF00210A2283
:1004F00006F1240709E0B0FBF2FCB0FBF2F302FBCB
:100500001C00303078541846491C0028F3D123468B
:100510002A463046BDE8F04100F0BFB800000000B8
:100520002D0000002B000000200000002DE9FF5FDF
:1005300015468A460446DFF8AC80F8440027D8E91F
:1005400000103E46CDE9001010E03AF816106A4659
:1005500002A800F0B3FC411C07D02178890603D51E
:10056000E269391891420DD80744761C207880063C
:1005700002D5E069B84205DDAE42E6DB3AF8160086
:100580000028E2D1A069C01BA0612046FFF730FF20
:10059000D8E90010CDE90010002017E03AF8181053
:1005A0006A4602A800F08AFCB0F1FF3F81460BD0FA
:1005B00000250DF1080B05E0D4E901211BF8050029
:1005C00090476D1C4D45F7D308F10100B0428046BD
:1005D000E4DB206A384420622046FFF71FFFBDE8B5
:1005E000FF9F0000B640000070B504462146106829
:1005F000FFF72EFF002104F1240505E000F00702BB
:100600003032C0086A54491C0028F7D12068002302
:1006100008A2050708D500F02000084304D0E069CF
:10062000012305A2401EE0612046BDE8704000F0B5
:1006300034B80000000000003000000070B504462F
:100640000D4621461068FFF703FF2188090502D5F2
:100650000F4A7A4402E00E4A7A440E32002104F135
:10066000240305E000F00F060009965D5E54491C66
:100670000028F7D120780023000704D5702D02D080
:1006800009B1022311322046BDE8704000F005B8E0
:10069000A63F00007047704770472DE9F0470D46B0
:1006A00099469246044600F124080168880604D55C
:1006B000E06921F01001216000E00120A84201DD85
:1006C000471B00E00027A1697A1902EB0900081A0C
:1006D000A0612078C00602D42046FFF789FE0026DC
:1006E00008E0D4E901211AF806009047206A401C6E
:1006F000761C20624E45F4DB2078C0060AD52046E1
:10070000FFF776FE06E0D4E9012130209047206A09
:10071000401C2062381EA7F10107F4DC07E0D4E991
:10072000012118F805009047206A401C2062281E0D
:10073000A5F10105F3DC2046FFF770FE20780006E6
:1007400002D50220BDE8F0870120FBE72DE9FF4F2D
:100750000C461E464FF0FF378BB0D2E90001DDF8A2
:1007600060800A908A46C1F30A5505B93D460021CA
:1007700008464FF00000BAF1000F00F4400005DA1F
:1007800000EB80004FF4400101EA50004FEA90591D
:10079000B9F1010F00DDB9460A9850EA4A000ED0BF
:1007A00044F61050A5F2FF3545432F14B8F1000F61
:1007B0001ED07542291E1EDDC9F100021CE0B8F1F1
:1007C000010F4FF0000001D0302103E0F24305E0BB
:1007D0002154401CB042FBDB304600220021215452
:1007E0000B99C1F80880C1E900200FB0BDE8F08F77
:1007F000BD1B6D1CDEE74A4600DA694206A800F020
:1008000013FC06AB93E8070003AB83E807005046F0
:100810000A9903F0D1FA8DE80700A0F500501F38BF
:1008200000900398002D0ADD42F21F014A46084459
:10083000002303A90390684603F03AFD09E0A0F500
:1008400000504A461F38002303A90390684603F06E
:1008500044FD8DE807000004000C03D04FF0FF308A
:10086000410800E01046B8F1000F03D000220092CA
:1008700015461EE0751E05D400F050FB303262555F
:100880006D1EF9D5B3460122084302D000227F1C19
:1008900004E02078302801D100227F1E002A099729
:1008A00084D01DE0112D07DA00F038FB303262559C
:1008B0006D1C50EA0102F5D1084302D00098C8B17E
:1008C0000EE00021681E05E0235C625C6354225444
:1008D000401E491C8142F7DBAB46A81B401E099015
:1008E000002004F80B000B98099AC0F80880C0E9B2
:1008F000002B7AE711264FF0000857E72DE9F04F5B
:1009000088460446D21D22F0070191B0D1E90001CA
:10091000CDE90A0103F018FE02460B98C00F01D082
:100920002D2007E02068810701D52B2002E020213F
:1009300001EAC000032A099001D0072A05DB03461B
:100940004146204600F030FB0BE12078800601D5BF
:10095000E06900E00620B8F1650F814606D0B8F1E5
:10096000660F18D0B8F1670F70D131E00020B9F1EF
:10097000110F009001DB112301E009F101030AAA24
:1009800001A90CA8FFF7E2FEDDE90C70002609F1D1
:100990000105834647E001204B4600904FF0004799
:1009A0000AAA01A90CA8FFF7D1FEDDE90DB00C9948
:1009B0005D46002610B909F101000D18B9EB0500DC
:1009C00003D4C0F1FF3609F10105A5EB09002BE0C6
:1009D000B9F1010F01DA4FF001090020B9F1110F4F
:1009E0000090484601DD112300E003460AAA01A950
:1009F0000CA8FFF7ABFEDDE90C704D4600268346E0
:100A0000207800070AD4AB4500DA5D4601A8012D25
:100A100004DD411911F8011C302907D04F4502DAD5
:100A200017F1040F04DA012082460FE06D1EEEE795
:100A3000002F02DCED1B3E4403E0781CA84200DDE1
:100A40007D1CB81B00F1010A4FF000472078000719
:100A500003D4AA4501DB4FF0FF3A0021B7F1004F64
:100A60000DF143088DF8431024D002202B23002FD2
:100A700001DA7F422D230A21021EA0F1010000DCD1
:100A80005FB197FBF1FC97FBF1F201FB1C7C174671
:100A90000CF1300C08F801CDEEE7A8F1010003706D
:100AA0002188090501D5452100E06521A0F1010853
:100AB00000F8011C09980FA9A1EB0807FF1D00B160
:100AC0000120411901EBEA70A1693844081A401E5F
:100AD000A0612078C00602D42046FFF789FC09985F
:100AE00028B1D4E901219047206A401C2062207877
:100AF000C00622D52046FFF77BFC1EE0002E04DB5B
:100B0000B34502DD01A8805D00E03020D4E9012179
:100B10009047206A401C2062761CAAF101005FEA1F
:100B2000000A0AD100F0F6F9C0680168405CD4E917
:100B300001219047206A401C2062281EA5F1010572
:100B4000DCDC07E0D4E9012118F8010B9047206AAA
:100B5000401C2062381EA7F10107F3DC2046FFF796
:100B60005DFC032011B041E62DE9F04F04460D462F
:100B7000D21D22F0070089B0D0E9009748463946D7
:100B800003F0E2FC0246F80F01D02D2307E02068B5
:100B9000810701D52B2302E0202101EAC0038DF853
:100BA00020300BB1012000E00020032A824601D052
:100BB000072A04DB2946204600F0F6F93FE12078B9
:100BC000800601D40D2500E0E569C7F30A560D2D16
:100BD00049DA00214FEA175B08464FF00000002F6A
:100BE00000F4400007DA00EB80004FF4400100EB16
:100BF000D07001EA60008115012901DD4FF0FF315D
:100C000000224FEA850CBCF1180F06D31346ACF155
:100C100018004FF08052C24003E04FF4801323FAD3
:100C20000CF30CF10C0CBCF1200F04D3ACF1200C34
:100C300009FA0CF001E007FA0CF000294FF0004827
:100C400001DD18B90FE00ED140450CD319EB0209B4
:100C50005F4121B9404502D19F4329EA0209BBEB1C
:100C6000175F00D0761C2088000502D57B487844A9
:100C700002E07A487844193808AA302302F80A308A
:100C8000037C0AF10101002E0AF1020A53546A465C
:100C900002DC4FF0300101E04FF031014FF001086C
:100CA0008DF8001002D0A6F2FF3603E059EA4701A2
:100CB00000D06B4E002D02DC2178090704D54FF0DF
:100CC00002082E218DF80110C44600210BE0C7F365
:100CD00003433F01C35C491C6D1E02F8083005291F
:100CE00008F1010801DA002DF1DC00210CE000EB35
:100CF0001973491C1B786D1E082902F808304FEA49
:100D0000091908F1010801DA002DF0DC21688B06D1
:100D100002D516E0A8F10108E04505DD02EB080365
:100D200013F8013C302BF5D0B8F1000F09DD02EBD0
:100D3000080313F8013C2E2B03D1090701D4A8F1B5
:100D40000108002D05DD3E2102F808106D1E08F196
:100D50000108407C002E02F8080008F1010804DABE
:100D60002D20764202F8080002E02B2002F808004D
:100D70000A214FF47A70864208F101080BDB96FBDA
:100D8000F0F3303302F8083096FBF0F308F1010875
:100D900000FB136601E0642E0CDB642096FBF0F38D
:100DA000303302F8083096FBF0F308F1010800FB3D
:100DB000136601E00A2E06DB96FBF1F0303002F8F4
:100DC000080008F1010896FBF1F001FB10603030DB
:100DD00002F80800A16908F1010808EB050202EB1E
:100DE0000A00081AA0612078C00602D42046FFF746
:100DF000FFFA216A08AE01EB0A00206204E0D4E9A0
:100E0000012116F8010B9047BAF1010AF7D22078B8
:100E1000C00602D52046FFF7EBFA6E4609E016F849
:100E2000010B3E280FD0D4E901219047206A401CD5
:100E30002062B8F10108F2D22046FFF7EFFA09B0BC
:100E40000320BDE8F08F206A2844206203E0D4E943
:100E50000121302090476D1EEBD3F8E7C539000023
:100E600002FCFFFF10B5436913B1AFF3008001E04E
:100E7000FFF7F7FA012010BD127800F124010A7083
:100E800000224A700122EDE711684FF0FF32E9E7D6
:100E900010B5436913B1AFF3008001E0FFF746FBE3
:100EA000012010BD128800F1240182840022C28436
:100EB0000122EDE711684FF0FF32E9E72DE9F0413B
:100EC00016460C46054600F01DF8036893F801012C
:100ED000012807D0FF2C12D8185D80B101202C709A
:100EE000BDE8F081D3F807013246214603F207132B
:100EF000C7182846BC46BDE8F041002360474FF0C4
:100F0000FF30EDE710B500F005F8001D10BD00BF83
:100F100095360000004870477800002030B5B0F1E9
:100F20000A0271F100034FEA900E4EEA817EB0EBA7
:100F30000E0061EB91014FEA101E4EEA017E10EBAC
:100F40000E0041EB11114FEA102E4EEA016E10EB2C
:100F50000E0041EB11214FEA104E4EEA014E10EB0C
:100F60000E0041EB1141401841F100014FEAD00061
:100F700040EA41704FEAD1014FEA810444EA90749B
:100F800010EB800544EB01046D1944EB0404521B83
:100F9000A3414FF0000348BF0A3200D530BD401CCA
:100FA00041F1000130BD00002DE9F0411F4604462B
:100FB00003260168072A01F4006004DB08B116A5C6
:100FC00005E016A503E008B115A500E015A521F080
:100FD00010002060A069C01EA0610FB1401EA0617A
:100FE0002046FFF705FA4FB1D4E901213846904772
:100FF000206A401C2062C01C206206E0206AFAE7DA
:10100000D4E9012115F8010B9047761EF8D220464D
:10101000FFF704FABDE8F0814E414E006E616E00AC
:10102000494E4600696E66002DE9F0478146164636
:101030008AB0354878440DC88DE80D0032487844B0
:10104000801C03AC0DC884E80D0041F69B300844B9
:10105000372190FBF1F290FBF1F5A5F1800501FB42
:1010600012041B3C02D56442012000E00020DFF89E
:1010700098A080460027FA44AAF1BE0A0EE0E007D5
:101080000AD03246684607EB470101230AEB81018B
:1010900003F023F98DE8070064107F1C002CEED1CB
:1010A000194F7F44AE3F19E0E80715D007EB041055
:1010B0000DF1180A90E80E008AE80E00C068F042B0
:1010C00001D1981908903246012306A903A803F01C
:1010D00004F903AB83E807006D10641C002DE3D115
:1010E0004FF0010332466946B8F1000F03A802D061
:1010F00003F0DEF801E003F0F0F8C9E90001C9F8F7
:1011000008200AB0BDE8F08790360000004870471C
:10111000580000207546FFF7F9FFAE460500694606
:10112000534620F00700854618B020B5FFF7D6F8E3
:10113000BDE820404FF000064FF000074FF00008D8
:101140004FF0000BAC46ACE8C009ACE8C009ACE815
:10115000C009ACE8C00921F007018D46704710B501
:101160000446AFF300802046BDE81040FFF7A1B869
:1011700030B44FF0013C50F8042B51F8043BCCFA4A
:1011800052F4D51A20D1FCB950F8042B51F8043B85
:10119000CCFA52F4D51A17D1B4B950F8042B51F83F
:1011A000043BCCFA52F4D51A0ED16CB950F8042B8A
:1011B00051F8043BCCFA52F4D51A05D1002CDAD000
:1011C00030BC4FF00000704729BAB1FA81F111F03C
:1011D0001801D1F120008440F2D1CA40CB4012F076
:1011E000FF0213F0FF0330BCD01A704701491820EA
:1011F000ABBEFEE72600020070470000FEE70000DD
:101200007047000072B600BFFEE70000B0B50446AC
:1012100000F0E6F8054640F20000C2F20000007857
:10122000611C18BF044400BF00F0DAF8401BA04264
:10123000FAD3B0BD2DE9F04F82B000F13E4707F17F
:10124000FF77860546EA972741F60046C4F2020674
:10125000082243F6004EB04208BF0722C4F2010E36
:10126000072F38BF3A46002600274FF000080092AB
:1012700009E000BF08F101080237B8F1100F06F1CC
:10128000040600F0A3800D68012202FA08F415EAB2
:101290000409EFD0D1F804B003220BF0030CACF139
:1012A0000105BA40012D6FEA020A0FD88268CD68A5
:1012B00002EA0A02BD402A4382604268A243CBF39D
:1012C000001404FA08F42243426005E0BCF1030F65
:1012D00002D14FF0030C1EE0C2688C6802EA0A02D9
:1012E000BC402243BCF1020FC26014D16FF0030274
:1012F00002EA58020244D2F820C006F01C040F2370
:101300000D69A3402CEA0303A5402B431362D1F8D7
:1013100004B00BF0030C02680CFA07F302EA0A02AD
:101320001A431BF4403F0260A4D0002243F644035A
:101330000192C4F202031A684FF6084C42F480424C
:101340001A601A68CFF6FF7C02F480420192019A7B
:1013500028F00302724452F80C3006F00C050F24FA
:10136000AC40A343009C04FA05F52B4342F80C3033
:10137000DEF808204B6842EA090543F60C4CDC0213
:1013800058BF22EA0905CEF80850C4F2010CDCF877
:1013900000209C0242EA090558BF22EA0905CCF860
:1013A0000050DEF804209C0342EA090558BF22EAF7
:1013B0000905CEF80450DEF80020DB0342EA0905F7
:1013C00058BF22EA0905CEF8005053E702B0BDE845
:1013D000F08F0000002A08BF0904816170470000F7
:1013E00040F62810C2F200000068704740F200008A
:1013F00040F62811C2F20000C2F2000100780A682B
:10140000104408607047000080B543F60040C4F205
:101410000200016841F400710160016841F48061DB
:101420000160016841F480710160032000F074F8EC
:101430000F2000F005F800F027F8002080BD000024
:1014400070B540F20006C2F2000640F25001327858
:10145000C2F200014FF47A730968B3FBF2F204465A
:10146000B1FBF2F1084600F0B7FB0F2C4FF001057D
:1014700008D838B94FF0FF3021460022002500F08F
:101480001FF87460284670BD82B0002043F640010A
:101490000190C4F202014A6842F480424A604A68FC
:1014A00002F480420192019A0090086840F0805056
:1014B0000860086800F080500090009802B0704703
:1014C00010B54EF60C5CCEF2000CDCF80030C3F325
:1014D000022E8EF00704042C28BF0424BEF103035F
:1014E0004FF0FF3E0EFA04F438BF0023A1439940A9
:1014F0000EFA03F39A43114300F00F0200F1604328
:101500000901043A03F564436244002848BF02F12C
:101510000C03197010BD00004EF60C51CEF2000104
:101520000A684FF6FF031A4060F30A2242F0806017
:1015300040F0FD7008607047002804BF012070472C
:101540002DE9F04143F60808C4F202080446D8F831
:10155000F8030D4600F00700884207D288F8F853D8
:10156000D8F8F80300F00700A84277D12068810777
:1015700017D5410705D5D8F8001041F4E051C8F857
:101580000010010705D5D8F8001041F46041C8F8F3
:101590000010D8F80010A26821F0F0011143C8F83B
:1015A0000010C00740D1D8F8F80300F00700A842A7
:1015B00007D988F8F853D8F8F80300F00700A842D4
:1015C0004CD12068410707D5D8F80010E26821F413
:1015D000E0511143C8F80010000708D5D8F8000002
:1015E000216920F4604040EAC100C8F8000000F022
:1015F00055F8D8F8001044F2E062C1F30311C0F6C8
:101600000002515C40F2500220FA01F140F2040065
:10161000C2F200000068C2F200021160FFF710FF82
:101620000020BDE8F08100BF6068811E022907D25A
:1016300058F8081C89015CBF0120BDE8F08111E069
:10164000012807D158F8081C89035CBF0120BDE8B8
:10165000F08107E058F8081C890703D40120BDE891
:10166000F08100BFD8F8001021F003010843C8F84A
:101670000000FFF7B5FE064641F28837D8F80000B3
:10168000616800F00C00B0EB810F8CD0FFF7A8FE72
:10169000801BB842F2D90320BDE8F08110B543F6B3
:1016A0000404C4F20204606800F00C0142F200403D
:1016B0000829C0F2F40007D0042918BF10BD41F278
:1016C0000020C0F27A0010BD216801F03F022168BD
:1016D00023684902C3F3881106D4A1FB000100234B
:1016E000FEF70EFE07E000BF41F20020C0F27A00D4
:1016F0004843B0FBF2F021680222C1F3014102EB42
:101700004101B0FBF1F010BD002804BF012070477B
:101710002DE9F04182B00446007843F60006C00788
:10172000C4F202060CD0B06800F00C00042840F0AF
:1017300081803068800303D56068002800F06A81EA
:10174000207880071BD5B06810F00C0F09D0B06866
:1017500000F00C00082840F087807068400200F11B
:1017600083803068800703D5E068012840F052810B
:101770003068216920F0F80040EAC100306020782C
:10178000000713D4207840072AD4A569002D00F063
:101790003C81B06800F00C00082840F0A180012DC9
:1017A00040F01081012002B0BDE8F081606900289E
:1017B00040F20000C4F2472000F07E800121C0F812
:1017C000801EFFF70DFE0546706F8007DAD4FFF725
:1017D00007FE401B0228F7D9032002B0BDE8F081C4
:1017E000306C5FEAC0080AD400200190306C40F0F1
:1017F00080503064306C00F080500190019847F2C6
:101800000007C4F200073868C00547D4386840F4C0
:1018100080703860FFF7E4FD054600BF3868C005FA
:101820003CD4FFF7DDFD401B0228F7D9032002B0AE
:10183000BDE8F081B06800F00C00082803D17068A2
:1018400040023FF576AF6068B0F5803F07D0B0F555
:10185000A02F40F09B80306840F4802030603068DA
:1018600040F4803030609BE0E06800285CD00020CD
:10187000C4F2472001210160FFF7B2FD054600BF19
:10188000306880073FF574AFFFF7AAFD401B0228C0
:10189000F6D9032002B0BDE8F08100BFA06801289E
:1018A00005D0052854D1306F40F004003067306F08
:1018B00040F00100306755E00021C0F8801EFFF7BE
:1018C0008FFD0546706F80077FF55CAFFFF788FDE1
:1018D000401B0228F6D9032002B0BDE8F08100BF0A
:1018E0000027C4F2472700203866FFF779FD022D54
:1018F00005460DD13068800140F19080FFF770FD02
:10190000401B02284FF00300F4D902B0BDE8F0817B
:101910003068800179D5FFF763FD401B02284FF046
:101920000300F5D9F1E700BF0020C4F247200021F1
:101930000160FFF755FD0546306880077FF51FAF52
:10194000FFF74EFD401B02284FF00300F4D9DCE7FF
:10195000316F002821F001013167316F21F004015E
:1019600031677DD0FFF73CFD054641F2883700BF67
:10197000306F800700F18680FFF732FD401BB842D0
:10198000F6D9032002B0BDE8F08100BF316800281D
:1019900021F480313160316821F4802131607BD0C5
:1019A000FFF71EFD054600BF306880033FF5C8AE57
:1019B000FFF716FD401B6428F6D9032002B0BDE8EE
:1019C000F08100BF7068E16900F480028A4221D191
:1019D000216A00F03F028A421CD147F6C071626A58
:1019E0000140B1EB821F15D1A16A4FF6FF73C90305
:1019F000994300F44032A1F580318A420AD1E16A6C
:101A000000F07060B0EB016F04D1002002B0BDE8BF
:101A1000F08100BF012002B0BDE8F08104F11C0597
:101A20002FCD084340EA8210D9034FF6FF7291434D
:101A3000A1F5803140EA05600843706001203866F6
:101A4000FFF7CEFC044600BF30688001DDD4FFF70D
:101A5000C7FC001B02284FF00300F5D955E700BF73
:101A6000FFF7BEFC054641F2883700BF306F8007A4
:101A700008D5FFF7B5FC401BB8424FF00300F5D97D
:101A800043E700BFB8F1000F3FF57FAE306C20F0A8
:101A90008050306479E600BFFFF7A2FC054600BF26
:101AA000306880037FF54CAEFFF79AFC401B64283A
:101AB0004FF00300F4D928E770B538B10446406A06
:101AC00030B10020206104F1140007E0012070BD56
:101AD0006068B0F5827F03D004F11C000021016032
:101AE0000026A66294F8510020B9204684F8506080
:101AF00000F03CF8022084F8510094E80F0001F453
:101B00008271056802F4044225F040050560114425
:101B100003F400622369114403F002026369114473
:101B200003F00102A369E569114403F40072114452
:101B300005F03802256A114405F08002A56A1143B8
:101B400005F4005211430160626A042101EA134165
:101B500002F0100211444160C16921F40061C161C9
:101B60000120666584F85100304670BD016843F677
:101B70000040C4F20000814218BF704780B586B0B3
:101B8000002143F630020191C4F20202136900F50C
:101B9000E43043F400431361136903F400430193F9
:101BA000019B0191136843F002031360126802F075
:101BB00002020192019A282201920222CDE9022119
:101BC000032104910621059101A9FFF733FB06B01B
:101BD000BDE8804070470000411E0020B0EB116F4F
:101BE0001CBF012070474EF21002CEF2000251607D
:101BF0004EF62351CEF20001F0230B7007219060C6
:101C000011607047FEE7000070B540F2B804C2F200
:101C10000004608AA18A01380139182682B28BB289
:101C200000200021C4F2020600F018FC40F6D000AB
:101C3000C2F2000000684FF6BF72016811400160F7
:101C4000016841F400610160016841F040010160F8
:101C50004FF000413160618AA28A02FB01F32BB38D
:101C6000E168042B03F0030240D2FAB1C16083683B
:101C70009B0709D483689B075CBF83685FEA837313
:101C800002D483689B07F2D5012A0FD0C160836814
:101C90009B0709D483689B075CBF83685FEA8373F3
:101CA00002D483689B07F2D5022A61D181680906B4
:101CB00009D58168090644BF81685FEA016102D5E0
:101CC00081680906F2D44FF40041316001684FF693
:101CD000BF721140016001684FF2FF721140016054
:101CE000016841F04001016070BD00BF23F00303B3
:101CF000002402E004349C42B7D0C1608568AD077F
:101D00000AD48568AD075CBF85685FEA857503D432
:101D10008568AD07F2D500BFC1608568AD0709D4FD
:101D20008568AD075CBF85685FEA857502D4856804
:101D3000AD07F2D5C1608568AD0709D48568AD07E8
:101D40005CBF85685FEA857502D48568AD07F2D50A
:101D5000C1608568AD07CDD48568AD075CBF856877
:101D60005FEA8575C6D48568AD07F2D5C2E700BFC6
:101D7000C1608168890799D4816889075CBF8168DF
:101D80005FEA81713FF592AF81688907F1D58DE7F0
:101D90002DE9F04F83B01827C4F202074FF000433B
:101DA00040F2B8063B60C2F20006336840F2D00A47
:101DB0001F89C2F2000A002F0291019000F0988062
:101DC000203A1868D6E9029B5FFA82FE00220024BE
:101DD000002500BF07FB0E0616F80280AEB25FEAD0
:101DE000C8774F4608BF5F462AF81670661C9F8862
:101DF0001FFA86FCBC4505F1010759D05FEA8876D9
:101E0000BFB24E4658BF5E462AF81760A61C9F8890
:101E1000B1B2B94205F102074AD0B9B25FEA4877D8
:101E20004F4658BF5F462AF81170E61C9988B7B232
:101E30008F4205F103073BD0B9B25FEA08774F46FE
:101E400058BF5F462AF81170261D9988B7B28F4295
:101E500005F104072CD0B9B25FEAC8674F4658BFF6
:101E60005F462AF81170661D9988B7B28F4205F156
:101E700005071DD0B9B25FEA88674F4658BF5F4675
:101E80002AF81170A61D9988B7B28F4205F106078E
:101E90000ED0B9B25FEA48674F4658BF5F462AF88E
:101EA0001170E61D9988B7B28F4205F1070707D177
:101EB00000243D461F890132BA428BD319E000BF8E
:101EC0004FFA88F6BFB2002E4E4658BF5E462AF83B
:101ED000176004F108019E888FB20835BC1B18BF3B
:101EE0000C461F890132BA42FFF474AF01E000BF13
:101EF0009E880198DA8881194F1E02990A44531E60
:101F0000BAB29BB200F0AAFA40F2B800C2F20000E6
:101F1000016840F6D000C2F2000000688A88C988D3
:101F200003684FF6BF773B4003600368514343F4B7
:101F3000006303600368182643F0400202604FF01C
:101F400000420B04C4F2020632602BD08AB2042A8B
:101F500001F0030148D2002221B33AF81230C360E5
:101F600083689B0709D483689B075CBF83685FEA2B
:101F7000837302D483689B07F2D5012912D00AEB40
:101F800042025388C36083689B0709D483689B0718
:101F90005CBF83685FEA837302D483689B07F2D5D2
:101FA000022971D18168090609D58168090644BFF3
:101FB00081685FEA016102D581680906F2D44FF4B5
:101FC0000041316001684FF6BF7211400160016845
:101FD0004FF2FF7211400160016841F04001016061
:101FE00003B0BDE8F08F00BF22F00303002202E03F
:101FF00004329A42B0D03AF81270C7608768BF07BF
:102000000AD48768BF075CBF87685FEA877703D415
:102010008768BF07F2D500BF42F001073AF8177092
:10202000C7608768BF0709D48768BF075CBF876838
:102030005FEA877702D48768BF07F2D542F00207CC
:102040003AF81770C7608768BF0709D48768BF0769
:102050005CBF87685FEA877702D48768BF07F2D5DD
:1020600042F003073AF81770C7608768BF07BFD40C
:102070008768BF075CBF87685FEA8777B8D48768DF
:10208000BF07F2D5B4E700BF9188C16081688907B6
:102090003FF588AF816889075CBF81685FEA81711D
:1020A0003FF580AF81688907F0D57BE72DE9F04FD8
:1020B00081B0009140F2B801C2F20001D1F8049061
:1020C0001778D9F800A0B9F8085000244FF0010C97
:1020D00007E000BF0BF10204B9F80A30A6B29E4235
:1020E0000FD21CFA84F606FB05F31AF803301FFA28
:1020F00084FBBB42EED106FB05A356785B78B34266
:10210000E8D1002D00F09A80D1E902E140F2D00C34
:10211000002400274FF00008C2F2000C0BFB05A2C0
:102120007E1C155D1FFA88F2EB07734608BF0B464D
:102130002CF81230B9F80420B3B2934208F101022E
:102140005AD0AB0792B2734658BF0B462CF81230E8
:10215000BE1CB9F80420B3B2934208F102024BD07E
:102160006B0792B2734658BF0B462CF81230FE1C18
:10217000B9F80420B3B2934208F103023CD02B0714
:1021800092B2734658BF0B462CF812303E1DB9F878
:102190000420B3B2934208F104022DD0EB0692B2B0
:1021A000734658BF0B462CF812307E1DB9F8042038
:1021B000B3B2934208F105021ED0AB0692B2734649
:1021C00058BF0B462CF81230BE1DB9F80420B3B22C
:1021D000934208F106020FD06B0692B2734658BFC5
:1021E0000B462CF81230FE1DB9F80420B3B293420E
:1021F00008F1070208D100BF00279046B9F808503F
:102200000134AC428AD31BE06DB292B2002D754608
:1022100058BF0D462CF8125007F10803B9F80460B6
:102220009AB208F10808971B18BF1F46B9F8085062
:102230000134AC42FFF472AF02E000BFB9F80460B1
:10224000B9F80630009982190B44013A013B182471
:1022500092B29BB2C4F2020400F000F940F2B8005E
:10226000C2F20000416840F6D000C2F200000068EF
:102270008A88C98803684FF6BF773B4003600368CC
:10228000514343F400630360036840F2D00643F017
:10229000400202604FF000420B04C2F200062260CE
:1022A0002CD08AB2042A01F0030149D2002229B3BA
:1022B00036F81230C36083689B0709D483689B0794
:1022C0005CBF83685FEA837302D483689B07F2D59F
:1022D000012913D006EB42025388C36083689B0731
:1022E00009D483689B075CBF83685FEA837302D469
:1022F00083689B07F2D5022972D100BF8168090665
:1023000009D58168090644BF81685FEA016102D589
:1023100081680906F2D44FF40041216001684FF64C
:10232000BF721140016001684FF2FF7211400160FD
:10233000016841F04001016001B0BDE8F08F00BFCD
:1023400022F00303002202E004329A42AFD036F8B2
:102350001270C7608768BF070AD48768BF075CBF71
:1023600087685FEA877703D48768BF07F2D500BF25
:1023700042F0010736F81770C7608768BF0709D4B5
:102380008768BF075CBF87685FEA877702D4876882
:10239000BF07F2D542F0020736F81770C7608768AA
:1023A000BF0709D48768BF075CBF87685FEA877784
:1023B00002D48768BF07F2D542F0030736F81770DA
:1023C000C7608768BF07BFD48768BF075CBF8768DF
:1023D0005FEA8777B8D48768BF07F2D5B4E700BF54
:1023E0009188C160816889073FF588AF8168890756
:1023F0005CBF81685FEA81713FF580AF81688907C2
:10240000F0D57BE72DE9F04115461278002A08BF88
:10241000BDE8F08140F2B808C2F200080C4606465A
:1024200008F104070DE000BFB0B221462A46FFF7CD
:102430003DFE0220394609682A5C898805440E441D
:1024400052B150B20028EFD4B0B2D2B22146FFF759
:102450009FFC01204146EEE7BDE8F0812DE9F04FF9
:1024600081B040F218098A46C4F202094FF00041D7
:1024700040F6D006C9F80010C2F20006316898464E
:10248000174605468868000609D58868000644BFD7
:1024900088685FEA006002D588680006F2D440F6DA
:1024A0000044C4F2020420464FF400510022FEF71B
:1024B00091FF30682A21C160816889070AD4816848
:1024C00089075CBF81685FEA817103D481688907ED
:1024D000F2D500BF8168090609D58168090644BFA5
:1024E00081685FEA016102D581680906F2D420465D
:1024F0004FF400510122FEF76DFF40F2B80BC2F21B
:10250000000B9BF81610481982B23068130AC3609A
:1025100083689B0709D483689B075CBF83685FEA75
:10252000837302D483689B07F2D5C26082689207E6
:1025300009D4826892075CBF82685FEA827202D423
:1025400082689207F2D5394489B20A0AC260826869
:10255000920709D4826892075CBF82685FEA827240
:1025600002D482689207F2D5C1608168890709D4D4
:10257000816889075CBF81685FEA817102D48168E4
:102580008907F2D58168090609D58168090644BF23
:1025900081685FEA016102D581680906F2D42046AC
:1025A0004FF400510022FEF715FF30682B21C16067
:1025B000816889070AD4816889075CBF81685FEAFE
:1025C000817103D481688907F2D500BF816809064B
:1025D00009D58168090644BF81685FEA016102D5B7
:1025E00081680906F2D420464FF400510122FEF71B
:1025F000F1FE9BF8171001EB0A0082B23068130A53
:10260000C36083689B0709D483689B075CBF8368AA
:102610005FEA837302D483689B07F2D5C260826845
:10262000920709D4826892075CBF82685FEA82726F
:1026300002D482689207F2D5414489B20A0AC26084
:102640008268920709D4826892075CBF82685FEA59
:10265000827202D482689207F2D5C16081688907CC
:102660000AD4816889075CBF81685FEA817103D4FD
:1026700081688907F2D500BF8168090609D581689C
:10268000090644BF81685FEA016102D581680906D5
:10269000F2D420464FF400510022FEF79BFE306832
:1026A0002C21C160816889070AD4816889075CBFD1
:1026B00081685FEA817103D481688907F2D500BF20
:1026C0008168090609D58168090644BF81685FEA07
:1026D000016102D581680906F2D420464FF4005109
:1026E0000122FEF777FE30688168090609D5816806
:1026F000090644BF81685FEA016102D58168090665
:10270000F2D44FF40040C9F8000001B0BDE8F08FEA
:102710004FF478414FF4FC6201EA102102EA5012B2
:10272000C0F3C4001144084440F2B801C2F20001F1
:10273000C86070474FF478414FF4FC6201EA102101
:1027400002EA5012C0F3C4001144084440F2B80138
:10275000C2F2000188607047F0B581B0182540F2E0
:10276000B806C4F20205C2F200064FF00041032889
:102770007074296056D8DFE810F005005B00B100E6
:10278000010100BF40F6D007C2F200073868816837
:10279000090609D58168090644BF81685FEA0161BD
:1027A00002D581680906F2D440F60044C4F202045E
:1027B00020464FF400510022FEF70CFE3868362107
:1027C000C1608168890709D4816889075CBF816815
:1027D0005FEA817102D481688907F2D581680906B0
:1027E00009D58168090644BF81685FEA016102D5A5
:1027F00081680906F2D420464FF400510122FEF709
:10280000E9FD38687021C160816889075FD48168FB
:1028100089075CBF81685FEA817158D48168890744
:10282000F2D554E040F6D000C2F200000068FCE0AF
:1028300040F6D007C2F2000738688168090609D55A
:102840008168090644BF81685FEA016102D5816839
:102850000906F2D440F60044C4F2020420464FF4C4
:1028600000510022FEF7B6FD38683621C16081684C
:10287000890709D4816889075CBF81685FEA817133
:1028800002D481688907F2D58168090609D5816873
:10289000090644BF81685FEA016102D581680906C3
:1028A000F2D420464FF400510122FEF793FD386820
:1028B000A021C1608168890709D4816889075CBF4C
:1028C00081685FEA817102D481688907F2D5142199
:1028D000F18240F21811C0F2F001A4E040F6D007F6
:1028E000C2F2000738688168090609D581680906BF
:1028F00044BF81685FEA016102D581680906F2D4AC
:1029000040F60044C4F2020420464FF40051002275
:10291000FEF760FD38683621C1608168890709D4F7
:10292000816889075CBF81685FEA817102D4816830
:102930008907F2D58168090609D58168090644BF6F
:1029400081685FEA016102D581680906F2D42046F8
:102950004FF400510122FEF73DFD38680021C160AF
:102960008168890759D4816889075CBF81685FEAFB
:10297000817152D481688907F2D54EE040F6D007C4
:10298000C2F2000738688168090609D5816809061E
:1029900044BF81685FEA016102D581680906F2D40B
:1029A00040F60044C4F2020420464FF400510022D5
:1029B000FEF710FD38683621C1608168890709D4A7
:1029C000816889075CBF81685FEA817102D4816890
:1029D0008907F2D58168090609D58168090644BFCF
:1029E00081685FEA016102D581680906F2D4204658
:1029F0004FF400510122FEF7EDFC3868C021C160A0
:102A00008168890709D4816889075CBF81685FEAAA
:102A1000817102D481688907F2D54FF4A051F18207
:102A2000F021C0F21811C6F812108168090609D504
:102A30008168090644BF81685FEA016102D5816847
:102A40000906F2D44FF40040286001B0F0BD000048
:102A50008188A1F10C02890741EA920240F2B80193
:102A6000C2F20001052A48600AD8D0B22F2323FA07
:102A700000F0C00708BF704702A050F822000860AD
:102A8000704700BF08000020140000202000002034
:102A90002C000020080000203800002081B0002019
:102AA00043F630010090C4F202010A6842F00402C9
:102AB0000A600A6802F004020092009A00900A6814
:102AC00042F080020A600A6802F080020092009AD6
:102AD00000900A6842F001020A600A6802F00102EE
:102AE0000092009A0090086840F0020008600868B0
:102AF00000F002000090009801B0704710B540F659
:102B0000D00443F60040C2F20004C4F200004FF4C7
:102B100082714FF40042002384E80F000A204FF432
:102B2000007CC4E90A302046C4E90433C4E906C382
:102B3000C4E90833FEF7C0FF002818BFFEF762FBA8
:102B40002068016841F040010160016841F4804162
:102B5000016010BDFEE70000FEE7000070470000C6
:102B60002DE9F04387B0002643F630000696019623
:102B7000C4F20200016840F6004841F00101016022
:102B80000168C4F2020801F0010101910199019666
:102B9000016802AD41F00801016001684FF400498D
:102BA00001F008010191019901960168012441F0A9
:102BB000080101600068022700F0080001900198F8
:102BC000A8F540602946CDF80890CDE90346059761
:102BD000FEF730FB4FF4805002A951C14046294610
:102BE0000596FEF727FB4FF4005002A9D1C14046DD
:102BF0002946FEF71FFB40464FF400510122FEF725
:102C0000E9FB4FF21845CFF6FF7540464FF480516F
:102C1000002248F80590FEF7DDFB0A20FEF7F6FAE1
:102C20004FF0004040F6D00648F80500C2F200061A
:102C300030688168090609D58168090644BF816842
:102C40005FEA016102D581680906F2D440464FF47B
:102C500000510022FEF7BEFB30683621C16081685A
:102C6000890709D4816889075CBF81685FEA81713F
:102C700002D481688907F2D58168090609D581687F
:102C8000090644BF81685FEA016102D581680906CF
:102C9000F2D440464FF400510122FEF79BFB30680E
:102CA0000021C160816889070AD4816889075CBFF7
:102CB00081685FEA817103D481688907F2D500BF1A
:102CC0008168090609D58168090644BF81685FEA01
:102CD000016102D581680906F2D440464FF40051E3
:102CE0000022FEF777FB30683A21C16081688907CE
:102CF0000AD4816889075CBF81685FEA817103D467
:102D000081688907F2D500BF8168090609D5816805
:102D1000090644BF81685FEA016102D5816809063E
:102D2000F2D440464FF400510122FEF753FB3068C5
:102D30000521C160816889070AD4816889075CBF61
:102D400081685FEA817103D481688907F2D500BF89
:102D50008168090609D58168090644BF81685FEA70
:102D6000016102D581680906F2D440464FF4005152
:102D70000022FEF72FFB3068B221C160816889070D
:102D80000AD4816889075CBF81685FEA817103D4D6
:102D900081688907F2D500BF8168090609D5816875
:102DA000090644BF81685FEA016102D581680906AE
:102DB000F2D440464FF400510122FEF70BFB30687D
:102DC0000C21C1608168890709D4816889075CBFCB
:102DD00081685FEA817102D481688907F2D50C218C
:102DE000C1608168890709D4816889075CBF8168EF
:102DF0005FEA817102D481688907F2D50021C16040
:102E00008168890709D4816889075CBF81685FEAA6
:102E1000817102D481688907F2D53321C16081684C
:102E2000890709D4816889075CBF81685FEA81717D
:102E300002D481688907F2D53321C160816889078E
:102E40000AD4816889075CBF81685FEA817103D415
:102E500081688907F2D500BF8168090609D58168B4
:102E6000090644BF81685FEA016102D581680906ED
:102E7000F2D440464FF400510022FEF7ABFA30681E
:102E8000B721C160816889070AD4816889075CBF5E
:102E900081685FEA817103D481688907F2D500BF38
:102EA0008168090609D58168090644BF81685FEA1F
:102EB000016102D581680906F2D440464FF4005101
:102EC0000122FEF787FA30683521C16081688907E1
:102ED0000AD4816889075CBF81685FEA817103D485
:102EE00081688907F2D500BF8168090609D5816824
:102EF000090644BF81685FEA016102D5816809065D
:102F0000F2D440464FF400510022FEF763FA3068D5
:102F1000BB21C160816889070AD4816889075CBFC9
:102F200081685FEA817103D481688907F2D500BFA7
:102F30008168090609D58168090644BF81685FEA8E
:102F4000016102D581680906F2D440464FF4005170
:102F50000122FEF73FFA30681921C16081688907B4
:102F60000AD4816889075CBF81685FEA817103D4F4
:102F700081688907F2D500BF8168090609D5816893
:102F8000090644BF81685FEA016102D581680906CC
:102F9000F2D440464FF400510022FEF71BFA30688D
:102FA000C021C160816889070AD4816889075CBF34
:102FB00081685FEA817103D481688907F2D500BF17
:102FC0008168090609D58168090644BF81685FEAFE
:102FD000016102D581680906F2D440464FF40051E0
:102FE0000122FEF7F7F930682C21C160816889075A
:102FF0000AD4816889075CBF81685FEA817103D464
:1030000081688907F2D500BF8168090609D5816802
:10301000090644BF81685FEA016102D5816809063B
:10302000F2D440464FF400510022FEF7D3F9306845
:10303000C221C160816889070AD4816889075CBFA1
:1030400081685FEA817103D481688907F2D500BF86
:103050008168090609D58168090644BF81685FEA6D
:10306000016102D581680906F2D440464FF400514F
:1030700001220124FEF7AEF93068C4608168890737
:103080000AD4816889075CBF81685FEA817103D4D3
:1030900081688907F2D500BF8168090609D5816872
:1030A000090644BF81685FEA016102D581680906AB
:1030B000F2D440464FF400510022FEF78BF93068FD
:1030C000C321C160816889070AD4816889075CBF10
:1030D00081685FEA817103D481688907F2D500BFF6
:1030E0008168090609D58168090644BF81685FEADD
:1030F000016102D581680906F2D440464FF40051BF
:103100000122FEF767F930681221C16081688907E2
:103110000AD4816889075CBF81685FEA817103D442
:1031200081688907F2D500BF8168090609D58168E1
:10313000090644BF81685FEA016102D5816809061A
:10314000F2D440464FF400510022FEF743F93068B4
:10315000C421C160816889070AD4816889075CBF7E
:1031600081685FEA817103D481688907F2D500BF65
:103170008168090609D58168090644BF81685FEA4C
:10318000016102D581680906F2D440464FF400512E
:103190000122FEF71FF930682021C160816889078C
:1031A0000AD4816889075CBF81685FEA817103D4B2
:1031B00081688907F2D500BF8168090609D5816851
:1031C000090644BF81685FEA016102D5816809068A
:1031D000F2D440464FF400510022FEF7FBF830686D
:1031E000C621C160816889070AD4816889075CBFEC
:1031F00081685FEA817103D481688907F2D500BFD5
:103200008168090609D58168090644BF81685FEABB
:10321000016102D581680906F2D440464FF400519D
:103220000122FEF7D7F830680F21C1608168890755
:103230000AD4816889075CBF81685FEA817103D421
:1032400081688907F2D500BF8168090609D58168C0
:10325000090644BF81685FEA016102D581680906F9
:10326000F2D440464FF400510022FEF7B3F8306824
:10327000D021C160816889070AD4816889075CBF51
:1032800081685FEA817103D481688907F2D500BF44
:103290008168090609D58168090644BF81685FEA2B
:1032A000016102D581680906F2D440464FF400510D
:1032B0000122FEF78FF83068A421C1608168890778
:1032C00009D4816889075CBF81685FEA817102D493
:1032D00081688907F2D5A121C1608168890709D475
:1032E000816889075CBF81685FEA817102D4816867
:1032F0008907F2D58168090609D58168090644BFA6
:1033000081685FEA016102D581680906F2D440460E
:103310004FF400510022FEF75DF83068E021C160F3
:10332000816889070AD4816889075CBF81685FEA80
:10333000817103D481688907F2D500BF81680906CD
:1033400009D58168090644BF81685FEA016102D539
:1033500081680906F2D440464FF400510122FEF77D
:1033600039F83068D021C1608168890709D4816843
:1033700089075CBF81685FEA817102D4816889072F
:10338000F2D50421C1608168890709D48168890761
:103390005CBF81685FEA817102D481688907F2D5D8
:1033A0000D21C1608168890709D4816889075CBFE4
:1033B00081685FEA817102D481688907F2D51121A1
:1033C000C1608168890709D4816889075CBF816809
:1033D0005FEA817102D481688907F2D51321C16047
:1033E0008168890709D4816889075CBF81685FEAC1
:1033F000817102D481688907F2D52B21C16081686F
:10340000890709D4816889075CBF81685FEA817197
:1034100002D481688907F2D53F21C160816889079C
:1034200009D4816889075CBF81685FEA817102D431
:1034300081688907F2D55421C1608168890709D460
:10344000816889075CBF81685FEA817102D4816805
:103450008907F2D54C21C1608168890709D4816848
:1034600089075CBF81685FEA817102D4816889073E
:10347000F2D51821C1608168890709D4816889075C
:103480005CBF81685FEA817102D481688907F2D5E7
:103490000D21C1608168890709D4816889075CBFF3
:1034A00081685FEA817102D481688907F2D50B21B6
:1034B000C1608168890709D4816889075CBF816818
:1034C0005FEA817102D481688907F2D51F21C1604A
:1034D0008168890709D4816889075CBF81685FEAD0
:1034E000817102D481688907F2D52321C160816886
:1034F000890709D4816889075CBF81685FEA8171A7
:1035000002D481688907F2D58168090609D58168E6
:10351000090644BF81685FEA016102D58168090636
:10352000F2D440464FF400510022FDF753FF3068BB
:10353000E121C160816889070AD4816889075CBF7D
:1035400081685FEA817103D481688907F2D500BF81
:103550008168090609D58168090644BF81685FEA68
:10356000016102D581680906F2D440464FF400514A
:103570000122FDF72FFF3068D021C16081688907E3
:1035800009D4816889075CBF81685FEA817102D4D0
:1035900081688907F2D50421C1608168890709D44F
:1035A000816889075CBF81685FEA817102D48168A4
:1035B0008907F2D50C21C1608168890709D4816827
:1035C00089075CBF81685FEA817102D481688907DD
:1035D000F2D51121C1608168890709D48168890702
:1035E0005CBF81685FEA817102D481688907F2D586
:1035F0001321C1608168890709D4816889075CBF8C
:1036000081685FEA817102D481688907F2D52C2133
:10361000C1608168890709D4816889075CBF8168B6
:103620005FEA817102D481688907F2D53F21C160C8
:103630008168890709D4816889075CBF81685FEA6E
:10364000817102D481688907F2D54421C160816803
:10365000890709D4816889075CBF81685FEA817145
:1036600002D481688907F2D55121C1608168890738
:1036700009D4816889075CBF81685FEA817102D4DF
:1036800081688907F2D52F21C1608168890709D433
:10369000816889075CBF81685FEA817102D48168B3
:1036A0008907F2D51F21C1608168890709D4816823
:1036B00089075CBF81685FEA817102D481688907EC
:1036C000F2D51F21C1608168890709D48168890703
:1036D0005CBF81685FEA817102D481688907F2D595
:1036E0002021C1608168890709D4816889075CBF8E
:1036F00081685FEA817102D481688907F2D523214C
:10370000C1608168890709D4816889075CBF8168C5
:103710005FEA817102D481688907F2D58168090660
:1037200009D58168090644BF81685FEA016102D555
:1037300081680906F2D440464FF400510022FDF79B
:1037400049FE30682121C160816889070AD48168F7
:1037500089075CBF81685FEA817103D4816889074A
:10376000F2D500BF8168090609D58168090644BF02
:1037700081685FEA016102D581680906F2D440469A
:103780004FF400510122FDF725FE306881680906DB
:1037900009D58168090644BF81685FEA016102D5E5
:1037A00081680906F2D440464FF400510022FDF72B
:1037B00011FE30681121C160816889070AD48168CF
:1037C00089075CBF81685FEA817103D481688907DA
:1037D000F2D500BF8168090609D58168090644BF92
:1037E00081685FEA016102D581680906F2D440462A
:1037F0004FF400510122FDF7EDFD7820FDF706FDA5
:1038000030688168090609D58168090644BF816866
:103810005FEA016102D581680906F2D440464FF49F
:1038200000510022FDF7D6FD30682921C160816872
:10383000890709D4816889075CBF81685FEA817163
:1038400002D481688907F2D58168090609D58168A3
:10385000090644BF81685FEA016102D581680906F3
:10386000F2D440464FF400510122FDF7B3FD306819
:103870008168090609D58168090644BF81685FEA45
:10388000016102D581680906F2D44FF4004140F28B
:10389000B80748F80510C2F20007032179744FF009
:1038A000004148F805108168090609D581680906B4
:1038B00044BF81685FEA016102D581680906F2D4DC
:1038C00040464FF400510022FDF784FD3068362158
:1038D000C1608168890709D4816889075CBF8168F4
:1038E0005FEA817102D481688907F2D5816809068F
:1038F00009D58168090644BF81685FEA016102D584
:1039000081680906F2D440464FF400510122FDF7C8
:1039100061FD3068C021C1608168890709D4816870
:1039200089075CBF81685FEA817102D48168890779
:10393000F2D54FF4A051F982F021C0F21811C7F866
:1039400012108168090609D58168090644BF81689B
:103950005FEA016102D581680906F2D44FF40040A4
:1039600048F8050000204FF6FF71C7E9021000215A
:10397000EF2240F21713FEF771FD30684FF6BF7269
:10398000016811400160016841F400610160016853
:1039900041F0400101604FF0004148F80510798A7C
:1039A000BA8A02FB01F32BB3F968042B03F003027C
:1039B00050D2FAB1C16083689B0709D483689B0722
:1039C0005CBF83685FEA837302D483689B07F2D588
:1039D000012A0FD0C16083689B0709D483689B07C5
:1039E0005CBF83685FEA837302D483689B07F2D568
:1039F000022A71D18168090609D58168090644BF88
:103A000081685FEA016102D581680906F2D44FF44A
:103A1000004148F8051001684FF6BF72114001607F
:103A200001684FF2FF72114001600168012241F00C
:103A30004001016040F22C00C2F20000386000201A
:103A4000387440464FF48051FDF7C4FC07B0BDE820
:103A5000F08300BF23F00303002602E004369E42F9
:103A6000A7D0C1608468A4070AD48468A4075CBF97
:103A700084685FEA847403D48468A407F2D500BF25
:103A8000C1608468A40709D48468A4075CBF846803
:103A90005FEA847402D48468A407F2D5C1608468A4
:103AA000A40709D48468A4075CBF84685FEA8474AF
:103AB00002D48468A407F2D5C1608468A407CDD479
:103AC0008468A4075CBF84685FEA8474C6D4846891
:103AD000A407F2D5C2E700BFC160816889073FF53E
:103AE00089AF816889075CBF81685FEA81713FF5B2
:103AF00081AF81688907F0D57CE70000704700003E
:103B0000FDF774BCB0B592B0002443F64000CDE997
:103B10000A44CDE908440594CDE90344CDE90144C4
:103B20000094C4F202000168022541F08051016056
:103B3000006800F080500090009847F20000009468
:103B4000C4F20000016841F4804101600068A821CE
:103B500000F4804000900098012006904FF48030DF
:103B600007904FF480000D9004200E90119006A84D
:103B70000C95CDE90F15FDF7C7FD18B172B600BF62
:103B8000FEE700BF0F20CDE901054FF4A0500490DF
:103B90004FF48050059001A805210394FDF7CCFC5B
:103BA00010B172B6FEE700BF12B0B0BD4EF688503D
:103BB000CEF20000016841F470010160704700001E
:103BC000FEE7000048F2800B4FF68078C0F2FF0B52
:103BD000C0F28008FDF718FCFFF794FFFEF75EFFC8
:103BE000FEF78CFFFEF7BCFF49F6254749F6044572
:103BF00049F617464AF2A339C0F60007C0F6000599
:103C0000C0F600060BF5FE44C24608F17F08C0F27C
:103C1000A30900BF0220FEF79FFD40F24400C2F25C
:103C20000000FEF715FF0020FEF784FD5846FEF762
:103C30006FFDFDF7E9FF0D2046213A46FEF7E2FB56
:103C40000D206A212A46FEF7DDFB0D208E2132462B
:103C5000FEF7D8FB4FF47A70FDF7D8FA5046FEF71E
:103C600057FDFDF7D1FF0D2046213A46FEF7CAFB6E
:103C70000D206A212A46FEF7C5FB0D208E21324613
:103C8000FEF7C0FB4FF47A70FDF7C0FA48F2FF0070
:103C9000C0F28000FEF73CFDFDF7B6FF0D20462187
:103CA0003A46FEF7AFFB0D206A212A46FEF7AAFB33
:103CB0000D208E213246FEF7A5FB4FF47A70FDF7FA
:103CC000A5FA2046FEF724FDFDF79EFF0D204621B4
:103CD0003A46FEF797FB0D206A212A46FEF792FB33
:103CE0000D208E213246FEF78DFB4FF47A70FDF7E2
:103CF0008DFA4046FEF70CFDFDF786FF0D204621AC
:103D00003A46FEF77FFB0D206A212A46FEF77AFB32
:103D10000D208E213246FEF775FB4FF47A70FDF7C9
:103D200075FA4846FEF7F4FCFDF76EFF0D204621BC
:103D30003A46FEF767FB0D206A212A46FEF762FB32
:103D40000D208E213246FEF75DFB4FF47A70FDF7B1
:103D50005DFA0BF17F00FEF7DBFCFDF755FF0D2050
:103D600046213A46FEF74EFB0D206A212A46FEF711
:103D700049FB0D208E213246FEF744FB4FF47A704A
:103D8000FDF744FA6FF07F40FEF7C2FCFDF73CFF01
:103D90000D2046213A46FEF735FB0D206A212A46C2
:103DA000FEF730FB0D208E213246FEF72BFB4FF441
:103DB0007A70FDF72BFA2DE75FEA400C08BF91F00F
:103DC000000F4FEA8C234FEAC12243EA51514FEAD8
:103DD0001C5018BF00F5F0404FEA300018BF41F00A
:103DE00000415FEA6C5C00F02980BCF1FF3F08BF36
:103DF00040F080407047130C06BF12044FF0100CC7
:103E00004FF0000C130E04BF12020CF1080C130F3C
:103E100004BF12010CF1040C930F04BF92000CF1CB
:103E2000020CD30F04BF52000CF1010C11464FF0ED
:103E30000002A0F11F00A0EB0C00704711F0004F32
:103E400008BF704731F000413FF4D5AF0B0C06BFFF
:103E500009044FF0100C4FF0000C0B0E04BF0902C8
:103E60000CF1080C0B0F04BF09010CF1040C8B0FB3
:103E700004BF89000CF1020CCB0F04BF49000CF108
:103E8000010CCCF1200322FA03F341EA030102FA08
:103E90000CF2A0EB0C0000F10100704723F07F470B
:103EA00020F07F4C80EA030000F00040ACEB0703F9
:103EB00003F57C5303F1FF032DE9804909B44FEA70
:103EC000144324EA03484FEA154B25EA0B4E0FF240
:103ED000042606EB13273E7803FB0667C7F50007A9
:103EE00007FB06F64FEAD64606F102064FEA5437BC
:103EF00007FB066CCCF1005C4FEA1C472CEA074C30
:103F00000CFB06F507FB06F404EB15464FEA961684
:103F100049085FEA320234BF00204FF000404FEA08
:103F2000D13706FB07FC4FEA1C4C0CFB0BF7D21BEE
:103F300003FB0CF761EB07010CFB0EF7B0EB07403E
:103F400072EB17420CFB08F734BFA2EB0742B2EB4F
:103F5000074261EB17414FEA0C444FEA910706FB19
:103F600007FC4FEA1C4C0CFB0BF7B0EBC74072EBA5
:103F7000573203FB0CF734BFA2EBC742B2EBC74288
:103F800061EB57310CFB0EF7B0EBC70072EB5772C9
:103F90000CFB08F734BFA2EBC702B2EBC70261EB20
:103FA00057714FEA816141EA92114FEA826242EA17
:103FB00090124FEA806004EBCC04039F4FEAD137A4
:103FC00006FB07FC4FEA1C4C0CFB0BF7D21B03FB58
:103FD0000CF761EB07010CFB0EF7B0EB074072EB3F
:103FE00017420CFB08F734BFA2EB0742B2EB0742C3
:103FF00061EB17414FEA8C5504EB9C244FEA910783
:1040000006FB07FC4FEA1C4C0CFB0BF7B0EBC74060
:1040100072EB573203FB0CF734BFA2EBC742B2EB93
:10402000C74261EB57310CFB0EF7B0EBC70072EBE8
:1040300057720CFB08F734BFA2EBC702B2EBC70202
:1040400061EB57714FEA816141EA92114FEA826256
:1040500042EA90124FEA806015EB4C2544F10004CF
:104060004FEAD13706FB07FC4FEA1C4C0CFB0BF761
:10407000D21B03FB0CF761EB07010CFB0EF7B0EB57
:10408000074072EB17420CFB08F734BFA2EB074264
:10409000B2EB074261EB17414FEA813141EA9241AD
:1040A0004FEA823242EA90424FEA80304FEA0C7681
:1040B00015EB1C1544F1000448EA03434EEA0B4893
:1040C0004FF0000EB2EB080C71EB030724BF624601
:1040D00039464EEB0E0E4FF0000B0018524149418D
:1040E0004BEB0B0BB2EB080C71EB03077BF1000BF6
:1040F00024BF624639464EEB0E0E4FF0000B0018FF
:10410000524149414BEB0B0BB2EB080C71EB03072F
:104110007BF1000B24BF624639464EEB0E0E51EA8E
:10412000020718BF46F0010616EB0E7655F10002A5
:1041300054F1000103D5BDE88901BDE80088BDE860
:104140008901BDE80048B619524141EB0101A3F1D4
:104150000103704780807F7E7D7C7B7A79787776DB
:1041600076757473727171706F6E6E6D6C6C6B6A54
:104170006A696868676666656464636362616160F2
:10418000605F5F5E5E5D5D5C5C5B5B5A5A5959586F
:1041900058575756565555555454535352525251D9
:1041A000515050504F4F4F4E4E4D4D4D4C4C4C4B2F
:1041B0004B4B4A4A4A494949484848474747474676
:1041C00046464545454444444443434343424242B2
:1041D000424141419C46002B30D477002BD04FEA1E
:1041E00037071CB503B44FF010004FF01001BAF1BF
:1041F000000F06D0BCF1000FDCBF40F0080040F01B
:1042000008014FF000000FBCBDE810400BF1010B9E
:10421000BBF1010F08BF5FEA170722BF12F10102CD
:1042200011F101014FF0004143F1000300F00040A3
:1042300043EA00007047F9D35708D0E746EA06463C
:104240004FEA164613F1400F1FDD13F1200FDFBFB9
:1042500016430A46002120335B42BED0C3F120073B
:1042600046EA06464FEA164602FA07F746EA070606
:1042700022FA03F2C3F1200701FA07F742EA070224
:1042800021FA03F14FF00003A7E746EA020646EAE7
:1042900006464FEA164646EA0106BCBF46EA06460F
:1042A000360C4FF000034FF000024FF0000194E78E
:1042B0002DE9804C70B49A46934691E8380007C8BF
:1042C00031EA400C48BF34EA430C03D5FFF7E6FD62
:1042D000FFF780FFF0BCBDE8008C2DE9804C70B486
:1042E0009A46934691E8380007C810F0804F08BFFF
:1042F00013F0804F03D100F005F8FFF76BFFF0BC1F
:10430000BDE8008C20F07F4723F07F4C80EA03005B
:1043100000F0004007EB0C03A3F57C53A3F1FE0370
:1043200092F0000F00F0B38095F0000F00F077805E
:104330002DE901494FEA114021EA00484FEA1446AD
:1043400024EA064700FB06FC08FB06F607FB08F814
:1043500018EB06484CEB164C00FB07F718EB074828
:104360004CEB17404FEA124B22EA0B4E4FEA154630
:1043700025EA06470BFB06FC0EFB06F607FB0EFEC6
:104380001EEB064E4CEB164C0BFB07F71EEB074ED5
:104390004CEB174B18EB0B0840F1000018EB0E0B21
:1043A00058EB000840F100008F1A4FF000014FF069
:1043B00000063CBFC943661B14BFB5EB040C0021CB
:1043C0003CBFC943F61B4FEA174427EA04454FEAAE
:1043D0001C472CEA074C04FB076205FB07F70CFBA4
:1043E00005F616EB074642EB174204FB0CFC16EBF6
:1043F0000C4642EB1C421BEB060658EB0202414105
:104400004EEA8E0E46EA9E0601D5BDE80189B61930
:10441000524141EB0101A3F10103BDE801894FEADB
:10442000144524EA05464FEA114721EA074C05FBEB
:1044300007F406FB07F70CFB06F111EB074144EB11
:10444000174405FB0CFC11EB0C4144EB1C444FEAF8
:10445000124722EA074C05FB07F206FB07F70CFBA5
:1044600006F616EB074642EB174205FB0CFC16EB73
:104470000C4642EB1C456A1854F1000148BF7047D6
:10448000B619524141EB0101A3F10103704795F0C8
:10449000000F37D04FEA114221EA02464FEA144793
:1044A00024EA074C02FB07F106FB07F70CFB06F4B6
:1044B00014EB074441EB174102FB0CFC14EB0C44DA
:1044C00041EB1C414FEA154725EA074C02FB07F573
:1044D00006FB07F70CFB06F616EB074645EB174500
:1044E00002FB0CFC16EB0C4645EB1C42121951F179
:1044F000000148BF7047B619524141EB0101A3F1D9
:10450000010370474FEA144524EA05464FEA114774
:1045100021EA074C05FB07F106FB07F70CFB06F247
:1045200012EB074241EB174105FB0CFC12EB0C426E
:1045300051EB1C414FF0000648BF7047921841EB09
:104540000101A3F10103704703B4019841000098F1
:1045500050EAC12018BF04204A0D18BF40F00100E6
:1045600040F2FF72B2EB515F08BF40F00200012839
:1045700008BF052002B0704710B500290AD008789E
:10458000002807D005487844FCF7F2FD002801D048
:10459000002010BD0248784410BD0000CE56000037
:1045A000C656000010B500290AD00878002807D0A8
:1045B00005487844FCF7DCFD002801D0002010BD40
:1045C0000248784410BD0000BE560000B6560000F8
:1045D000F1EE100A4FF6FF71C0F2C03120EA01007F
:1045E00040F04070E1EE100A7047FCF787B9FCF725
:1045F000BBBA000000000000000000003031323380
:104600003435363738394142434445464030580006
:104610003031323334353637383961626364656638
:1046200040307800303132333435363738396162D2
:10463000636465667870003031323334353637382C
:1046400039414243444546585000000002400000B2
:10465000000000A00000000005400000000000C8AD
:10466000000000000C4000000000409C0000000022
:10467000194000000020BCBE0000000034400000D3
:10468000BFC91B8E00000004B5400000504BCFD0C6
:104690006607E2CF010000006C4100003E8251AA93
:1046A000DFEEA73401000000D9420000DCB5A0E233
:1046B0003A301F97FFFFFFFFB4450000FD25A0C85B
:1046C000E9A3C14FFFFFFFFFFF3F00000000008094
:1046D00000000000FF3F000000000080000000001C
:1046E00000000000000000000102030406070809A2
:1046F00000000000000000000000000000000404B2
:10470000040404040004000000140A0A000000006D
:1047100000000000000014143F140A3F0A0A0000C1
:1047200000041E1505060C14150F040000001215D8
:104730000D0A142C2A1200000000040A0A1E151586
:104740000936000000020201000000000000000025
:1047500000201008080808080810200000020408BB
:10476000080808080804020000000004150E0E15D1
:104770000400000000000404041F040404000000FE
:104780000000000000000000000202010000000024
:10479000001F0000000000000000000000000000FA
:1047A00000020000001008080804040202020100D0
:1047B00000000E1111111111110E0000000004066D
:1047C00004040404040E000000000E111108040289
:1047D000011F000000000E11100C1010110E00003F
:1047E0000000080C0A0A091E0818000000001F013A
:1047F000010F1010110E000000000E09010F111121
:10480000110E000000001F09080404040404000045
:1048100000000E11110E1111110E000000000E11FA
:1048200011111E10120E0000000000000400000014
:104830000004000000000000000400000004040068
:1048400000201008040204081020000000000000EE
:104850001F00001F000000000002040810201008C4
:104860000402000000000E111108040400040000FE
:1048700000000E111915151D011E00000000040492
:104880000C0A0A1E1233000000000F12120E121240
:10489000120F000000001E1101010101110E0000A5
:1048A00000000F1212121212120F000000001F124D
:1048B0000A0E0A02121F000000001F120A0E0A024E
:1048C0000207000000001C1201013911120C000047
:1048D00000003312121E12121233000000001F04D7
:1048E00004040404041F000000003E08080808082F
:1048F00008090700000037120A060A0A12370000EA
:104900000000070202020202223F000000001B1BFF
:104910001B1B15151515000000003B1216161A1A60
:104920001217000000000E1111111111110E0000DC
:1049300000000F12120E02020207000000000E110A
:1049400011111117190E180000000F12120E0A1281
:104950001237000000001E1101060810110F0000A0
:1049600000001F1504040404040E000000003312AC
:1049700012121212120C000000003312120A0A0C5A
:104980000404000000001515150E0A0A0A0A0000AA
:1049900000001B0A0A04040A0A1B000000001B0A8C
:1049A0000A040404040E000000001F0908040402A5
:1049B000121F0000001C04040404040404041C006E
:1049C000000202020404080808100000000E080893
:1049D0000808080808080E0000040A00000000008B
:1049E0000000000000000000000000000000003F88
:1049F00000040000000000000000000000000000B3
:104A0000000C121C123C000000000302020E1212E5
:104A1000120E000000000000001C1202021C000028
:104A200000001810101C1212123C000000000000C0
:104A3000000C121E021C000000003804041E0404B6
:104A4000041E000000000000003C120C021E221C8C
:104A500000000302020E12121237000000000400D0
:104A600000060404040E000000000800000C080802
:104A70000808080700000302023A0A0E1237000075
:104A80000000070404040404041F000000000000E8
:104A9000000F15151515000000000000000F121280
:104AA0001237000000000000000C1212120C00006F
:104AB00000000000000F1212120E0207000000009A
:104AC000001C1212121C103800000000001B06020D
:104AD0000207000000000000001E020C101E000073
:104AE00000000004040E040404180000000000008C
:104AF000001B1212123C0000000000000037120AD6
:104B00000C040000000000000015150E0A0A000049
:104B100000000000001B0A040A1B00000000000047
:104B20000037120A0C04040300000000001E0804F1
:104B3000041E0000001808080804080808081800E7
:104B400008080808080808080808080800060404F7
:104B500004080404040406000225180000000000F4
:104B60000000000000000000000000000000000045
:104B700000000000000000080808080808080000FD
:104B80001818000000486C2412000000000000000B
:104B9000000000000000002424247F1212127F1263
:104BA000121200000000081C2A2A0A0C1828282AC1
:104BB0002A1C080800000022251515152A585454EF
:104BC000542200000000000C1212120A762529114E
:104BD000916E0000000606040300000000000000C3
:104BE0000000000000402010100808080808081005
:104BF00010204000000204080810101010101008C7
:104C0000080402000000000008086B1C1C6B080868
:104C10000000000000000000080808087F080808DD
:104C2000080000000000000000000000000000007C
:104C3000060604030000000000000000FE00000063
:104C40000000000000000000000000000000000064
:104C500006060000000080404020201010080804D4
:104C60000402020000000018244242424242424232
:104C700024180000000000080E08080808080808AA
:104C8000083E00000000003C424242202010080480
:104C9000427E00000000003C42422018204040427A
:104CA000221C0000000000203028242422227E2024
:104CB000207800000000007E0202021A26404042D6
:104CC000221C0000000000382402021A2642424240
:104CD000241800000000007E222210100808080896
:104CE000080800000000003C4242422418244242CE
:104CF000423C0000000000182442424264584040F8
:104D0000241C000000000000000018180000000033
:104D1000181800000000000000000008000000005B
:104D200000080804000000402010080402040810D5
:104D3000204000000000000000007F0000007F0015
:104D400000000000000000020408102040201008AD
:104D5000040200000000003C4242464020101000C7
:104D6000181800000000001C225A555555552D42B8
:104D7000221C00000000000808181414243C2242E1
:104D800042E700000000001F2222221E224242426F
:104D9000221F00000000007C42420101010101428B
:104DA000221C00000000001F2242424242424242B6
:104DB000221F00000000003F4212121E1212024287
:104DC000423F00000000003F4212121E1212020277
:104DD000020700000000003C222201010171212293
:104DE000221C0000000000E7424242427E42424252
:104DF00042E700000000003E08080808080808080C
:104E0000083E00000000007C101010101010101060
:104E10001010110F0000007722120A0E0A1212223F
:104E200022770000000000070202020202020202D2
:104E3000427F000000000077363636362A2A2A2ABA
:104E40002A6B0000000000E346464A4A5252526272
:104E5000624700000000001C2241414141414141A4
:104E6000221C00000000003F424242423E02020279
:104E7000020700000000001C2241414141414D5306
:104E8000321C60000000003F4242423E12122222C9
:104E900042C700000000007C424202041820404249
:104EA000423E00000000007F490808080808080882
:104EB000081C0000000000E74242424242424242D7
:104EC000423C0000000000E742422224241414184F
:104ED000080800000000006B494949495555362231
:104EE00022220000000000E742242418181824247D
:104EF00042E7000000000077222214140808080886
:104F0000081C00000000007E21201010080404424C
:104F1000423F000000780808080808080808080848
:104F20000808780000000202040408080810102095
:104F300020204040001E10101010101010101010F3
:104F400010101E00003844000000000000000000A7
:104F50000000000000000000000000000000000051
:104F6000000000FF00060800000000000000000034
:104F700000000000000000000000003C42784442B5
:104F800042FC0000000000030202021A26424242D4
:104F9000261A00000000000000000038440202024F
:104FA00044380000000000604040407844424242E3
:104FB00064D80000000000000000003C427E0202B5
:104FC000423C0000000000F08808087E080808083D
:104FD000083E0000000000000000007C22221C02AD
:104FE0003C42423C000000030202023A4642424276
:104FF00042E700000000000C0C00000E0808080842
:10500000083E000000000030300000382020202042
:105010002020221E0000000302020272120A161251
:10502000227700000000000E080808080808080899
:10503000083E0000000000000000007F9292929263
:1050400092B70000000000000000003B46424242D0
:1050500042E70000000000000000003C42424242E3
:10506000423C0000000000000000001B26424242BB
:10507000221E020700000000000000784442424265
:10508000447840E000000000000000774C04040475
:10509000041F0000000000000000007C42023C40B1
:1050A000423E0000000000000008083E0808080812
:1050B000083000000000000000000063424242424D
:1050C00062DC000000000000000000E7422424141D
:1050D0000808000000000000000000EB4949555599
:1050E000222200000000000000000076241818189A
:1050F000246E000000000000000000E74224241499
:1051000018080807000000000000007E22100808B0
:10511000447E000000C020202020201020202020DD
:105120002020C000101010101010101010101010BF
:1051300010101010000608080808081008080808D1
:10514000080806000C32C200000000000000000049
:10515000000000000000000000000000000000004F
:10516000000000000000000000000000000000003F
:10517000000000000000000000000000000000002F
:1051800000003000300030003000300020002000EF
:10519000200020002000000000003000300000004F
:1051A000000000000000D800D8006C0024001200AD
:1051B00000000000000000000000000000000000EF
:1051C00000000000000000000000000000000000DF
:1051D00000000000840084008400FF01840084003B
:1051E000C60042004200FF014200420042000000AF
:1051F000000000000000000000002000F800240172
:105200002401A401280030006000A00020012C012E
:1052100024012401F800200020000000000000000C
:1052200000000000860049004900290029001900FB
:10523000D60028012801280124012401C200000011
:105240000000000000000000000000000C00120040
:1052500012001200EA00460046002500290039002D
:1052600011003201CC000000000000000000060028
:105270000600040002000100000000000000000021
:10528000000000000000000000000000000000001E
:10529000000000000000000180004000200020000D
:1052A000200010001000100010001000100020005E
:1052B00020002000400080000001000000000100EC
:1052C0000200040008000800080010001000100090
:1052D0001000100010000800080008000400020080
:1052E000010000000000000000000000000020009D
:1052F00020002603AE0370007000AE0326032000DA
:10530000200000000000000000000000000000007D
:105310000000000000001000100010001000FF014D
:10532000100010001000100000000000000000003D
:10533000000000000000000000000000000000006D
:10534000000000000000000000000000000000005D
:10535000000006000600040002000100000000003A
:105360000000000000000000000000000000FE033C
:10537000000000000000000000000000000000002D
:10538000000000000000000000000000000000001D
:10539000000000000000000000000000000000000D
:1053A00000000600060000000000000000000002EF
:1053B0000001000180008000C0004000600020006B
:1053C000300010001800080008000400040002006B
:1053D00000000000000000000000000078008400D1
:1053E0008400020102010201020102010201020124
:1053F000840084007800000000000000000000002D
:105400000000000010001C00100010001000100030
:105410001000100010001000100010007C000000B0
:105420000000000000000000000000007C0082007E
:10543000020102010201800040002000100008006B
:1054400004010201FE010000000000000000000055
:10545000000000003C00420082008200400070001A
:105460008000000100010201020182007C000000B6
:10547000000000000000000000004000400060004C
:10548000500048004800440042004200FE01400035
:1054900040004000F001000000000000000000009B
:1054A00000000000FC01040004000400040074007B
:1054B0008C00000100010201020182007C0000005A
:1054C000000000000000000000000000F0000801E3
:1054D0000401040002007A008600020102010201B8
:1054E00004018400780000000000000000000000BB
:1054F00000000000FE018200420040002000100079
:10550000100008000800080008000800080000005B
:10551000000000000000000000000000780084008F
:1055200002010201020184007800840002010201EC
:10553000020184007800000000000000000000006C
:1055400000000000780084008200020102010201D4
:105550008401780100018000820042003C000000CC
:10556000000000000000000000000000000000003B
:1055700000003000300000000000000000000000CB
:1055800000003000300000000000000000000000BB
:1055900000000000000000000000000010000000FB
:1055A00000000000000000000000000010001000DB
:1055B00010001000000000000000800040002000EB
:1055C0001000080004000200040008001000200081
:1055D000400080000000000000000000000000000B
:1055E00000000000000000000000FF0100000000BB
:1055F0000000FF01000000000000000000000000AB
:10560000000000000000000000000200040008008C
:105610001000200040008000400020001000080022
:105620000400020000000000000000000000000074
:1056300000007800840002010601060100018000DC
:10564000400020002000200000003000300000005A
:105650000000000000000000000000007800C4000E
:10566000F20159014901450125012501A500D90093
:10567000020184007800000000000000000000002B
:10568000000000001000100028002800280028005A
:10569000440044007C00440082008200C7010000F6
:1056A0000000000000000000000000003F00420079
:1056B0004200420022003E0042008200820082003E
:1056C000820042003F0000000000000000000000D7
:1056D00000000000780184010201020101000100C4
:1056E00001000100010001010201860078000000B4
:1056F0000000000000000000000000003F00C200A9
:105700008200020102010201020102010201020102
:10571000820042003F000000000000000000000086
:1057200000000000FF0082000201420042007E00F3
:10573000420042000200020002018200FF0000005D
:10574000000000000000000000000000FF008200D8
:105750000201420042007E004200420002000200BC
:10576000020002000700000000000000000000002E
:105770000000000070018801040102010200020023
:10578000020082030201020104010C01F00000008A
:10579000000000000000000000000000C7018200BF
:1057A0008200820082008200FE008200820082006D
:1057B00082008200C701000000000000000000001D
:1057C00000000000FE00100010001000100010008B
:1057D000100010001000100010001000FE0000006B
:1057E000000000000000000000000000FC0120009C
:1057F00020002000200020002000200020002000A9
:1058000020002000210011000E0000000000000018
:1058100000000000E70142002200220012001A00EE
:10582000160022002200420042008200C701000050
:10583000000000000000000000000000070002005F
:105840000200020002000200020002000200020048
:1058500002018200FF0000000000000000000000C4
:1058600000000000C701C600C600C600AA00AA00CA
:10587000AA00AA00AA00920092009200D70100009C
:10588000000000000000000000000000C7018600CA
:105890008A008A008A0092009200A200A200C20040
:1058A000C200C200870000000000000000000000ED
:1058B000000000003800C600820001010101010162
:1058C00001010101010101018200C6003800000050
:1058D0000000000000000000000000007F008200C7
:1058E00002010201020182007E00020002000200A9
:1058F000020002000700000000000000000000009D
:10590000000000003800C600820001010101010111
:105910000101010101011901A600A6007800400162
:10592000C000000000000000000000003F00420036
:105930008200820042003E0012002200220042004B
:10594000420082008701000000000000000000000B
:1059500000000000780184010201020002000C0036
:105960007000800000010201020186007A00000040
:10597000000000000000000000000000FE00110117
:105980001101100010001000100010001000100095
:1059900010001000380000000000000000000000AF
:1059A00000000000C70182008200820082008200A5
:1059B00082008200820082008200440038000000E1
:1059C000000000000000000000000000C70182008D
:1059D00082004400440044004400280028002800BD
:1059E000380010001000000000000000000000005F
:1059F00000000000BB019200920092009200AA00F9
:105A0000AA00AA006A0044004400440044000000C8
:105A1000000000000000000000000000CE01840033
:105A200044004800280030001000300028004800E2
:105A300048008400CE0100000000000000000000CB
:105A400000000000C7018200440044002800280034
:105A500010001000100010001000100038000000AE
:105A6000000000000000000000000000FC018400B5
:105A700082004000400020001000100008000800D4
:105A800004018400FE000000000000000000F0019E
:105A90001000100010001000100010001000100086
:105AA0001000100010001000100010001000F00195
:105AB00000000000000000000200040004000800D4
:105AC0000800080010001000200020002000400006
:105AD00040008000800080000001000000003E00C7
